:020000040800F2
:10000000C00A0020B5010008491600084116000882
:1000100045160008BD020008B522000800000000D7
:10002000000000000000000000000000A9220008FD
:10003000F502000800000000A5220008AD2200081B
:10004000CF010008CF010008CF010008CF01000850
:10005000CF010008CF010008CF010008CF01000840
:10006000CF010008CF010008CF010008CF01000830
:10007000CF010008CF010008CF010008CF01000820
:10008000CF010008CF010008CF010008CF01000810
:10009000CF010008CF010008CF010008CF01000800
:1000A000CF010008CF010008CF010008CF010008F0
:1000B000CF010008CF010008CF010008CF010008E0
:1000C000CF010008CF010008CF010008CF010008D0
:1000D000CF010008CF010008CF010008CF010008C0
:1000E000CF010008CF010008CF01000800F002F89E
:1000F00000F050F814A696E8000CB244B344DA4578
:1001000001D100F047F8BAE80F000FA696E83000DA
:10011000A5EB040504EB0607AAEB0704A7F101070A
:100120004FEA15154FEA3414A4F10104AC4201D38F
:1001300000F030F813F0010F18BFFB1A43F0010371
:1001400000F001F8DBE71847182C0000382C0000FD
:10015000103A24BF78C878C1FAD8520724BF30C8F3
:1001600030C144BF04680C60704700007047000055
:100170000023002400250026103A28BF78C1FBD8B0
:10018000520728BF30C148BF0B6070471FB51FBD65
:1001900010B510BD00F05CF81146FFF7F7FF02F054
:1001A0008BF800F07AF803B4FFF7F2FF03BC00F01D
:1001B0007DF800000948804709480047FEE7FEE750
:1001C000FEE7FEE7FEE7FEE7FEE7FEE7FEE7FEE707
:1001D00004480549054A064B70470000B122000853
:1001E000ED000008C0040020C00A0020C006002066
:1001F000C00600204FF0000200B513469446964614
:10020000203922BFA0E80C50A0E80C50B1F1200129
:10021000BFF4F7AF090728BFA0E80C5048BF0CC0D7
:100220005DF804EB890028BF40F8042B08BF704735
:1002300048BF20F8022B11F0804F18BF00F8012BA7
:1002400070477047704770470048704710000020A3
:100250007546FFF7F9FFAE4605006946534620F0A4
:100260000700854618B020B5FFF7B2FFBDE8204073
:100270004FF000064FF000074FF000084FF0000B62
:10028000AC46ACE8C009ACE8C009ACE8C009ACE8D1
:10029000C00921F007018D46704710B50446AFF341
:1002A00000802046BDE81040FFF77DBF01491820BF
:1002B000ABBEFEE72600020070470000FEE700002C
:1002C0004EF6FC50CEF20000016841F080710160F2
:1002D00041F20000CEF2000000214160016841F0CF
:1002E000010101600068012100F0007081EA5060A6
:1002F0007047000070470000002808BF704770B5C5
:100300004EF27F5141F2040241F6802CCFF6F97192
:10031000CEF20002C0F2060C10F0030E034653D0DA
:100320001468431E8C420FD91568A54208D9156878
:10033000A54205D91568A54202D91568A542F3D88A
:100340000CF10105002401E0654600BF1668361B6C
:10035000AE420BD21668361BAE4207D21668361B69
:10036000AE4203D21668361BAE42EFD3BEF1010F88
:100370002AD01468831E8C4210D900BF1568A5428C
:1003800008D91568A54205D91568A54202D915688E
:10039000A542F3D80CF10105002401E0654600BF39
:1003A0001668361BAE420BD21668361BAE4207D219
:1003B0001668361BAE4203D21668361BAE42EFD328
:1003C000BEF1020F40F0A880042803D2BDE87040BF
:1003D000704700BF0CF1010502E000BF002BF5D013
:1003E00014688C4210D900BF1068A04208D9106868
:1003F000A04205D91068A04202D91068A042F3D8E3
:100400000024284602E000BF604600BF1668361B85
:1004100086420BD21668361B864207D21668361BF8
:10042000864203D21668361B8642EFD314688C428C
:1004300010D900BF1068A04208D91068A04205D9A1
:100440001068A04202D91068A042F3D800242846C0
:1004500002E000BF604600BF1668361B86420BD222
:100460001668361B864207D21668361B864203D2B0
:100470001668361B8642EFD314688C4210D900BF31
:100480001068A04208D91068A04205D91068A0429F
:1004900002D91068A042F3D80024284602E000BF29
:1004A000604600BF1668361B86420BD21668361BA4
:1004B000864207D21668361B864203D21668361B60
:1004C0008642EFD314688C4210D900BF1068A04256
:1004D00008D91068A04205D91068A04202D9106856
:1004E000A042F3D80024284601E000BF6046043B48
:1004F0001668361B8642BFF471AF1668361B8642FB
:10050000BFF46CAF1668361B8642BFF467AF16683F
:10051000361B8642ECD361E71468C31E8C420FD9A8
:100520001668A64208D91668A64205D91668A642DA
:1005300002D91668A642F3D80CF10105002401E0A7
:10054000654600BF1668361BAE42BFF43DAF166865
:10055000361BAE42BFF438AF1668361BAE42BFF44E
:1005600033AF1668361BAE42ECD32DE72DE9F04FC2
:1005700082B00E68002E00F0FD8041F20042C4F20D
:100580000102042340F2004E904208BF03234FF6BD
:10059000FF7CC4F2010E009300240123C1F2100C71
:1005A0004FF0000A4FF000094BE000BF41F200029B
:1005B000C4F20102009F904208BF022704F00C031E
:1005C0000F229A402BEA020207FA03F34FEA9A0538
:1005D0001A4346F825204E6840F20C45F202DEF838
:1005E000082054BF22EA080242EA0802C4F20105C8
:1005F000CEF808202A68B30254BF22EA080242EA71
:1006000008022A60B303DEF8042054BF22EA08027D
:1006100042EA0802F303CEF80420DEF800204FF08F
:10062000010354BF22EA080242EA0802CEF8002081
:100630000E680AF1010A36FA0AF204F1040400F025
:10064000998003FA0AFB16EA0B08F1D04E6866455A
:1006500012DC122E56D8DFE806F0350B4D49555501
:10066000555555555555555555555545510000BF8E
:10067000D1F80C9046E000BF4FF6FF72C1F22102A4
:1006800096420FDC0022C1F2110296421AD00022DB
:10069000C1F21202964215D00022C1F22102964206
:1006A00010D02FE00022C1F2220296420AD000228E
:1006B000C1F23102964205D00022C1F232029642C6
:1006C00020D100BF8A684AB1012A14BFC0F814B013
:1006D000C0F810B04FF0080914E000BF4FF0040953
:1006E00010E000BFCA6802F104090BE04FF00009F6
:1006F00008E000BFCA6802F1080903E0CA6802F115
:100700000C0900BF02462646B8F5807F24BF04329C
:10071000203E17680F25B54027EA050509FA06F6B9
:1007200035431560CA79D2067FF582AF41F21803CE
:10073000C4F202031A68AEF57E7642F001021A6036
:100740001A6802F001020192019A2AF0030256F897
:1007500002B040F60002C4F20102904208D040F616
:100760000042C4F2010290427FF420AF012725E746
:10077000002723E702B0BDE8F08F0000002A08BF81
:10078000090401617047000040F2B840C2F2000065
:100790000068704740F2000040F2B841C2F2000029
:1007A000C2F2000100780A68104408607047000037
:1007B00080B542F20000C4F20200016841F010016D
:1007C0000160032000F07AF80F2000F005F800F037
:1007D00027F8002080BD000070B540F20006C2F28C
:1007E000000640F208013278C2F200014FF47A7339
:1007F0000968B3FBF2F20446B1FBF2F1084600F0DF
:100800004BFB0F2C4FF0010508D838B94FF0FF30E3
:1008100021460022002500F025F87460284670BDAE
:1008200082B041F21800C4F202000168022241F0D5
:1008300001010160016801F0010101910199416824
:1008400041F080514160406800F080500090009875
:100850000420C4F20100016862F31A61016002B071
:100860007047000010B54EF60C5CCEF2000CDCF8C0
:100870000030C3F3022E8EF00704042C28BF04249A
:10088000BEF103034FF0FF3E0EFA04F438BF00231D
:10089000A14399400EFA03F39A43114300F00F026B
:1008A00000F160430901043A03F5644362440028FF
:1008B00048BF02F10C03197010BD00004EF60C5138
:1008C000CEF200010A684FF6FF031A4060F30A22D5
:1008D00042F0806040F0FD7008607047002804BF5F
:1008E000012070472DE9F04381B042F20008C4F2C4
:1008F00002080446D8F800000D4600F007008142C7
:100900000CD9D8F8000020F007002843C8F80000F0
:10091000D8F8000000F00700A8426CD1206841F22E
:1009200004098107C4F2020917D5410705D5D9F892
:10093000001041F4E061C9F80010010705D5D9F8AD
:10094000001041F46051C9F80010D9F80010A268F5
:1009500021F0F0011143C9F80010C00742D1D8F8C6
:10096000000000F0070085420CD2D8F8000020F00B
:1009700007002843C8F80000D8F8000000F007007E
:10098000A84238D12068410707D5D9F80010E2689D
:1009900021F4E0611143C9F80010000708D5D9F827
:1009A0000000216920F4605040EAC100C9F800004D
:1009B000D9F8002002F00C00082841F20020C0F213
:1009C0007A004DD142F65053C2F38341C0F6000382
:1009D000595CD20338D440F60010C0F23D004843C1
:1009E0003EE000BF606859F8041C022808D00128C6
:1009F00026D1890306D4012001B0BDE8F08300BFF1
:100A00008901F8D5D9F8001021F003010843C9F88D
:100A10000000FFF7B9FE064641F28837D9F800001A
:100A2000616800F00C00B0EB810F98D0FFF7ACFECE
:100A3000801BB842F2D9032001B0BDE8F08300BFAB
:100A40008907D8D5DEE700BFD9F8002042F2245349
:100A5000C2F34042C0F600039A5C4843B0FBF2F098
:100A6000D9F8001042F21452C1F30311C0F600028B
:100A7000515C40F2080220FA01F140F20400C2F297
:100A800000000068C2F200021160FFF7A5FE00201E
:100A900001B0BDE8F0830000002804BF01207047CA
:100AA0002DE9F04182B00446007841F20006C0070B
:100AB000C4F202060CD0706800F00C00042840F06C
:100AC00081803068800303D56068002800F046818B
:100AD000207880071BD5706810F00C0F09D0706863
:100AE00000F00C00082840F087807068C00300F117
:100AF00083803068800703D52069012840F02E816B
:100B00003068616920F0F80040EAC1003060207868
:100B1000000713D4207840072CD4E569002D00F09D
:100B20001881706800F00C00082840F0A780012DA3
:100B300040F00481012002B0BDE8F081A0690028E6
:100B400000F084800020C4F242200121C0F880140B
:100B5000FFF71AFE054600BF706A800700F1B280F9
:100B6000FFF712FE401B0228F6D9032002B0BDE8B1
:100B7000F08100BFF0695FEAC00808D4F06940F076
:100B80008050F061F06900F080500090009847F2CA
:100B90000007C4F200073868C00549D4386840F43B
:100BA00080703860FFF7F0FD054600BF3868C0056B
:100BB0003ED4FFF7E9FD401B6428F7D9032002B0BB
:100BC000BDE8F081706800F00C00082803D170685F
:100BD000C0033FF576AF61683068002900F00C81F2
:100BE000B1F5A02F00F00081B1F5803F40F01A81EF
:100BF00040F480301CE100BF2069002840F2000072
:100C0000C4F2422000F0888001210160FFF7BCFDA2
:100C1000054600BF306880073FF572AFFFF7B4FDAF
:100C2000401B0228F6D9032002B0BDE8F08100BFC6
:100C3000E168306A002900F09D80052900F092806B
:100C4000012940F0AF8040F00100B1E00020C4F283
:100C500042200021C0F88014FFF796FD054600BF32
:100C6000706A80077FF556AFFFF78EFD401B0228A4
:100C7000F6D9032002B0BDE8F08100BF0027C4F21E
:100C8000422700203866FFF77FFD022D05460DD173
:100C90003068800140F1DE80FFF776FD401B0228BE
:100CA0004FF00300F4D902B0BDE8F0813068800154
:100CB0004FD5FFF769FD401B02284FF00300F5D91F
:100CC000F1E700BF40F20800C2F20000006844F6FD
:100CD000D351C1F26201A0FB0101480A019000BF9B
:100CE00000BF0198411E002801913FF413AF00BFDF
:100CF0000198411E002801913FF40CAF00BF0198FC
:100D0000411E002801913FF405AF00BF0198411E2C
:100D100000280191E4D1FDE600210160FFF734FDD8
:100D2000054600BF306880077FF5F1AEFFF72CFD68
:100D3000401B02284FF00300F4D9B4E77068216A21
:100D400000F480328A4209D1616A00F4701088424E
:100D500004D1002002B0BDE8F08100BF012002B044
:100D6000BDE8F08140F004003062306A40F00100DC
:100D70001EE000BF20F001003062306A20F0040065
:100D80003062FFF701FD054641F28837306A80077F
:100D900020D5FFF7F9FC401BB8424FF00300F5D90E
:100DA00081E700BF20F001003062306A20F00400CB
:100DB0003062FFF7E9FC054641F28837306A800768
:100DC00008D4FFF7E1FC401BB842F7D9032002B07A
:100DD000BDE8F081B8F1000F3FF59FAEF06920F05B
:100DE0008050F06199E600BF40F4802030603068A8
:100DF00040F480301CE000BF20F480303060306868
:100E000020F480203060FFF7BFFC05463068800387
:100E10007FF55EAEFFF7B8FC401B64284FF003007F
:100E2000F4D940E720F480303060306820F480202E
:100E30003060FFF7A9FC0546306880033FF548AEF7
:100E4000FFF7A2FC401B6428F6D9032002B0BDE8DE
:100E5000F08100BF206AB0F5803F05D17168A268BB
:100E600021F40031114371607168626A21F47411D8
:100E700011430843706001203866FFF785FC044683
:100E8000306880013FF565AFFFF77EFC001B02284C
:100E90004FF00300F4D906E7411E0020B0EB116FBC
:100EA0001CBF012070474EF21002CEF200025160CA
:100EB0004EF62351CEF20001F0230B700721906013
:100EC0001160704790F83C20012A4FF0020236D0A2
:100ED00010B580F83D200268D2F804E0D2F808C0CE
:100EE0000C682EF07003234340F2FF74C4F2000438
:100EF000A24253600ADCB2F1804F13D040F20043AB
:100F0000C4F200039A420DD011E000BF42F6004344
:100F1000C4F201039A4205D040F60003C4F2000374
:100F20009A4204D149682CF0800319439160012151
:100F3000002280F83D1080F83C20BDE810401046AB
:100F400070470000002804BF0120704710B590F8DA
:100F50003D1031B9002180F83C10044600F070F8D3
:100F60002046022180F83D10016840F2FF740B68B2
:100F7000C4F2000442F6004CA142C4F2010C15DC9C
:100F8000B1F1804F1AD040F20042C4F20002914207
:100F900014D0A14218DCB1F1804F1DD040F20042C4
:100FA000C4F20002914217D01AE000BF614505D09B
:100FB00040F60002C4F200029142EAD1826823F0B6
:100FC00070031343A142E6DD614505D040F60002FF
:100FD000C4F20002914203D1026923F44073134327
:100FE000846923F08002D0F804E0C368224361459D
:100FF0000A60CB62C1F828E002D14269CCF8302007
:1010000001224A610B69DB0703D00B6923F001035E
:101010000B6180F8462080F83E2080F83F2080F861
:10102000402080F8412080F8422080F8432080F85A
:10103000442080F8452080F83D20002010BD0000AD
:101040000068B0F1804F18BF704781B041F21C00BA
:10105000C4F20200016841F001010160006800F083
:1010600001000090009801B07047000090F83C200B
:10107000012A4FF002026CD080B580F83D20D0F8F4
:1010800000C04FF67772DCF8083023EA0202CCF891
:1010900008200B684F2B29DC1F2B45DD202B46D069
:1010A000302B44D0402B40F0AF80D1F804E0C96829
:1010B000DCF82030DCF8202022F00102CCF82020DF
:1010C000DCF8182022F0F00242EA011123F00A02B3
:1010D00042EA0E02CCF81810CCF82020DCF80810F8
:1010E00041F0470121F0300128E000BF6F2B33DDD4
:1010F000B3F5005F74D0B3F5805F21D0702B40F062
:101100008380D1E901E3C968DCF8082043EA0E03D3
:1011100022F47F4243EA01211143CCF80810DCF8A5
:10112000081041F0770109E00BB1102B6CD1DCF80D
:10113000081021F07001194341F00701CCF80810A4
:101140000022012180F83D10002180F83C10BDE80C
:1011500080401046704700BF502B21D0602B53D1E8
:10116000D1F804E0C968DCF82030DCF8202022F057
:101170001002CCF82020DCF8182022F4704242EA59
:10118000013123F0A00242EA0E12CCF81810CCF87C
:101190002020DCF8081041F0670121F01001CDE7B4
:1011A000D1F804E0C968DCF82030DCF8202022F017
:1011B0000102CCF82020DCF8182022F0F00242EAEC
:1011C000011123F00A0242EA0E02CCF81810CCF802
:1011D0002020DCF8081041F0570121F02001ADE794
:1011E000D1E901E3C968DCF8082043EA0E0322F4E0
:1011F0007F4243EA01211143CCF80810DCF80810C3
:1012000041F480419AE700BF01229AE780B586B099
:101210000068B0F1804F4FF00000CDE90400CDE947
:10122000020001D006B080BD41F21800C4F20200F5
:10123000016841F004010160006802A900F00400A7
:10124000019001980120029002200390059040F641
:101250000000C4F20100FFF789F906B080BD00006C
:1012600090F83C30012B04BF022070474FEAB202D5
:10127000032A00F2F1802DE9F043DFE802F003A534
:101280003B7500BF036842F600461D6A1A6AC4F245
:10129000010622F001021A621A465C6852F818CF61
:1012A000B3428E68D1F800E025F0020545EA060554
:1012B0000CD1CE68D1E9057824F4407425F00C05F2
:1012C00026F004063C43354344EA08042CF0730737
:1012D00047EA0E075C609F614F6809695F631D62A2
:1012E0009F6947F008079F619F6927F004079F6186
:1012F000A6E000BF036842F600461D6A1A6AC4F2FF
:10130000010622F480721A621A46D3F804C052F819
:101310001CEFB3428E680C6825F4007545EA06257B
:101320000FD1CE68D1E90598360240F2FF4725F487
:101330004065BE4335432CF4405748EA090647EA66
:10134000061C2EF073072743C3F804C0DF614F6803
:101350000969DF631D62DF6947F00807DF61DF6944
:1013600027F00407DF616BE0036842F60047D3F81B
:1013700020C01A6AC4F2010722F480521A621A4687
:101380005C6852F81C5FD1F800E08E68BB4204D163
:101390004F6924F4804444EA87142CF4005747EA48
:1013A000063725F4E64646EA0E265C60DE614E68A6
:1013B00009691E641F62DF6947F40067DF61DF6946
:1013C00027F48067DF613AE0036842F600461D6A51
:1013D0001A6AC4F2010622F010021A621A46D3F801
:1013E00004C052F8184FB3428E68D1F800E025F0DF
:1013F000200545EA06150FD1CE68D1E905986FF0B2
:10140000400725F0C00507EA061635432CF440676F
:1014100048EA090647EA860C24F4E64444EA0E2723
:10142000C3F804C09F614F6809699F631D629F698B
:1014300047F400679F619F6927F480679F610902F5
:101440001368194311600021BDE8F043002280F8C1
:101450003C200846704700BF0121002280F83C2054
:1014600008467047002804BF0120704710B590F867
:101470003D1031B9002180F83C10044600F070F8AE
:101480002046022180F83D10016840F2FF740B688D
:10149000C4F2000442F6004CA142C4F2010C15DC77
:1014A000B1F1804F1AD040F20042C4F200029142E2
:1014B00014D0A14218DCB1F1804F1DD040F200429F
:1014C000C4F20002914217D01AE000BF614505D076
:1014D00040F60002C4F200029142EAD1826823F091
:1014E00070031343A142E6DD614505D040F60002DA
:1014F000C4F20002914203D1026923F44073134302
:10150000846923F08002D0F804E0C3682243614577
:101510000A60CB62C1F828E002D14269CCF83020E1
:1015200001224A610B69DB0703D00B6923F0010339
:101530000B6180F8462080F83E2080F83F2080F83C
:10154000402080F8412080F8422080F8432080F835
:10155000442080F8452080F83D20002010BD000088
:1015600070470000C1B1042908D0082914BF4122E6
:101570004022825C012A05D016E000BF3F22825C37
:10158000012A11D10222082910D0042914BF80F8A1
:10159000412080F83F200BE090F83E20012A03D143
:1015A000022280F83E2003E00120704780F84020AE
:1015B000006801F01F010122036A8A4023EA020148
:1015C0000162036A42F64441C4F201011A43A1F1E7
:1015D0004403984202620FD040F2FF71C4F200014E
:1015E000884213DCB0F1804F1CD040F20041C4F2BD
:1015F0000001884216D01CE00A6842F400420A60EA
:1016000040F2FF71C4F200018842EBDD42F6004176
:10161000C4F20101884205D040F60001C4F2000185
:10162000884206D1816801F00701062904BF002025
:101630007047016841F0010101600020704700001F
:10164000FEE70000FEE70000FEE7000080B540F284
:101650007000C2F200004FF48061FEF7CBFD80BD48
:10166000B0B540F60044C4F201040546C209204664
:101670004FF40071FFF782F820464FF48071012289
:10168000FFF77CF820464FF480710022FFF776F8D0
:10169000C5F3801220464FF40071FFF76FF8204623
:1016A0004FF480710122FFF769F820464FF48071F2
:1016B0000022FFF763F8C5F3401220464FF4007193
:1016C000FFF75CF820464FF480710122FFF756F8CF
:1016D00020464FF480710022FFF750F8C5F3001246
:1016E00020464FF40071FFF749F820464FF480710F
:1016F0000122FFF743F820464FF480710022FFF7E4
:101700003DF8C5F3C00220464FF40071FFF736F8EC
:1017100020464FF480710122FFF730F820464FF445
:1017200080710022FFF72AF8C5F3800220464FF4AB
:101730000071FFF723F820464FF480710122FFF774
:101740001DF820464FF480710022FFF717F8C5F30B
:10175000400220464FF40071FFF710F820464FF486
:1017600080710122FFF70AF820464FF480710022B1
:10177000FFF704F805F0010220464FF40071FEF770
:10178000FDFF20464FF480710122FEF7F7FF20464F
:101790004FF480710022FEF7F1FF20464FF4807174
:1017A0000122FEF7EBFF20464FF480710022BDE8D6
:1017B000B040FEF7E3BF000010B540F60044C4F2AD
:1017C000010420464FF480710122FEF7D7FF204626
:1017D0004FF400710122FEF7D1FFAE2000F0E4FCCF
:1017E000D52000F0E1FC802000F0DEFCA82000F015
:1017F000DBFC3F2000F0D8FCD32000F0D5FC00201B
:1018000000F0D2FC402000F0CFFCA12000F0CCFC86
:10181000C82000F0C9FCDA2000F0C6FC122000F05D
:10182000C3FC812000F0C0FCCF2000F0BDFCD9201B
:1018300000F0BAFCF12000F0B7FCDB2000F0B4FCB3
:10184000302000F0B1FCA42000F0AEFCA62000F097
:10185000ABFC8D2000F0A8FC142000F0A5FCAF200C
:1018600000F0A2FC40F27000C2F200004FF4806170
:10187000FEF7C0FCBDE8104000F020BC2DE9F04FA1
:101880008BB0002B03920A907AD0039803EB0108E7
:10189000002863D00A9A40F2700E86184FF0010CAF
:1018A000C2F2000E0C46894606E000BF09F10109AC
:1018B0000FFA89F4A04563DD1FFA89F2402A0A9ADB
:1018C0000CD209F007020A9D0CFA02F2E4086FEA52
:1018D000020A0EEBC4172A4616E000BF541C24B2BD
:1018E000A642E3DD941C24B2A642DFDDD41C24B260
:1018F000A642DBDD043214B2A642EFDCD6E700BF1D
:1019000004352AB29642D1DDACB27F2C03D8BC5C40
:1019100004EA0A04BC546C1C22B29642C6DDA4B28E
:101920007F2C03D8BC5C04EA0A04BC54AC1C22B271
:101930009642BBDDA4B27F2C03D8BC5C04EA0A0447
:10194000BC54EC1C22B29642B0DDA4B27F2CD7D896
:10195000BC5C04EA0A04BC54D2E700BF0A4600BFDC
:10196000571C3FB2B8450BDD971C3FB2B84507DDA9
:10197000D71C3FB2B84503DD043217B2B845EFDCDF
:101980005A1EDDF80C8002EB5272B8F1000F4FEADC
:10199000E20700F0578201EB5172D31003EBE13004
:1019A000049008F0030022F00702082307900A9829
:1019B0008A1A03EA11310A44411C0191811C0091E9
:1019C00040F27001C2F200011FFA82F9C2F108026E
:1019D00001441FFA82FA08F0FC0C02910022002157
:1019E0000597CDF824C00CE017783B43137000BF77
:1019F0000899059F0131CAB2DDF824C09742C0F2B0
:101A000036820891CBB2149908FB031B049B02FB9E
:101A100008119E18082E06F1010206917CD2082AB0
:101A200080F0CC80B8F1040F80F00E814FF0000CF4
:101A30000799DDF80C800029DAD00CEB00037F2B2E
:101A40001BD8069940F2700EC2F2000E14460A46E8
:101A500011F80C7031460EEBC616F55C07FA09F763
:101A60002F43F75412F80C700EEBC416F55C27FAEE
:101A70000AF72F432246F7540E4607990129B7D09B
:101A800001990CEB01037F2B21D8069840F2700BD3
:101A90000CF10107C2F2000B10F807E00BEBC615C2
:101AA00015F8038031460EFA09F646EA0806144690
:101AB0000246EE54D75D0BEBC416F55C27FA0AF725
:101AC0000A98DDF80C802F432246F7540E460799FA
:101AD00002298DD000990CEB01077F2F88D806983A
:101AE00040F270010CF10203C2F2000110F803C0D1
:101AF00001EBC61515F807E00CFA09F646EA0E06E2
:101B000014460246EE55D35C0A9801EBC41223FA40
:101B10000AF33A4468E700BF072A3FF669AF9446E4
:101B2000B8F1040F80F004810025079900293FF4E3
:101B30005FAF2B1862467F2B10D8069810F805C0AF
:101B400040F27000C2F2000000EBC21616F803E08B
:101B50002CFA0AF70A9847EA0E07F7540799012961
:101B60003FF446AF01996B187F2B11D806986F1C74
:101B700010F807C040F27000C2F2000000EBC2167D
:101B800016F803E02CFA0AF70A9847EA0E07F7540A
:101B9000079902293FF42CAF00996F187F2F3FF669
:101BA00027AF0699AB1CCB5C40F27001C2F200017A
:101BB00001EBC21223FA0AF33A4415E7B8F1040F15
:101BC00080F00481B6460025079900293FF410AF44
:101BD0002A187F2A0CD806994B5D40F27001C2F298
:101BE000000101EBCE17BE5C03FA09F33343BB548B
:101BF000079901293FF4FCAE01996A187F2A0DD894
:101C000006996B1CCB5C40F27001C2F2000101EB43
:101C1000CE17BE5C03FA09F33343BB54079902297C
:101C20003FF4E6AE00996A187F2A3FF6E1AE0699C6
:101C3000AB1CCB5C40F27001C2F2000101EBCE178D
:101C400003FA09F33A44CFE602994FF0000C01EB96
:101C5000C61506E009980CF1040C60450A983FF49B
:101C6000E7AE00EB0C037F2B05EB0C0E0CD9591CD7
:101C70007F290BEB0C081ED9991C7F2930D9D91C60
:101C80007F29E7D841E000BF1BF80C1015F80C4085
:101C900001FA09F1214305F80C101BF80C109EF80D
:101CA000804021FA0AF121438EF88010591C7F29C7
:101CB0000BEB0C08E0D898F801109EF8014001FAEF
:101CC00009F121438EF8011098F801109EF8814027
:101CD00021FA0AF121438EF88110991C7F29CED870
:101CE00098F802109EF8024001FA09F121438EF89B
:101CF000021098F802109EF8824021FA0AF121435E
:101D00008EF88210D91C7F29A4D898F803109EF869
:101D1000033001FA09F119438EF8031098F8031003
:101D20009EF8833021FA0AF119438EF8831091E767
:101D30000299099A01EBC613002503E00435AA4273
:101D40003FF4F3AE47197F2F0AD9791C7F2914D9A4
:101D5000B91C7F291FD9F91C7F29EFD829E000BFC2
:101D60001BF805105E1996F8804021FA0AF121430C
:101D700086F88010791C7F29EAD80BEB0501497899
:101D80005E1996F8814021FA0AF1214386F8811004
:101D9000B91C7F29DFD80BEB050189785E1996F80D
:101DA000824021FA0AF1214386F88210F91C7F292A
:101DB000C4D80BEB0501C9785F1997F8836021FA45
:101DC0000AF1314387F88310B8E700BF0299B6469D
:101DD00001EBC613002503E00435AC453FF4F4AE37
:101DE00042197F2A06D81BF805705E5D07FA09F7CD
:101DF00037435F55571C7F2F0BEB050603EB050799
:101E000006D9911C7F290CD9D11C7F29E4D811E077
:101E100071787C7801FA09F121437970911C7F294E
:101E2000F2D8B178BC7801FA09F12143B970D11C1C
:101E30007F29D1D8F178FA7801FA09F11143F970C4
:101E4000CAE700BF002000BF40F00101C9B28F42C5
:101E50000DDB40F00201C9B28F4208D340F003010C
:101E6000C9B28F4203D30430C1B28F42ECD20BB05F
:101E7000BDE8F08F2DE9F04F83B0002B029200F007
:101E8000C38083460C981C468946082862D00628E1
:101E900040F0BA80A01EC4F1000A651E4FF0000891
:101EA00042F21076019029E00120029A0C99B2FBCF
:101EB000F0F24CF6CD4008FB01B1CCF6CC40A2FBD1
:101EC000000308B2D90801EB8101A2EB410141F006
:101ED000100142F2265201EB4101C0F6000202EB72
:101EE00041074946062208230097FFF7C7FC08F17F
:101EF0000108A045A5F1010500F0868088EA0A00E6
:101F00000130D1D00198A0EB0800032802D20120B3
:101F100008E000BF25F00301012000BF043906FBE3
:101F200000F0FBD16FEA0801214411F00301BCD09D
:101F3000012903D100EB80004000B6E74FF47A722C
:101F4000424302294FF0640108BF00FB01F2104632
:101F5000ABE700BFA01EC4F10008651E002642F2D8
:101F6000107A019026E000BF0120029A0C99B2FB82
:101F7000F0F24CF6CD4006FB01B1CCF6CC40A2FB12
:101F8000000308B2D90801EB8101A2EB410142F242
:101F90006072C0F6000202EB011101F5807749463C
:101FA000082210230097FFF769FC0136A642A5F12D
:101FB000010529D086EA08000130D5D00198801BA0
:101FC000032801D2012007E025F00301012000BF12
:101FD000043900FB0AF0FBD1F143214411F0030165
:101FE000C3D0012904D100EB80004000BDE700BF51
:101FF0004FF47A72424302294FF0640108BF00FB9C
:1020000001F21046B1E700BF03B0BDE8F08F000059
:102010002DE9F04782B092461278002A4BD01D4637
:10202000894607460020082B2CD0062D23D142F2EA
:102030002658C0F60008002600FB057002EB42019E
:1020400008EB4101A1F1C00400B249460622082371
:102050000094FFF713FC0136F0B21AF80020002AB2
:10206000EAD128E08A7832B3C97821B30430C1B20A
:102070001AF80110F9B1C1B251444A78002AF1D1DD
:1020800019E000BF42F26078C0F60008002600BFE9
:1020900000FB057008EB0211A1F5007400B249467F
:1020A000082210230094FFF7E9FB0136F0B21AF87A
:1020B0000020002AECD102B0BDE8F08710B5B020B6
:1020C00000F072F8102000F06FF8002000F06CF8BB
:1020D00040F27004C2F200042046802100F0A0F813
:1020E000B12000F061F8102000F05EF8002000F050
:1020F0005BF804F18000802100F092F8B22000F03B
:1021000053F8102000F050F8002000F04DF804F5CE
:102110008070802100F084F8B32000F045F8102092
:1021200000F042F8002000F03FF804F5C070802174
:1021300000F076F8B42000F037F8102000F034F802
:10214000002000F031F804F50070802100F068F8FC
:10215000B52000F029F8102000F026F8002000F04B
:1021600023F804F52070802100F05AF8B62000F022
:102170001BF8102000F018F8002000F015F804F506
:102180004070802100F04CF8B72000F00DF81020CE
:1021900000F00AF8002000F007F804F560708021D4
:1021A000BDE8104000F03CB8B0B540F60044C4F2C1
:1021B0000104054620464FF400710122FEF7DEFAC5
:1021C00020464FF480710122FEF7D8FA20464FF4E2
:1021D00000710022FEF7D2FA20464FF480710022EF
:1021E000FEF7CCFA7820FFF73BFA0020FFF738FA29
:1021F0002846FFF735FA20464FF400710022FEF71B
:10220000BDFA20464FF480710122FEF7B7FA20464E
:102210004FF400710122BDE8B040FEF7AFBA0000F4
:1022200070B540F60044C4F201040D46064620464F
:102230004FF400710122FEF7A1FA20464FF480719D
:102240000122FEF79BFA20464FF400710022FEF7B0
:1022500095FA20464FF480710022FEF78FFA78201D
:10226000FFF7FEF94020FFF7FBF93DB1013E00BF4B
:1022700016F8010FFFF7F4F9013DF9D120464FF4AC
:1022800000710022FEF77AFA20464FF48071012295
:10229000FEF774FA20464FF400710122BDE8704049
:1022A000FEF76CBA7047000070470000FEF772BA84
:1022B00070470000FEE7000092B0FEF779FA0024B4
:1022C0000120CDE90B44CDE9094406900A904FF472
:1022D000E0104FF4803102250F9006A8CDE90714D5
:1022E000CDE90D51FEF7D8FB20B1EFF3108072B6A7
:1022F000FEE700BF0F20CDE901054FF48060CDE976
:10230000040401A802210394FEF7E8FA20B1EFF3D8
:10231000108072B6FEE700BF002741F21800CDE939
:102320000877CDE90677C4F20200016840F600099B
:1023300041F0200101600168C4F2010901F02001AF
:10234000019101990168002241F0040101600168D6
:102350000E2601F0040101910199016841F0080184
:10236000016000680E2100F00800019001984846C5
:10237000FEF704FA09F5806528464FF44071002203
:102380004FF44078FEF7FAF9069606AE4FF0010AD0
:10239000022448463146CDE907A70994FEF7E6F83E
:1023A00028463146CDE9068ACDE90874FEF7DEF805
:1023B00040F27040C2F200004FF0804140F2CF2264
:1023C000632380E8860080210497CDE90277CDE978
:1023D0001077CDE90B77CDE90977C0E90337816143
:1023E000FEF7B0FD20B1EFF3108072B6FEE700BF3C
:1023F0004FF48050019040F27040C2F2000001A9F9
:10240000FEF734FE20B1EFF3108072B6FEE700BF96
:1024100040F27040C2F20000FFF724F820B1EFF361
:10242000108072B6FEE700BF40F27040C2F20000BA
:1024300010A9FEF747FD28B1EFF3108072B600BF78
:10244000FEE700BF60200690322040F27044079003
:102450000020C2F2000408900A9006A9204600223B
:10246000FEF7FEFE20B1EFF3108072B6FEE700BF6C
:102470002046FEF7CBFEFDF723FFFFF79DF9FFF7A0
:10248000E5F822A20020002108234FF00808FFF7FA
:10249000BFFDFFF713FE2046FEF754FD2046002146
:1024A000FFF760F840F2B8494CF6CD4A4AF20026F0
:1024B000C2F20009CCF6CC4A41F28837C0F24A4653
:1024C000D9F800006425A0FB0A01C808642888BF69
:1024D000CD08BD4228BF3D46002010212A460423D6
:1024E000CDF80080FFF7C6FCD4E900010131B6FB4E
:1024F000F1F1B1FBF5F10139C162E16049084163D5
:10250000FFF7DCFD6420FDF7F7FED9E748656C6C4A
:102510006F772100000000000000000001020304AA
:102520000607080901020000000000000000002F5B
:10253000000000000700070000147F147F1400242F
:102540002A7F2A120023130864620036495522505C
:1025500000000007000000001C2241000000412292
:102560001C000014083E08140008083E080800007B
:1025700000A0600000080808080800006060000073
:10258000002010080402003E5149453E0000427FF1
:102590004000004261514946002141454B3100183D
:1025A00014127F10002745454539003C4A494930FF
:1025B00000017109050300364949493600064949B9
:1025C000291E0000363600000000563600000008C4
:1025D00014224100001414141414000041221408A1
:1025E000000201510906003E4955592E007C121186
:1025F000127C007F49494936003E41414122007F1B
:102600004141221C007F49494941007F09090901D4
:10261000003E4149497A007F0808087F0000417F59
:102620004100002040413F01007F08142241007F0B
:1026300040404040007F020C027F007F0408107F72
:10264000003E4141413E007F09090906003E4151DB
:10265000215E007F09192946004649494931000198
:10266000017F0101003F4040403F001F2040201FEC
:10267000003F4038403F00631408146300070870AF
:10268000080700615149454300007F4141000002B5
:1026900004081020000041417F00000402010204F0
:1026A000004040404040000001020400002054541B
:1026B0005478007F4844443800384444442000386B
:1026C0004444487F00385454541800087E090102DD
:1026D0000018A4A4A47C007F080404780000447DB2
:1026E0004000004080847D00007F102844000000EE
:1026F000417F4000007C04180478007C08040478C2
:1027000000384444443800FC2424241800182424AD
:1027100018FC007C080404080048545454200004A9
:102720003F444020003C4040207C001C2040201CB6
:10273000003C4030403C004428102844001CA0A02D
:10274000A07C004464544C440000087F4100000019
:10275000007F00000000417F080000080408100806
:102760000000000000000000000000000000000069
:10277000000000F8000000000000003330000000FE
:1027800000160E00160E0000000000000000000001
:1027900040C07840C0784000043F04043F04040077
:1027A000007088FC08300000001820FF211E000087
:1027B000F008F000E018000000211C031E211E009C
:1027C00000F00888700000001E2123241927211022
:1027D000000000160E0000000000000000000000D5
:1027E000000000E01804020000000007182040006C
:1027F00000020418E000000000402018070000005C
:10280000404080F0804040000202010F01020200BF
:10281000000000F0000000000101011F01010100A3
:10282000000000000000000000B070000000000088
:102830000000000000000000000101010101010191
:102840000000000000000000003030000000000028
:1028500000000000806018040060180601000000FD
:1028600000E010080810E000000F102020100F00FA
:10287000001010F8000000000020203F2020000081
:1028800000700808088870000030282422213000D9
:1028900000300888884830000018202020110E00E1
:1028A0000000C02010F8000000070424243F24008A
:1028B00000F80888880808000019212020110E005F
:1028C00000E0108888180000000F112020110E0071
:1028D00000380808C83808000000003F0000000069
:1028E0000070880808887000001C222121221C002A
:1028F00000E010080810E0000000312222110F0053
:10290000000000C0C00000000000003030000000E7
:10291000000000C0C0000000000080B07000000097
:102920000000804020100800000102040810200070
:1029300040404040404040000404040404040400BB
:102940000008102040800000002010080402010050
:10295000007048080808F000000000303601000050
:10296000C030C828E810E0000718272423140B0003
:102970000000C038E0000000203C2302022738207D
:1029800008F8888888700000203F202020110E0061
:10299000C030080808083800071820202010080058
:1029A00008F808080810E000203F202020100F0041
:1029B00008F88888E8081000203F2020232018000D
:1029C00008F88888E8081000203F20000300000075
:1029D000C03008080838000007182020221E020016
:1029E00008F808000008F808203F210101213F20D5
:1029F000000808F8080800000020203F2020000000
:102A000000000808F8080800C08080807F000000EF
:102A100008F888C028180800203F20012638200028
:102A200008F8080000000000203F2020202030008F
:102A300008F8F800F8F80800203F003F003F2000A9
:102A400008F830C00008F808203F200007183F00B1
:102A5000E01008080810E0000F10202020100F00E0
:102A600008F808080808F000203F210101010000D3
:102A7000E01008080810E0000F18242438504F0018
:102A800008F8888888887000203F2000030C3020D8
:102A900000708808080838000038202121221C0016
:102AA000180808F8080818000000203F200000005F
:102AB00008F808000008F808001F202020201F0048
:102AC0000878880000C83808000007380E010000A8
:102AD000F80800F80008F800033C0700073C030072
:102AE000081868808068180820302C03032C3020D8
:102AF0000838C800C83808000000203F2000000047
:102B000010080808C838080020382621202018009E
:102B1000000000FE020202000000007F4040400072
:102B2000000C30C000000000000000010638C000AA
:102B300000020202FE000000004040407F00000052
:102B40000020100804081020000000000000000011
:102B50000000000000000000808080808080808075
:102B60000002040800000000000000000000000057
:102B700000008080808000000019242222223F2053
:102B800008F8008080000000003F112020110E0096
:102B90000000008080800000000E11202020110025
:102BA000000000808088F800000E112020103F20D7
:102BB0000000808080800000001F2222222213005B
:102BC000008080F0888888180020203F20200000A6
:102BD0000000808080808000006B9494949360005B
:102BE00008F8008080800000203F210000203F2066
:102BF00000809898000000000020203F2020000066
:102C0000000000809898000000C08080807F000055
:102C100008F8000080808000203F24022D30200032
:102C2000000808F8000000000020203F20200000DD
:102C30008080808080808000203F20003F20003FF7
:102C4000008080008080000000203F2100203F2085
:102C50000000808080800000001F202020201F00B6
:102C6000808000808000000080FFA12020110E00E5
:102C70000000008080808000000E112020A0FF80D6
:102C8000808080008080800020203F212000010083
:102C900000008080808080000033242424241900D8
:102CA000008080E0808000000000001F20200000E5
:102CB0008080000000808000001F202020103F2026
:102CC000808080000080808000010E3008060100B6
:102CD00080800080008080800F300C030C300F005B
:102CE00000808000808080000020312E0E31200086
:102CF000808080000080808080818E7018060100B6
:102D000000808080808080000021302C22213000D3
:102D100000000000807C020200000000003F4040F4
:102D200000000000FF00000000000000FF000000A5
:102D30000002027C800000000040403F00000000D4
:102D40000080404080000080000000000001010081
:102D500002030405060708090A0B0C0D0E0F1010DC
:102D6000802D000800000020100000005001000825
:102D7000902D000810000020B00A0000700100082B
:102D8000010000001000000000127A0000000000A6
:04000005080000ED02
:00000001FF
