:020000040800F2
:10000000C00C00249903000809320008991E00085A
:10001000A92C0008C10400081143000800000000DA
:100020000000000000000000000000000140000887
:10003000F904000800000000D93F0008094000084A
:10004000B3030008B3030008B3030008B3030008B8
:10005000B3030008B3030008B3030008B3030008A8
:10006000B3030008B3030008B3030008B303000898
:10007000B3030008B3030008B3030008B303000888
:10008000B3030008B3030008B3030008B303000878
:10009000B3030008B3030008B3030008B303000868
:1000A000B3030008B3030008B3030008B303000858
:1000B000B3030008B3030008B3030008B303000848
:1000C000B3030008B3030008B3030008B303000838
:1000D000B3030008B3030008B3030008B303000828
:1000E000B3030008B303000800000000B3030008D6
:1000F000B3030008B3030008B3030008B303000808
:10010000B3030008B3030008B3030008B3030008F7
:10011000B3030008B3030008B3030008B3030008E7
:10012000B3030008B3030008B3030008B3030008D7
:10013000B3030008B3030008B3030008B3030008C7
:1001400000000000000000000000000000000000AF
:10015000B3030008B3030008B3030008B3030008A7
:10016000B3030008B3030008B3030008B303000897
:10017000B3030008B3030008B30300080000000045
:10018000B3030008B3030008B3030008B303000877
:10019000B3030008B3030008B3030008B303000867
:1001A000B3030008B3030008B30300080000000015
:1001B000B3030008B3030008B3030008B303000847
:1001C000B3030008B30300080000000000000000B3
:1001D0000000000000000000B30300080000000061
:1001E000000000000000000000000000000000000F
:1001F0000000000000000000B3030008B303000883
:10020000B3030008B303000800000000B3030008B4
:10021000B3030008B3030008B3030008B3030008E6
:10022000B303000800000000B30300080000000052
:10023000B3030008B303000800000000B303000884
:10024000B3030008B3030008B3030008B3030008B6
:10025000B3030008B3030008B3030008B3030008A6
:10026000B3030008B3030008B3030008B303000896
:10027000B3030008B3030008B30300080000000044
:10028000B3030008B3030008B3030008B303000876
:1002900000000000B3030008B303000800000000E2
:1002A00000000000B3030008B3030008B303000814
:1002B000B3030008B3030008B3030008B303000846
:1002C000B3030008B3030008B303000800F002F80A
:1002D00000F052F814A696E8000CB244B344DA4594
:1002E00001D100F049F8BAE80F000FA696E83000F7
:1002F000A5EB040504EB0607AAEB0704A7F1010729
:100300004FEA15154FEA3414A4F10104AC4201D3AD
:1003100000F032F813F0010F18BFFB1A43F001038D
:1003200000F001F8DBE718471C5700003C570000BD
:10033000103A24BF78C878C1FAD8520724BF30C811
:1003400030C144BF04680C60704700007047000073
:100350000023002400250026103A28BF78C1FBD8CE
:10036000520728BF30C148BF0B6070471FB504F06B
:100370003EFF1FBD10B510BD00F06CF81146FFF731
:10038000F5FF04F025FA00F08AF803B4FFF7F2FF56
:1003900003BC00F08DF80000094880470948004779
:1003A000FEE7FEE7FEE7FEE7FEE7FEE7FEE7FEE725
:1003B000FEE7FEE704480549054A064B7047000082
:1003C000D9400008CD020008C0060024C00C00245B
:1003D000C0080024C00800244FF0000200B51346F6
:1003E00094469646203922BFA0E80C50A0E80C5055
:1003F000B1F12001BFF4F7AF090728BFA0E80C5006
:1004000048BF0CC05DF804EB890028BF40F8042BFE
:1004100008BF704748BF20F8022B11F0804F18BF6B
:1004200000F8012B704770477047704710B500F017
:1004300009F8006810BD10B5044600F003F8046028
:1004400010BD000000487047480000240048704775
:10045000480000247546FFF7F9FFAE4605006946DF
:10046000534620F00700854618B020B5FFF7A2FFDD
:10047000BDE820404FF000064FF000074FF00008A5
:100480004FF0000BAC46ACE8C009ACE8C009ACE8E2
:10049000C009ACE8C00921F007018D46704710B5CE
:1004A0000446AFF300802046BDE81040FFF76DBF63
:1004B00001491820ABBEFEE726000200704700008D
:1004C000FEE70000000000004EF6FC50CEF20000F7
:1004D000016841F08071016041F200000021CEF21C
:1004E00000004160016841F0010101604068B0FA1C
:1004F00080F04009704700007047000000000000D5
:1005000043F6800241F20401C0F20102CEF2000182
:1005100050430A680B689B1A83420BD20B689B1AE4
:1005200083423EBF0B689B1A834203D20B689B1A1F
:100530008342EFD37047000041F2040100EB8002D8
:10054000CEF20001120108680B681B1A93420BD20D
:100550000B681B1A93423EBF0B681B1A934203D2CF
:100560000B681B1A9342EFD3704700000000000095
:10057000EFF3108072B600BFFEE70000000000003D
:100580002DE9F04F83B00F68002F00F0C98000F113
:10059000264642F2004506F1FF76C5F602050A221C
:1005A000A8424FEAB62540F2040C08BF092200F128
:1005B00020030093082DC5F6000C38BF4FEAB62281
:1005C000002400264FF0000801920AE008F101081B
:1005D0000F6837FA08F206F1020604F1040400F08D
:1005E0009F80012202FA08FE17EA0E09EED0D1F828
:1005F00004B003220BF00307B2407D1E6FEA020A2B
:10060000012D11D88268CD6802EA0A02B5402A435A
:100610008260CBF30015426822EA0E0205FA08F563
:100620002A43426004E000BF032F01D103271FE0EB
:10063000C2688D6802EA0A02B540022F42EA05024A
:10064000C26015D16FF0030204F01C0502EA580BDA
:10065000009A0F2352F80BE0AB400F692EEA030318
:10066000AF403B4342F80B30D1F804B00BF0030726
:10067000026807FA06F302EA0A021BF4403F42EA64
:1006800003020260A2D044F2F44340F2084EC5F6E1
:100690000203C5F6000E0F251A6842F002021A6026
:1006A0001A6802F00202029228F00302029B04F090
:1006B0000C0352F80E709D40AF43019D05FA03F301
:1006C0003B4342F80E304FF0B04EDEF800204B684E
:1006D00042EA0907DD0258BF22EA09079D02CEF867
:1006E0000070DCF8002042EA090758BF22EA090737
:1006F0009D03CCF80070DCF8802042EA090758BF5F
:1007000022EA0907DB03CCF88070DCF87C2042EA9F
:10071000090758BF22EA0907CCF87C7056E700BFEA
:1007200003B0BDE8F08F00000069084018BF012049
:100730007047000000000000002A08BF0904816122
:10074000704700000000000040F2BC60C2F20040B0
:10075000006870470000000040F2000040F2BC61F9
:10076000C2F20040C2F2004100780A6810440860FA
:10077000704700000000000080B5032000F098F8EA
:1007800000F0FAF944F2184145F20823C5F60201D7
:10079000C0F600030A68C2F303229A5C096801F0FC
:1007A0000F0102F01F02595CD04040F20C02C2F26D
:1007B000004201F01F0120FA01F1116040F208012E
:1007C000C2F2004108600F2000F00AF800281CBFA8
:1007D000012080BD00F02CF8002080BD000000004A
:1007E000B0B540F20005C2F200452978F1B10446E7
:1007F00040F20800C2F200404FF47A72B2FBF1F10D
:100800000068B0FBF1F000F0DFFC0F2C01464FF068
:1008100001000AD8002918BFB0BD4FF0FF300022F8
:10082000214600F015F800206C60B0BD0120B0BD7D
:1008300081B044F2F440C5F60200016841F00201C3
:100840000160006800F002000090009801B070475D
:1008500070B54EF60C5C4FF0FF36CEF2000C00F196
:10086000604505F56445DCF80030C3F3022E8EF0D8
:100870000703042B28BF0423BEF1030406FA03F385
:1008800021EA030100F00F0338BF0024043B0028D5
:10089000634406FA04F048BF03F10C05A14022EAC4
:1008A000000008430001287070BD00000000000037
:1008B0004EF60C514FF6FF03CEF200010A681A40C3
:1008C00060F30A2242F0806040F0FD7008607047DB
:1008D000B0B544F60C05C5F6020529684907296834
:1008E00006D401F00701081A18BF0120B0BD00BFEF
:1008F00021F0070108432860FFF726FF044600BFE8
:1009000055F8080C800407D4FFF71EFF001BB0F554
:100910007A7FF5D90120B0BD0020B0BD00000000F5
:100920002DE9F04381B0002800F0208142F2000957
:100930000446C5F20029D9F8000000F00F008142FA
:100940000DD9D9F8000020F00F000843C9F80000C5
:10095000D9F8000000F00F00884240F007812068BD
:1009600044F218464207C5F602060AD522693368E2
:1009700003F070039A4204D9336823F070031A43DA
:10098000326002070AD56269736803F070039A4205
:1009900004D9736823F070031A437260C2060AD543
:1009A000A269736803F4E0639A4204D9736823F47C
:1009B000E0631A43726082060AD5E269B36803F005
:1009C00070039A4204D9B36823F070031A43B260EB
:1009D00010F002020AD0E368376807F00F07BB4245
:1009E00004D9376827F00F073B433360C3073FD074
:1009F000306820F47062D4E901031A4332600128A0
:100A000056F8182C0AD0032804D002280AD19203E1
:100A10000BD4ABE0920108D4A8E000BFD20504D407
:100A2000A4E000BF520740F1A180884656F8081C98
:100A300021F00701084346F8080CFFF785FE05463C
:100A400041F2883756F8080C616800F03800B0EBC6
:100A5000C10F09D0FFF778FE401BB842F2D903203E
:100A600001B0BDE8F08300BF2068414600F00202FB
:100A700052B1E268336803F00F039A4204D233683C
:100A800023F00F031A433260D9F8002002F00F025E
:100A900091420CD2D9F8002022F00F020A43C9F883
:100AA0000020D9F8002002F00F028A425ED14107EF
:100AB0000AD52169326802F07002914204D232688C
:100AC00022F070021143316001070AD56169726832
:100AD00002F07002914204D2726822F07002114357
:100AE0007160C1060AD5A169726802F4E0629142A0
:100AF00004D2726822F4E0621143716080060AD564
:100B0000E069B16801F07001884204D2B16821F057
:100B100070010843B06000F02FF8316845F20822F8
:100B2000C0F60002C1F30321515C336803F00F03E8
:100B300001F01F01D25C20FA01F102F01F0040F227
:100B40000C02C2F2004221FA00F0106040F20400F0
:100B500040F20802C2F20040C2F200420068116096
:100B600001B0BDE8F043FFF73BBE00BF012001B07C
:100B7000BDE8F0830000000044F20041C5F6020128
:100B80000869C0F3C200032816D002280ED000283E
:100B900032D10868800649F20000C0F2D03058BF58
:100BA00070470968C1F3C101C840704747F640006B
:100BB000C0F27D10704700BF8B6A886AD1F82CC0E4
:100BC0004A6BC0F30510E8B1C2F3CC0203F0030393
:100BD00000EE102A9FED2A1AB8EE400A20EE010A14
:100BE0009FED281ADFE803F0022110210A6892061F
:100BF0000ED49FED261A18E040F60010C0F23D001A
:100C0000704700BF002070479FED1F1A0DE000BF26
:100C10000A6849F20003C0F2D033C2F3C10223FADA
:100C200002F201EE102AB8EE411A0A6B9FED183A53
:100C30006FF35F2202EE102A5FEACC7203FE000A15
:100C400003EE100A086BB8EE422AC0F34620B8EE55
:100C5000433A013030EE020AB7EE002A81EE031A61
:100C600030EE020A21EE000A01EE100AB8EE411A37
:100C700080EE010ABCEEC00A10EE100A704700BFF9
:100C8000000000390024744A20BCBE4B0024744C80
:100C9000000000000000000070B3F0B581B0044611
:100CA000007844F20046C007C5F6020626D1207837
:100CB00080076AD5306910F03801B06A42D018292F
:100CC00008BF5FEA80703DD0E0683168002800F01E
:100CD0002D8121F0190108433060FFF735FD0546ED
:100CE000306840074AD4FFF72FFD401B0228F7D990
:100CF000032001B0F0BD00BF01207047306900F053
:100D00003801B06A102905D018290BD100F0030072
:100D1000022807D130688003C9D560680028C6D191
:100D2000AAE000BF61683068002900F03981B1F5A0
:100D3000A02F00F02D81B1F5803F40F0478140F4B5
:100D4000803049E130684007E06802D5002800F0B3
:100D50009380316821F0190108433060FFF7F4FCFB
:100D6000054600BF3068400708D4FFF7EDFC401B84
:100D700002284FF00300F5D901B0F0BD7068216979
:100D800020F0FE4040EA016070602078C0061AD56D
:100D9000306900F03801B06A082907D0182940F0FE
:100DA000858000F00300012840F080803068C00595
:100DB00002D5E06980285FD1F068216A20F07C507C
:100DC00040EA0160F060207800073FD42078800678
:100DD00056D42078400700F18180656A9DB3306960
:100DE00000F03800182840F01981012DB16A306BED
:100DF00042D001F00302A36A9A423DD1C1F305112A
:100E0000E26A914238D10146226B6FF35F21013AC9
:100E1000914231D1C0F34622616B01398A422BD114
:100E2000C0F30642A16B01398A4225D1C0F30660A6
:100E3000E16B013988421FD1706BA16CC0F3CC000B
:100E4000814240F0A581002001B0F0BD606900281A
:100E5000706F59D040F001007067FFF775FC0546D0
:100E6000706F8007B2D4FFF76FFC401B0228F7D9E0
:100E7000032001B0F0BD00BF012001B0F0BD00BFF4
:100E8000A0690028306871D040F480503060FFF7CE
:100E90005BFC0546306880049BD4FFF755FC401B83
:100EA0000228F7D9032001B0F0BD00BFE069002897
:100EB000306800F0A18040F080003060FFF744FC13
:100EC000054600BF3068C0053FF576AFFFF73CFC34
:100ED000401B02284FF00300F4D94DE7D6F8000478
:100EE00040F48070C6F80004FFF72EFC054600BFF2
:100EF000D6F80004C0052BD4FFF726FC401B64285D
:100F0000F6D9032001B0F0BD20F001007067FFF7B3
:100F10001BFC0546706F80077FF558AFFFF714FC88
:100F2000401B02284FF00300F4D925E721F001000F
:100F30003060FFF709FC0546306840077FF525AFB4
:100F4000FFF702FC401B02284FF00300F4D913E71F
:100F5000A168306F002900F08B80052900F08080A7
:100F6000012940F09D8040F001009FE020F4805076
:100F70003060FFF7E9FB0546306880047FF529AF54
:100F8000FFF7E2FB401B02284FF00300F4D9F3E621
:100F900040F480203060306840F480301CE000BFB6
:100FA00020F480303060306820F480203060FFF71B
:100FB000CBFB0546306880037FF579AEFFF7C4FBB5
:100FC000401B64284FF00300F4D9D5E620F48030AC
:100FD0003060306820F480203060FFF7B5FB0546B4
:100FE000306880033FF563AEFFF7AEFB401B64281B
:100FF000F6D9032001B0F0BD20F080003060FFF78B
:10100000A3FB05463068C0057FF5DDAEFFF79CFB0E
:10101000401B02284FF00300F4D9ADE6306820F001
:1010200080703060FFF790FB022D05460CD100BFA9
:10103000306880014CD5FFF787FB401B02284FF03A
:101040000300F5D998E600BF306880017FF5FBAE5C
:10105000FFF77AFB401B02284FF00300F4D98BE620
:1010600040F004003067306F40F001001EE000BF28
:1010700020F001003067306F20F004003067FFF788
:1010800063FB054641F28837306F80077FF5A5AED8
:10109000FFF75AFB401BB8424FF00300F4D96BE650
:1010A00020F001003067306F20F004003067FFF758
:1010B0004BFB054641F28837306F80073FF58DAE18
:1010C000FFF742FB401BB8424FF00300F4D953E650
:1010D00004F12807B06A40F2F33188438ECF084309
:1010E000591E40EA02104FF47E426FF35F21B06256
:1010F00002EB47204FF4FE0280B2E36B0844A16B81
:1011000002EB01414FF0FE4201F4FE0102EB0362EB
:10111000084402F0FE4108443063F06A4FF6F8716B
:1011200020F00100F062706BA26C884340EAC200BC
:101130007063F06A216C20F00C000843F062F06AE2
:10114000616C20F002000843F062F06A40F48030E5
:10115000F062F06A40F40030F062F06A40F48020FF
:10116000F062F06A40F00100F062306840F0807098
:101170003060FFF7E9FA0446306880013FF563AE5E
:10118000FFF7E2FA001B02284FF00300F4D9F3E561
:10119000F06A20F00100F062FFF7D6FA0546FFF78B
:1011A000D3FAA842FBD0706B4FF6F871A26C88435B
:1011B00040EAC2007063F06A40F00100F062002073
:1011C00001B0F0BD00000000411E0020B0EB116F27
:1011D00002D00120704700BF4EF21002F023CEF281
:1011E000000251604EF62351CEF200010B70072130
:1011F000906011607047000090F83C20012A01D1F6
:1012000002207047B0B5D1E9022323F47C5322F4C5
:10121000705242EA030548F2FF73D1E900CECEF6E0
:10122000F0730EEA030203F5006445EA020E0CEACD
:1012300004050C6903F5C05245EA0E0522402A4315
:101240004D692A4303F560550C6B03F5F0432A40C2
:1012500023401343026840F2004C42F48065C4F21C
:10126000010C8C69654540F2000CCEF6FF7CCD691F
:101270000CEA044443EA050343EA040318D14FF699
:10128000FF7540F2000CCDF60F458C6ACDF6F04CA0
:1012900003EA050E0D6A0CEA04544B6A44EA0E0494
:1012A00025F0085523F000532543C96A2B430B430F
:1012B0005364002180F83C100020B0BD0000000005
:1012C00090F83C20012A4FF0020266D0B0B580F8B9
:1012D0003D2040F2004C0268C4F2010C42F48063ED
:1012E00063455368D2F808E002BF23F470034C68EA
:1012F00023434DF6FF740D68C4F2000423F070031D
:10130000A24243EA0503536014DC40F2FF73C4F2C7
:1013100000039A4222DD40F60003C4F200039A4221
:101320002ED040F60043C4F200039A4228D041F682
:10133000000321E04FF6FF73C4F200039A4213DD6D
:101340000023C4F201039A421AD044F20003C4F20B
:1013500001039A4214D0624512D016E0B2F1804FD8
:101360000ED040F2004307E04EF20003C4F2000347
:101370009A4205D04EF20043C4F200039A4204D1CF
:101380002EF080038968194391600022012180F8C2
:101390003D1080F83C20BDE8B0401046704700008A
:1013A00060B310B5044690F83D0028B9002084F8D9
:1013B0003C00204600F024F8022084F83D0020681C
:1013C000211D02F0E1FE012084F8480084F83E006F
:1013D00084F83F0084F8400084F8410084F842001B
:1013E00084F8430084F8440084F8450084F84600FB
:1013F00084F8470084F83D00002010BD01207047AC
:1014000082B044F200010068C4F20101884215D0A4
:1014100040F20041C4F2000188421CD144F2E8408D
:10142000C5F60200016841F002010160006800F0A9
:1014300002000190019802B0704700BF44F2E840FA
:10144000C5F60200816841F480318160806800F453
:1014500080300090009802B070470000000000004B
:1014600090F83C20012A4FF0020200F0AA8080B5DB
:1014700080F83D208822D0F800C0CFF6CE72DCF88C
:1014800008301A40CCF808200B686F2B0EDDB3F142
:10149000101F37DAB3F5005F6EDA702B00F0B680FC
:1014A000B3F5805F00F08480D8E000BF2F2B33DDE0
:1014B0004F2B39DC302B6FD0402B40F0CF80D1F850
:1014C00004E0C968DCF82030DCF8202022F00102BA
:1014D000CCF82020DCF8182022F0F00242EA0111BA
:1014E00023F00A02CCF8181042EA0E01CCF82010C2
:1014F0004FF68872DCF80810CFF6CF7211404731F2
:1015000054E000BF2F21C0F210018B423ADCB3F14E
:10151000101F41D020213BE0002B18BF102B3BD0E7
:10152000202B39D09AE000BF502B4DD0602B40F0DB
:101530009580D1F804E0C968DCF82030DCF8202080
:1015400022F01002CCF82020DCF8182022F470429F
:1015500042EA013123F0A002CCF8181042EA0E1141
:10156000CCF820104FF68872DCF80810CFF6CF7256
:10157000114067311AE000BF5CD0B3F5801F0BD07B
:101580006CE000BF3021C0F210018B4204D040213A
:10159000C0F210018B4261D14FF68872DCF808105E
:1015A000CFF6CF721140194341F00701CCF8081073
:1015B0000022012180F83D10002180F83C10BDE898
:1015C00080401046704700BFD1F804E0C968DCF8DD
:1015D0002030DCF8202022F00102CCF82020DCF8BA
:1015E000182022F0F00242EA011123F00A02CCF89E
:1015F000181042EA0E01CCF820104FF68872DCF881
:101600000810CFF6CF7211405731CFE701F1040E29
:101610009EE80C40DCF808101A4321F47F4142EAAE
:101620000E221143CCF80810DCF8081041F07701C5
:10163000BCE700BF01F1040E9EE80C40DCF8081086
:101640001A4321F47F4142EA0E221143CCF80810DC
:10165000DCF8081041F48041A8E700BF0122A8E7A8
:10166000002857D02DE9F04381B0044690F83D00A2
:101670000D4628B9002084F83C00204600F04CF8C4
:10168000022084F83D0020684BF6F872CFF6FE7217
:10169000816811408160211D02F076FD20684FF6BF
:1016A000FF79D0F808808369D0F820E0AF69D5E9E8
:1016B000026223EA090346EA07264FF6FC47BE43C7
:1016C000EF691A432B6932432E6A42EA07226F6997
:1016D000D5E9001C42EA03122EF0AA0341EA0801F0
:1016E00081604CEA030142EA0632826141EA071155
:1016F0000162012084F8480084F83E0084F83F002D
:1017000084F8440084F8450084F83D00002001B0CE
:10171000BDE8F08301207047F0B587B040F6FF3296
:101720000068C4F20002002190420691CDE9041144
:10173000CDE902112EDCB0F1804F5DD040F6000102
:10174000C4F20001884240F0B38044F2E040C5F6A4
:101750000200816841F004018160816801F00401A8
:1017600001910199016841F00201016000680021C6
:1017700000F0020001900198C020CDE90411002181
:101780000290C5F6020102200390069001F58060E8
:101790008BE000BF40F60041C4F20001884263D0F4
:1017A00040F20041C4F20101884240F0818044F2DD
:1017B000E040C5F60200016941F0020101610169E2
:1017C00001F0020101910199016841F004010160F9
:1017D0000068002100F004000190C5F602010198A4
:1017E000C0200290022003900020CDE904000320D5
:1017F000069001F5006058E044F2E0400024C5F690
:101800000200C5F60204022500268168012741F086
:1018100001018160816801F0010101910199016874
:1018200041F001010160016801F00101019101999C
:10183000016841F002010160006802A900F00200A5
:10184000019001982020029020460395CDE904667E
:101850000697FEF795FE02A90820CDE9056761C14C
:1018600004F5806021E000BF44F2E040C5F60200CC
:10187000816841F008018160816801F008010191EF
:101880000199016841F0010101600068002100F048
:10189000010001900198032002900220039006901D
:1018A0000020C5F60200CDE9041102A9FEF768FE8A
:1018B00007B0F0BD0000000080B590F83E2004297C
:1018C00090F83F3090F844E090F845C00AD0B9B99C
:1018D000012A4FF0010208BFBEF1010F34D01046BB
:1018E00080BD00BF0122012B08BFBCF1010FF6D162
:1018F000022180F83F1080F84510006820E000BF0A
:10190000012A4FF0010208BF012BE8D1BEF1010FFF
:1019100008BFBCF1010FE2D14FF0020280F83E2077
:1019200080F83F2080F8442080F8452089B1006885
:10193000016A21F001010162016A41F001010162C5
:1019400010216FF0100208E0022180F83E1080F8AC
:101950004410006801216FF00102036A1A4002621C
:10196000026A114301620168002241F00101016035
:10197000104680BD0000000090F83C30012B01D1E2
:10198000022070474FEAB202052A00F223812DE9B6
:10199000F041DFE812F00700BB005700950031006E
:1019A000F90000BF036843F6FF76C4F201061C6A23
:1019B000B3421A6A24F0020422F001021A621A46A3
:1019C000D3F804C052F818EF8D6844EA0504D1F842
:1019D000008040F3818144F20007C4F20107BB425A
:1019E00000F0858144F60007C4F20107BB4200F015
:1019F0007E8144F2004776E1036843F6FF77C4F244
:101A00000107D3F820C0BB421A6A22F480321A625E
:101A10001A465C6852F8546F0D68D1F808E040F33C
:101A2000DF8044F20007C4F20107BB4200F0E3800C
:101A300044F60007C4F20107BB4200F0DC8044F228
:101A40000047D4E0036840F2004E43F48067C4F2DC
:101A5000010E1C6A77451A6A24F4007422F480721D
:101A60001A621A465D6852F81CCF8E6844EA062452
:101A700007D1CE6840F2FF47360224F44064BE43EB
:101A8000344343F6FF76D1F80080C4F20106B34236
:101A900040F3D28044F20007C4F20107BB4200F0D9
:101AA000D28044F60007C4F20107BB4200F0CB80AD
:101AB00044F20047C4F20107BB4200F0C480C9E011
:101AC000036843F6FF77C4F20107D3F820C0BB4296
:101AD0001A6A22F480521A621A465C6852F81C6F25
:101AE0000D68D1F808E040F3CD8044F20007C4F25D
:101AF0000107BB4200F0D18044F60007C4F20107A1
:101B0000BB4200F0CA8044F20047C2E0036840F2E2
:101B1000004E43F48067C4F2010E1C6A77451A6ACE
:101B200024F0200422F010021A621A465D6852F86E
:101B300018CF8E6844EA061407D1CE686FF04007CC
:101B400024F0C00407EA0616344343F6FF76D1F8C2
:101B50000080C4F20106B34240F3E08044F2000783
:101B6000C4F20107BB4200F0E08044F60007C4F273
:101B70000107BB4200F0D98044F20047C4F20107DC
:101B8000BB4200F0D280D7E0036843F6FF77C4F28F
:101B90000107D3F820C0BB421A6A22F480121A62ED
:101BA0001A465C6852F8546F0D68D1F808E040F3AB
:101BB000058144F20007C4F20107BB4200F009812D
:101BC00044F60007C4F20107BB4200F0028144F270
:101BD0000047FAE00121002280F83C2008467047C7
:101BE0000027C4F20107BB4205D040F20047C4F20F
:101BF0000107BB4204D14F6924F4803444EA07242E
:101C00004FF68C775C60CFF6FE7703373E402CF4BE
:101C1000003746EA05045C654E6809699E6547EA37
:101C20000E471F625F6D47F008075F655F6D27F025
:101C300004075F65EEE000BF0027C4F20107BB4266
:101C400001D0734506D1D1E90576374325F44056D6
:101C500046EA07154FF68C775D60CFF6FE7707EA08
:101C60000C0747EA0807DF614F680969DF631C62F8
:101C7000DF6947F00807DF61DF6927F00407DF61EC
:101C8000C8E000BF0027C4F20107BB4205D040F204
:101C90000047C4F20107BB4204D14F6924F48044D9
:101CA00044EA871448F6FF475C60CFF6FF673E4082
:101CB0002CF4005746EA0524DC614E6809691E646D
:101CC00047EA0E371F62DF6947F40067DF61DF69AB
:101CD00027F48067DF619CE00027C4F20107BB4264
:101CE00005D040F20047C4F20107BB4205D1CF68DE
:101CF00024F00C0427F004073C43B34234DD44F2E3
:101D00000006C4F20106B34239D044F60006C4F21C
:101D10000106B34233D044F200462CE00027C4F25F
:101D20000107BB4201D0734506D1D1E9057637439F
:101D300025F4406646EA870548F6FF475D60CFF622
:101D4000FF6707EA0C0747EA08279F614F680969A0
:101D50009F631C629F6947F400679F619F6927F436
:101D600080679F6155E000BF0026C4F20106B342C0
:101D700005D040F20046C4F20106B34206D12CF46D
:101D80004077D1E90565374347EA050C4FF68C7576
:101D9000C3F804C0CFF6FE750EEA050747EA080748
:101DA0009F614F6809695F631C629F6947F008077C
:101DB0009F619F6927F004079F612BE00027C4F211
:101DC0000107BB4205D040F20047C4F20107BB4205
:101DD00004D14F6924F4802444EA872448F6FF475D
:101DE0005C60CFF6FF6707F540773E402CF40017A4
:101DF00046EA05245C654E680969DE6547EA0E57C8
:101E00001F625F6D47F400675F655F6D27F4806751
:101E10005F6509021368194311600021BDE8F041B4
:101E2000002280F83C2008467047000000000000B7
:101E300060B310B5044690F83D0028B9002084F83E
:101E40003C00204600F024F8022084F83D00206881
:101E5000211D02F099F9012084F8480084F83E0021
:101E600084F83F0084F8400084F8410084F8420080
:101E700084F8430084F8440084F8450084F8460060
:101E800084F8470084F83D00002010BD0120704711
:101E90007047000000000000FEE7000000000000A6
:101EA0002DE9F04381B041F200441646C5F6020424
:101EB000894680460121012220461D46FEF73CFC52
:101EC000022101222046FEF737FC0A20FEF734FBF0
:101ED0000121002220460027FEF72EFC0A20FEF7F3
:101EE0002BFB022100222046FEF726FC08F0FE0014
:101EF00000F06EF940BB484600F06AF910B10027C7
:101F000022E000BF012101222046FEF715FC02213C
:101F100001222046FEF710FC0A20FEF70DFB0121EE
:101F2000002220460027FEF707FC0A20FEF704FBEC
:101F3000022100222046FEF7FFFB48F0010000F0DE
:101F400047F908B9B5BB0127012100222046FEF759
:101F5000F3FB0A20FEF7F0FA022101222046FEF7E9
:101F6000EBFB0A20FEF7E8FA012101222046FEF7EA
:101F7000E3FB0A20FEF7E0FA384601B0BDE8F08343
:101F800000222046FEF7D8FB022101222046FEF760
:101F9000D3FB0A20FEF7D0FA022100222046FEF7EA
:101FA000CBFB012101222046FEF7C6FB013D06F1D5
:101FB0000106C8D000F014F8012D4FF00101307077
:101FC000DED101222046FEF7B7FB02210122204686
:101FD000FEF7B2FB0A20FEF7AFFA02210022E2E789
:101FE000F0B585B041F200440121C5F6020401229A
:101FF00020460125FEF7A0FB00200490CDE900500B
:10200000CDE902506D4620462946FEF7B9FA022175
:1020100001222046FEF790FB0A20FEF78DFA0121EF
:102020002046FEF781FB064600284FF002014FF0E4
:102030000002204618BF0126FEF77EFB0A20FEF7AD
:102040007BFA022101222046FEF776FB0A20FEF7EA
:1020500073FA01212046FEF767FB00284FF00201CA
:1020600018BF0120002240EA46072046FEF764FB25
:102070000A20FEF761FA022101222046FEF75CFBEE
:102080000A20FEF759FA01212046FEF74DFB0646CD
:1020900000284FF002014FF00002204618BF012631
:1020A000FEF74AFB0A20FEF747FAB800022140EA91
:1020B000460601222046FEF73FFB0A20FEF73CFAC7
:1020C00001212046FEF730FB00284FF0020118BF27
:1020D0000120002237182046FEF72EFB0A20FEF7CB
:1020E0002BFA022101222046FEF726FB0A20FEF7EA
:1020F00023FA01212046FEF717FB064600284FF081
:1021000002014FF00002204618BF0126FEF714FB23
:102110000A20FEF711FAB800022140EA4606012221
:102120002046FEF709FB0A20FEF706FA01212046A9
:10213000FEF7FAFA00284FF0020118BF0120002232
:1021400037182046FEF7F8FA0A20FEF7F5F90221C3
:1021500001222046FEF7F0FA0A20FEF7EDF90121F0
:102160002046FEF7E1FA064600284FF002014FF044
:102170000002204618BF0126FEF7DEFA0A20FEF70D
:10218000DBF9B800022140EA460601222046FEF7AC
:10219000D3FA0A20FEF7D0F901212046FEF7C4FA4F
:1021A00000284FF0020118BF0120002206442046FB
:1021B000FEF7C2FA0A20FEF7BFF91120019020466F
:1021C0002946FEF7DDF9F0B205B0F0BD00000000D1
:1021D000B0B541F200440546C5F60204C20901212A
:1021E0002046FEF7A9FA022101222046FEF7A4FAB2
:1021F0000A20FEF7A1F9022100222046FEF79CFAF0
:102200000A20FEF799F9C5F3801201212046FEF756
:1022100093FA022101222046FEF78EFA0A20FEF7E9
:102220008BF9022100222046FEF786FA0A20FEF7EB
:1022300083F9C5F3401201212046FEF77DFA022101
:1022400001222046FEF778FA0A20FEF775F90221EE
:1022500000222046FEF770FA0A20FEF76DF9C5F35A
:10226000001201212046FEF767FA022101222046D2
:10227000FEF762FA0A20FEF75FF9022100222046EB
:10228000FEF75AFA0A20FEF757F9C5F3C0020121FA
:102290002046FEF751FA022101222046FEF74CFAB1
:1022A0000A20FEF749F9022100222046FEF744FAEF
:1022B0000A20FEF741F9C5F3800201212046FEF70E
:1022C0003BFA022101222046FEF736FA0A20FEF7E9
:1022D00033F9022100222046FEF72EFA0A20FEF7EB
:1022E0002BF9C5F3400201212046FEF725FA022111
:1022F00001222046FEF720FA0A20FEF71DF90221EE
:1023000000222046FEF718FA0A20FEF715F905F01C
:10231000010201212046FEF70FFA02210122204688
:10232000FEF70AFA0A20FEF707F9022100222046EA
:10233000FEF702FA0A20FEF7FFF8012101222046EB
:10234000FEF7FAF9022101222046FEF7F5F90A20EC
:10235000FEF7F2F801212046FEF7E6F905460221D4
:1023600000222046FEF7E8F90A20FEF7E5F82846A5
:10237000B0BD0000000000002DE9F04F81B098468C
:1023800091460E460746DDE90ABA00F0EDFED02080
:1023900000F002FE00F0BCFC3B2000F0FDFD00F070
:1023A000B7FC00F0E1FED12000F0F6FD00F0B0FC3B
:1023B00000F0D6FC0446012000F0CAFD00F000FF4A
:1023C00000F0D2FED02000F0E7FD00F0A1FC3C20A0
:1023D00000F0E2FD00F09CFC00F0C6FED12000F011
:1023E000DBFD00F095FC00F0BBFC0546012000F091
:1023F000AFFD00F0E5FE45EA0420388000F0B4FEB1
:10240000D02000F0C9FD00F083FC3D2000F0C4FDA9
:1024100000F07EFC00F0A8FED12000F0BDFD00F031
:1024200077FC00F09DFC0446012000F091FD00F0D7
:10243000C7FE00F099FED02000F0AEFD00F068FC71
:102440003E2000F0A9FD00F063FC00F08DFED120DD
:1024500000F0A2FD00F05CFC00F082FC05460120CB
:1024600000F076FD00F0ACFE45EA0420308000F07C
:102470007BFED02000F090FD00F04AFC3F2000F0F1
:102480008BFD00F045FC00F06FFED12000F084FDD4
:1024900000F03EFC00F064FC0446012000F058FD12
:1024A00000F08EFE00F060FED02000F075FD00F020
:1024B0002FFC402000F070FD00F02AFC00F054FEDC
:1024C000D12000F069FD00F023FC00F049FC054636
:1024D000012000F03DFD00F073FE45EA0420A9F85C
:1024E000000000F041FED02000F056FD00F010FC8E
:1024F000432000F051FD00F00BFC00F035FED12030
:1025000000F04AFD00F004FC00F02AFC0446012023
:1025100000F01EFD00F054FE00F026FED02000F07A
:102520003BFD00F0F5FB442000F036FD00F0F0FB31
:1025300000F01AFED12000F02FFD00F0E9FB00F0C2
:102540000FFC0546012000F003FD00F039FE45EACE
:102550000420A8F8000000F007FED02000F01CFDC9
:1025600000F0D6FB452000F017FD00F0D1FB00F095
:10257000FBFDD12000F010FD00F0CAFB00F0F0FBE5
:102580000446012000F0E4FC00F01AFE00F0ECFD2F
:10259000D02000F001FD00F0BBFB462000F0FCFC69
:1025A00000F0B6FB00F0E0FDD12000F0F5FC00F0FB
:1025B000AFFB00F0D5FB0546012000F0C9FC00F0A0
:1025C000FFFD45EA0420ABF8000000F0CDFDD0206F
:1025D00000F0E2FC00F09CFB472000F0DDFC00F086
:1025E00097FB00F0C1FDD12000F0D6FC00F090FB7D
:1025F00000F0B6FB0446012000F0AAFC00F0E0FD6C
:1026000000F0B2FDD02000F0C7FC00F081FB4820B4
:1026100000F0C2FC00F07CFB00F0A6FDD12000F031
:10262000BBFC00F075FB00F09BFB0546012000F0B1
:102630008FFC00F0C5FD45EA0420AAF8000001B0B7
:10264000BDE8F08F0000000080B500F031FB00F025
:102650008BFDD02000F0A0FC00F05AFB6B2000F0B6
:102660009BFC00F055FB012000F096FC00F050FBB5
:1026700000F0A6FD00F078FDD02000F08DFC00F009
:1026800047FB6C2000F088FC00F042FB002000F0CB
:1026900083FC00F03DFB00F093FD00F065FDD020D1
:1026A00000F07AFC00F034FB192000F075FC00F01B
:1026B0002FFB092000F070FC00F02AFB00F080FDE9
:1026C00000F052FDD02000F067FC00F021FB1A2042
:1026D00000F062FC00F01CFB062000F05DFC00F046
:1026E00017FB00F06DFD00F03FFDD02000F054FC22
:1026F00000F00EFB1B2000F04FFC00F009FB18203F
:1027000000F04AFC00F004FB00F05AFD00F02CFD44
:10271000D02000F041FC00F0FBFA1C2000F03CFC53
:1027200000F0F6FA182000F037FC00F0F1FA00F0A3
:1027300047FD6420BDE88040FDF7E2BE00000000D8
:102740002DE9F04387B044F2E0400027C5F60200CF
:102750000697CDE90477CDE90277016840F60009D4
:1027600041F0200101600168C5F6020901F0200175
:1027700001910199016841F080010160016809F54A
:10278000406501F0800101910199016841F001016A
:1027900001600168002201F00101019101990168C5
:1027A00041F0040101600168032601F00401019178
:1027B0000199016841F0020101600068032100F005
:1027C0000200019001982846FDF7B6FF41F630015E
:1027D0000022484641F63008FDF7AEFF029602AEF1
:1027E00011200390284631460124CDE90447FDF726
:1027F000C7FE48463146CDE90284CDE90477FDF7AE
:10280000BFFE07B0BDE8F08370B5A2B001A83421C7
:1028100000241B94CDE91944CDE91644CDE91444B4
:10282000CDE91244CDE91044CDE90E44FDF7D4FDC5
:1028300040F2F44044F20005C2F20040C4F2010547
:10284000C7210560C0E9011440F2E731C0E9031473
:10285000C0E90544FEF7A4FD08B1FDF789FE4FF479
:102860008050189040F2F44018A9C2F20040FEF7E0
:10287000F7FD08B1FDF77CFE40F2F440C2F20040E3
:10288000FFF7D6FA08B1FDF773FE40F2F44015A940
:10289000C2F20040002415941794FEF711FD08B110
:1028A000FDF766FE60200EA9CDE90E0440F2F4406B
:1028B0000022C2F200401494CDE91044CDE9124444
:1028C000FFF75AF808B1FDF753FE40F2F4400EA9A5
:1028D000C2F200400422FFF74FF808B1FDF748FEAE
:1028E00040F2F4440026C2F200444FF40050CDE917
:1028F000060601A920460596CDE90366CDE90166E5
:102900000D96FEF779FC08B1FDF732FE206821969E
:10291000A8421E96CDE91F661D961BD040F20041CD
:10292000C4F20001884231D144F2E0404FF44072D9
:10293000C5F60200016841F004010160006800F082
:1029400004001C9000201C99C5F60200022100F52D
:10295000006011E044F2E0400C22C5F6020001687C
:1029600041F0010101600068042100F001001C90A9
:102970001C980020C5F6020021911DA91D9202227B
:102980001E920022CDE91F22FDF7FAFD22B070BD94
:1029900010B58CB040F240500DF1240CC2F2004052
:1029A00000244FF080410C22C0E900144FF0FF31A9
:1029B0000F23C0E9031403210194CDE9031401217D
:1029C00005918CE80E0003A9846084610692CDE92C
:1029D0000734FEF745FE08B1FDF7CAFD40F240504E
:1029E0006946C2F2004000940294FEF769FC08B107
:1029F000FDF7BEFD0CB010BDB0B594B040F28C50E8
:102A000040F20045C2F2004000210D91C4F20005E1
:102A1000CDE90B11CDE90811CDE90611CDE904117D
:102A2000CDE90211CDE900110560C722C0E90121FD
:102A300040F2E7328161C0E90321FEF7B1FC08B141
:102A4000FDF796FD4FF480500A9040F28C500AA991
:102A5000C2F20040FEF704FD08B1FDF789FD40F227
:102A60008C50C2F20040FFF7E3F908B1FDF780FD9A
:102A700040F28C5007A9C2F2004000240794099448
:102A8000FEF71EFC08B1FDF773FD602000904FF4C7
:102A9000FA706946CDE9010440F28C500822C2F276
:102AA00000400494FEF768FF08B1FDF761FD40F2B5
:102AB0008C546946C2F200440C222046FEF75CFFAB
:102AC00008B1FDF755FD44F200022068C4F201028E
:102AD000002190421391CDE91111CDE90F1117D0CA
:102AE000A84231D144F2E0404FF44072C5F60200F2
:102AF000016841F004010160006800F004000E90DC
:102B000000200E99C5F60200022100F5006011E0D8
:102B100044F2E0400C22C5F60200016841F00101D8
:102B200001600068042100F001000E900E98002062
:102B3000C5F6020013910FA90F92022210920022F3
:102B4000CDE91122FDF71CFD14B0B0BD000000005E
:102B500010B58CB040F2D85040F60001C2F20040EF
:102B60000DF1240C0024C4F20001C0E900144FF65A
:102B7000FF710C22C0E9031403210F23CDE90314D4
:102B8000012105918CE80E0003A901948460846101
:102B90000692CDE90734FEF763FD08B1FDF7E8FCC6
:102BA00040F2D8506946C2F2004000940294FEF709
:102BB00087FB08B1FDF7DCFC0CB010BD0000000085
:102BC00010B58CB040F2246040F60041C2F20040E3
:102BD0000DF1240C0024C4F20001C0E900144FF6EA
:102BE000FF710C22C0E903148021816103210F23AE
:102BF000CDE90314012105918CE80E0003A901948D
:102C000084600692CDE90734FEF72AFD08B1FDF78E
:102C1000AFFC40F224606946C2F200400094029486
:102C2000FEF74EFB08B1FDF7A3FC0CB010BD000091
:102C300010B58CB040F2706040F20041C2F200402A
:102C40000DF1240C0024C4F20101C0E900144FF678
:102C5000FF710C22C0E9031403210F23CDE90314F3
:102C6000012105918CE80E0003A90294CDE90044EE
:102C70008460C0E905440692CDE90734FEF7F0FC14
:102C800008B1FDF775FC40F270606946C2F2004081
:102C90000294CDE90044FEF713FB08B1FDF768FC90
:102CA0000CB010BD00000000FEE7000000000000B6
:102CB000B0B586B040F6000401ADC5F602040020B0
:102CC00005904FF4006101911121CDE9021002201D
:102CD000049020462946FDF753FC4FF480500190A4
:102CE00020462946FDF74CFC4FF4006101222046A6
:102CF000FDF722FD0A20FDF71FFC4FF48051012251
:102D00002046FDF719FD0A20FDF716FC06B0B0BD00
:102D1000B0B540F600044FF48051C5F6020401221C
:102D20002046FDF709FD0A20FDF706FC4FF400617F
:102D300001222046FDF700FD0A20FDF7FDFB4FF4C0
:102D400080512046FDF7F0FC05464FF4006100225B
:102D50002046FDF7F1FC0A20FDF7EEFB2846B0BD4A
:102D6000B0B540F600044FF48051C5F602040122CC
:102D70002046FDF7E1FC0A20FDF7DEFB4FF4006181
:102D800001222046FDF7D8FC0A20FDF7D5FB4FF4C1
:102D900080512046FDF7C8FC01384FF40061B0FABD
:102DA00080F0002245092046FDF7C6FC0A20FDF709
:102DB000C3FB4FF4006101222046FDF7BDFC0A2051
:102DC000FDF7BAFB4FF480512046FDF7ADFC01380A
:102DD0004FF40061B0FA80F000224009800140EA1F
:102DE000C5152046FDF7A8FC0A20FDF7A5FB4FF40A
:102DF000006101222046FDF79FFC0A20FDF79CFBA5
:102E00004FF480512046FDF78FFC01384FF40061EC
:102E1000B0FA80F00022400945EA40152046FDF74F
:102E20008BFC0A20FDF788FB4FF40061012220464D
:102E3000FDF782FC0A20FDF77FFB4FF4805120460E
:102E4000FDF772FC01384FF40061B0FA80F0002207
:102E5000400945EA00152046FDF76EFC0A20FDF703
:102E60006BFB4FF4006101222046FDF765FC0A2050
:102E7000FDF762FB4FF480512046FDF755FC013809
:102E80004FF40061B0FA80F00022400945EAC00525
:102E90002046FDF751FC0A20FDF74EFB4FF4006180
:102EA00001222046FDF748FC0A20FDF745FB4FF4C0
:102EB00080512046FDF738FC01384FF40061B0FA2C
:102EC00080F00022400945EA80052046FDF734FCE9
:102ED0000A20FDF731FB4FF4006101222046FDF787
:102EE0002BFC0A20FDF728FB4FF480512046FDF70C
:102EF0001BFC01384FF40061B0FA80F00022400959
:102F000045EA40052046FDF717FC0A20FDF714FBB3
:102F10004FF4006101222046FDF70EFC0A20FDF768
:102F20000BFB4FF480512046FDF7FEFB01384FF4B8
:102F30000061B0FA80F00022400905432046FDF709
:102F4000FBFB0A20FDF7F8FAE8B2B0BD0000000074
:102F500010B540F600040246C5F602044FF4805155
:102F60002046FDF7E9FB0A20FDF7E6FA4FF4006181
:102F700001222046FDF7E0FB0A20FDF7DDFA4FF4C1
:102F8000006100222046FDF7D7FB0A20BDE8104073
:102F9000FDF7D2BA00000000B0B540F600040546C7
:102FA000C5F6020400F080024FF480512046FDF780
:102FB000C3FB0A20FDF7C0FA4FF40061012220464E
:102FC000FDF7BAFB0A20FDF7B7FA4FF400610022C3
:102FD0002046FDF7B1FB0A20FDF7AEFA05F04002EE
:102FE0004FF480512046FDF7A7FB0A20FDF7A4FA15
:102FF0004FF4006101222046FDF79EFB0A20FDF7F9
:103000009BFA4FF4006100222046FDF795FB0A2051
:10301000FDF792FA05F020024FF480512046FDF7AB
:103020008BFB0A20FDF788FA4FF40061012220464D
:10303000FDF782FB0A20FDF77FFA4FF400610022C2
:103040002046FDF779FB0A20FDF776FA05F010021D
:103050004FF480512046FDF76FFB0A20FDF76CFA14
:103060004FF4006101222046FDF766FB0A20FDF7C0
:1030700063FA4FF4006100222046FDF75DFB0A2051
:10308000FDF75AFA05F008024FF480512046FDF78B
:1030900053FB0A20FDF750FA4FF40061012220464D
:1030A000FDF74AFB0A20FDF747FA4FF400610022C2
:1030B0002046FDF741FB0A20FDF73EFA05F0040229
:1030C0004FF480512046FDF737FB0A20FDF734FA14
:1030D0004FF4006101222046FDF72EFB0A20FDF788
:1030E0002BFA4FF4006100222046FDF725FB0A2051
:1030F000FDF722FA05F002024FF480512046FDF759
:103100001BFB0A20FDF718FA4FF40061012220464C
:10311000FDF712FB0A20FDF70FFA4FF400610022C1
:103120002046FDF709FB0A20FDF706FA05F001022B
:103130004FF480512046FDF7FFFA0A20FDF7FCF915
:103140004FF4006101222046FDF7F6FA0A20FDF750
:10315000F3F94FF4006100222046FDF7EDFA0A2052
:10316000BDE8B040FDF7E8B910B540F600044FF4F3
:103170008051C5F6020401222046FDF7DDFA0A203F
:10318000FDF7DAF94FF4006101222046FDF7D4FA89
:103190000A20FDF7D1F94FF4805100222046FDF7B7
:1031A000CBFA0A20FDF7C8F94FF40061002220464F
:1031B000FDF7C2FA0A20BDE81040FDF7BDB90000D6
:1031C00010B540F600044FF48051C5F60204002209
:1031D0002046FDF7B1FA0A20FDF7AEF94FF4006181
:1031E00001222046FDF7A8FA0A20FDF7A5F94FF4C1
:1031F000805101222046FDF79FFA0A20BDE81040C9
:10320000FDF79AB900000000FEE700000000000092
:1032100080B540F2F4004FF48061C2F20040FDF747
:10322000DBF880BD00000000B0B540F600040546A4
:10323000C5F60204C20920212046FDF77DFA0120CF
:10324000FDF77AF9102101222046FDF775FA0120D9
:10325000FDF772F9102100222046FDF76DFA0120DA
:10326000FDF76AF9C5F3801220212046FDF764FAC4
:103270000120FDF761F9102101222046FDF75CFADB
:103280000120FDF759F9102100222046FDF754FADC
:103290000120FDF751F9C5F3401220212046FDF72A
:1032A0004BFA0120FDF748F9102101222046FDF7D5
:1032B00043FA0120FDF740F9102100222046FDF7D6
:1032C0003BFA0120FDF738F9C5F300122021204612
:1032D000FDF732FA0120FDF72FF9102101222046D7
:1032E000FDF72AFA0120FDF727F9102100222046D8
:1032F000FDF722FA0120FDF71FF9C5F3C0022021D6
:103300002046FDF719FA0120FDF716F910210122D8
:103310002046FDF711FA0120FDF70EF910210022D9
:103320002046FDF709FA0120FDF706F9C5F38002F2
:1033300020212046FDF700FA0120FDF7FDF81021BD
:1033400001222046FDF7F8F90120FDF7F5F81021DC
:1033500000222046FDF7F0F90120FDF7EDF8C5F356
:10336000400220212046FDF7E7F90120FDF7E4F8AF
:10337000102101222046FDF7DFF90120FDF7DCF8DE
:10338000102100222046FDF7D7F90120FDF7D4F8DF
:1033900005F0010220212046FDF7CEF90120FDF7BE
:1033A000CBF8102101222046FDF7C6F90120FDF7D8
:1033B000C3F8102100222046FDF7BEF90120FDF7D9
:1033C000BBF8102101222046FDF7B6F90120FDF7D8
:1033D000B3F8102100222046FDF7AEF90120BDE828
:1033E000B040FDF7A9B8000010B540F60004102168
:1033F000C5F6020401222046FDF79EF90120FDF7E3
:103400009BF8202101222046FDF796F90120FDF7C7
:1034100093F8AE2000F044FDD52000F041FD80205F
:1034200000F03EFDA82000F03BFD3F2000F038FDFD
:10343000D32000F035FD002000F032FD402000F0E8
:103440002FFDA12000F02CFDC82000F029FDDA207E
:1034500000F026FD122000F023FD812000F020FD69
:10346000CF2000F01DFDD92000F01AFDF12000F062
:1034700017FDDB2000F014FD302000F011FDA4202A
:1034800000F00EFDA62000F00BFD8D2000F008FDE1
:10349000142000F005FDAF2000F002FD40F2F40022
:1034A0004FF48061C2F20040FCF796FFBDE8104087
:1034B00000F07EBC000000002DE9F0472DED028BEE
:1034C00082B0B0EE408BB5EE400BF1EE10FA9A46AA
:1034D0009046894607460C9D0CDA062D16D0082D1D
:1034E00020D145F252400822C0F600001023D0300F
:1034F00013E000BF062D19D0082D23D145F252400C
:103500000822C0F600001023B03016E045F2182063
:103510000622C0F6000008234E3000903846494687
:1035200000F086F8B1EE488B0CE000BF45F21820A1
:103530000622C0F600000823423000903846494673
:1035400000F076F8B6EEC80BBAF1000FBCEEC81B5F
:1035500038EE400B11EE100A08D0BAF1040F0AF051
:10356000030205D20A239AB91EE000BF01241BE022
:103570000AF0FC03012442F2107600BF2146744396
:10358000043BFBD148F2A063C0F201034B435AB1A4
:10359000012A01D11C4607E06421022A03FB01F441
:1035A00003EB830108BF4C0001EE104A434600952F
:1035B000B8EE411B20EE010BBCFE400B10EE106A72
:1035C000B6FBF4F10A18781900B2494600F024FB62
:1035D00008F10100062D10FB057000B20AD0082D7D
:1035E00013D145F252410822C0F600011023E03108
:1035F00007E000BF45F218210622C0F600010823AB
:1036000054310091494600F013F808F10200494690
:1036100010FB057032465346009500B200F0FCFAEC
:1036200002B0BDEC028BBDE8F08700000000000096
:103630002DE9F04F8BB0002B0292099079D00298BF
:1036400003EB0108002863D0099A40F2F40E8618B3
:103650004FF0010CC2F2004E0C46894606E000BF56
:1036600009F101090FFA89F4A04562DD1FFA89F218
:10367000402A099A3AD209F00702E4080CFA02F249
:10368000099D6FEA020A0EEBC4172A4604E000BF48
:1036900004352AB29642E3DDACB27F2C03D8BC5C81
:1036A00004EA0A04BC546C1C22B29642D8DDA4B2CF
:1036B0007F2C03D8BC5C04EA0A04BC54AC1C22B2C4
:1036C0009642CDDDA4B27F2C03D8BC5C04EA0A0488
:1036D000BC54EC1C22B29642C2DDA4B27F2CD7D8D7
:1036E000BC5C04EA0A04BC54D2E700BF541C24B2F8
:1036F000A642B5DD941C24B2A642C2BFD41C24B29B
:10370000A642ADDD043214B2A642EFDCA8E700BF4A
:103710000A46571C3FB2B8450BDD971C3FB2B8456F
:10372000C2BFD71C3FB2B84503DD043217B2B8455B
:10373000EFDC5A1EDDF80890B9F1000F02EB52726F
:103740004FEAE20700F0508201EB51723C46D31081
:1037500022F0070208278A1A07EA1137DDF824E069
:1037600003EBE1303A441FFA82F80EF101010191B6
:1037700040F2F401C2F10802C2F200411FFA82FADB
:10378000049009F00300079009F0FC000EF102021A
:10379000009271440391002200210A90059410E0E8
:1037A00000EBC21627FA0AF233441F78059C3A430D
:1037B0001A7000BF089901310A98CAB29442C0F247
:1037C0002782CBB20891149919FB031B049B9E1806
:1037D00002FB0911082E06F1010206916CD2082A9B
:1037E00080F0B680B9F1040F80F0FC804FF0000C3F
:1037F0000799DDF808900029059CDBD00CEB0E033F
:103800007F2B18D840F2F40B0699C2F2004B3046D9
:103810000BEBC61711F80C60FD5C06FA08F62E4398
:10382000FE540BEBC21711F80C60FD5C26FA0AF689
:103830002E43FE54064607990129BBD001980CEB94
:1038400000037F2B1DD840F2F40B0CF10107C2F2EC
:10385000004B069930460BEBC616CD5D059C16F85D
:1038600003E005FA08F545EA0E05F5540BEBC21620
:10387000CF5DDDF824E0F55C27FA0AF72F43F75413
:1038800006460799022995D000980CEB00037F2B80
:1038900090D840F2F4000CF10207C2F20040069901
:1038A00000EBC616CD5D16F803C005FA08F545EA2B
:1038B0000C05F554CF5D73E7072A3FF67BAFB9F1EE
:1038C000040F80F00581002507990029059C3FF42D
:1038D00071AF05EB0E037F2B0FD840F2F400059C6F
:1038E000C2F2004000EBC2170698465D17F803C00D
:1038F00026FA0AF646EA0C06FE54079901293FF417
:1039000059AF01982B187F2B10D840F2F4006F1C90
:10391000C2F20040059C00EBC2160698C75D16F87F
:1039200003C027FA0AF747EA0C07F7540799022958
:103930003FF440AF00982B187F2B3FF63BAFAF1CF6
:103940000698C75D40F2F400C2F2004028E700BFCD
:10395000B9F1040F80F00A81B446002507990029C7
:10396000059C3FF427AF05EB0E027F2A0DD840F2ED
:10397000F400059CC2F2004000EBCC130698475DB2
:103980009E5C07FA08F737439F54079901293FF4D3
:1039900011AF01982A187F2A0ED840F2F4006B1C50
:1039A000C2F20040059C00EBCC170698C35CBE5CDD
:1039B00003FA08F33343BB54079902293FF4FAAEE4
:1039C00000982B187F2B3FF6F5AEAA1C0698825C58
:1039D00040F2F400C2F2004000EBCC1702FA08F209
:1039E0003B44E2E603984FF0000C00EBC61507E0FD
:1039F0000CF1040C0A986045DDF824E03FF4F8AEC1
:103A0000E64405EB0C03BEF17F0F0FD90EF1010167
:103A10000BEB0C097F2921D90EF102017F2931D945
:103A20000EF103017F29E3D840E000BF1BF80C1022
:103A300015F80C4001FA08F1214305F80C101BF8A9
:103A40000C1093F8804021FA0AF1214383F880108A
:103A50000EF101010BEB0C097F29DDD899F801105B
:103A60005C7801FA08F12143597099F8011093F834
:103A7000814021FA0AF1214383F881100EF10201FD
:103A80007F29CDD899F802109C7801FA08F12143DA
:103A9000997099F8021093F8824021FA0AF12143B3
:103AA00083F882100EF103017F29A1D899F8031041
:103AB000DF7801FA08F13943D97099F8031093F8C7
:103AC000837021FA0AF1394383F8831090E700BF2D
:103AD0000398002500EBC6130A9803E00435A842BA
:103AE0003FF4F2AE0EEB05077F2F09D9791C7F2931
:103AF00013D9B91C7F291ED9F91C7F29EED828E0DB
:103B000059191BF8056091F8804026FA0AF62643F9
:103B100081F88060791C7F29EBD80BEB05015E19D9
:103B2000497896F8814021FA0AF1214386F88110FC
:103B3000B91C7F29E0D80BEB05015E19897896F84E
:103B4000824021FA0AF1214386F88210F91C7F296C
:103B5000C4D80BEB05015F19C97897F8836021FA87
:103B60000AF1314387F88310B8E700BF0399B446E0
:103B7000002501EBC61303E00435A8423FF4EEAE86
:103B80000EEB05027F2A06D81BF805705E5D07FA6A
:103B900008F737435F55571C0BEB05067F2F03EBE8
:103BA000050707D9911C7F290DD9D11C7F29E3D89E
:103BB00012E000BF71787C7801FA08F12143797036
:103BC000911C7F29F1D8B178BC7801FA08F1214322
:103BD000B970D11C7F29CFD8F178FA7801FA08F1B1
:103BE0001143F970C8E700BF002040F00101C9B2DD
:103BF0008F420DDB40F00201C9B28F4222BF40F07C
:103C00000301C9B28F4203D30430C1B28F42ECD258
:103C10000BB0BDE8F08F0000002B08BF70472DE906
:103C2000F04F83B007460C981C46934689460828F7
:103C300060D0062840F0B680C4F1000A651E4FF03F
:103C4000000842F21076A01E029027E001204CF6F8
:103C5000CD410823BBFBF0F0CCF6CC41A0FB011218
:103C6000D10801EB8101A0EB41000C9940F010005C
:103C700008FB017100EB400208B245F21821C0F6C2
:103C8000000101EB4201062200914946FFF7D0FCFA
:103C900008F10108013DA04500F0848088EA0A008F
:103CA0000130D3D00298A0EB0800032802D20120F3
:103CB00007E000BF25F00301012000BF7043043975
:103CC000FCD16FEA0801214411F00301BFD00129A2
:103CD00004D100EB80004000B9E700BF4FF47A72D6
:103CE000022900FB02F24FF0640108BF00FB01F261
:103CF0001046ACE7C4F10008651E002642F2107AB7
:103D0000A01E029024E000BF01204CF6CD411023FC
:103D1000BBFBF0F0CCF6CC41A0FB0112D10845F280
:103D20005242C0F6000201EB8101A0EB41000C9968
:103D300006FB017102EB001208B202F58071082245
:103D400000914946FFF774FC0136013DA64229D097
:103D500086EA08000130D7D00298801B032801D2E0
:103D6000012007E025F00301012000BF00FB0AF05D
:103D70000439FBD1F143214411F00301C5D00129DD
:103D800004D100EB80004000BFE700BF4FF47A721F
:103D9000022900FB02F24FF0640108BF00FB01F2B0
:103DA0001046B2E703B0BDE8F04F704700000000D6
:103DB00010B5B02000F074F8102000F071F8002069
:103DC00000F06EF840F2F4048021C2F20044204674
:103DD00000F0B2F8B12000F063F8102000F060F8B5
:103DE000002000F05DF804F18000802100F0A4F8CC
:103DF000B22000F055F8102000F052F8002000F03A
:103E00004FF804F58070802100F096F8B32000F0A0
:103E100047F8102000F044F8002000F041F804F5C5
:103E2000C070802100F088F8B42000F039F810202C
:103E300000F036F8002000F033F804F5007080211F
:103E400000F07AF8B52000F02BF8102000F028F8E8
:103E5000002000F025F804F52070802100F06CF8B7
:103E6000B62000F01DF8102000F01AF8002000F035
:103E700017F804F54070802100F05EF8B72000F0DC
:103E80000FF8102000F00CF8002000F009F804F5FD
:103E900060708021BDE8104000F04EB800000000C6
:103EA000B0B540F600040546C5F602042021012203
:103EB0002046FCF741FC0120FCF73EFB10210122CB
:103EC0002046FCF739FC0120FCF736FB20210022BC
:103ED0002046FCF731FC0120FCF72EFB10210022CC
:103EE0002046FCF729FC0120FCF726FB7820FFF791
:103EF0009BF90020FFF798F92846FFF795F9202154
:103F000000222046FCF718FC0120FCF715FB1021CD
:103F100001222046FCF710FC0120FCF70DFB2021BC
:103F200001222046FCF708FC0120BDE8B040FCF768
:103F300003BB00000000000070B540F600040D4611
:103F4000C5F602040646202101222046FCF7F4FBB8
:103F50000120FCF7F1FA102101222046FCF7ECFBCE
:103F60000120FCF7E9FA202100222046FCF7E4FBBF
:103F70000120FCF7E1FA102100222046FCF7DCFBCF
:103F80000120FCF7D9FA7820FFF74EF94020FFF71F
:103F90004BF93DB1013E00BF16F8010FFFF744F9A0
:103FA000013DF9D1202100222046FCF7C5FB01206C
:103FB000FCF7C2FA102101222046FCF7BDFB0120CC
:103FC000FCF7BAFA202101222046FCF7B5FB0120BC
:103FD000BDE87040FCF7B0BA704700000000000078
:103FE00080B582B00DF107029820AA210123FDF7C8
:103FF00057FF9DF80700663818BF012002B080BD4A
:104000007047000000000000FCF7A6BB00000000A5
:10401000B0B59CB044F6180409A84C21C5F60204BA
:10402000FCF7DAF902200025CDE90755CDE9055561
:10403000CDE90355CDE90155FCF74AFC0095206810
:1040400040F440402060206800F440400090009818
:104050002068800409D4206880045CBF20685FEA7F
:10406000804002D420688004F2D5012009902022EB
:104070004FF48031CDE915200C20199009A80A9140
:1040800002211491CDE91211CDE917110024CDE9D7
:104090001A44FCF701FE28B1EFF3108072B600BF9E
:1040A000FEE700BF3F20019003204FF48061CDE97F
:1040B0000204082004904020CDE90500CDE9071056
:1040C00001A80221FCF72CFC20B1EFF3108072B69E
:1040D000FEE700BF1CB0B0BD4EF6885042F2000CA7
:1040E000CEF20000C5F2002C026842F470020260B9
:1040F000DCF8000000F00F00062806D8DCF800000D
:10410000072262F30300CCF8000044F200404EF6B0
:104110007F51C5F60200CEF6F621026842F0010298
:10412000026000220261036819400160DCF800109F
:10413000090706D5DCF80010072363F30301CCF868
:10414000001040F200218261C261C0F202210262CD
:1041500081620021C0F2FF11C16240F28021C0F2F1
:104160000111016342638163C263016442640168B7
:1041700021F480210160026644F20000C5F20020B3
:1041800043F2D2010160704740F6FF32C4F20002F0
:104190009042026810DCB0F1804F1ED040F2004324
:1041A000C4F20003984218D040F60003C4F20003A2
:1041B000984212D015E000BF40F60043C4F200035D
:1041C00098420AD040F20043C4F20103984204D05E
:1041D0000023C4F20103984203D122F070024B681D
:1041E0001A434EF2FF3343F6FF7CC4F20003C4F2DD
:1041F000010C984214DD60452CDC4EF20043C4F201
:104200000003984243D00023C4F2010398423ED0F9
:1042100040F20043C4F20103984238D03BE000BFB3
:1042200040F2FF73C4F20003984227DD40F600031A
:10423000C4F2000398422AD040F60043C4F20003BF
:10424000984224D04EF20003C4F2000398421ED0DC
:1042500021E000BF44F20003C4F20103984216D0EB
:1042600044F60003C4F20103984210D044F2004324
:10427000C4F2010398420AD00DE000BFB0F1804FB4
:1042800005D040F20043C4F20003984203D122F467
:104290004072CB681A4310B522F08002D1F800E0DA
:1042A0004C698B6822430260C3626045C0F828E015
:1042B000BDE8104012DD44F20002C4F20102904257
:1042C00017D044F60002C4F20102904211D044F229
:1042D0000042C4F2010290420BD00CE00022C4F272
:1042E0000102904205D040F20042C4F20102904225
:1042F00001D109690163012141610169C90708BF51
:104300007047016921F00101016170470000000060
:10431000FEE7000000000000B7EE001A40F21000B7
:10432000C2F2004081EE000A80ED020A70470000F0
:104330002DE9F04F81B02DED108B82B0B0EE0CBBAB
:1043400040F2A804B3EE00FAC2F200449FED888B5D
:1043500040F2200500269FED889B04F10A0904F134
:10436000080B9FED87AB04F1020804F1040A9FEDEE
:1043700086CBA71D9FED8AEA9FED85DBDFED89EAFD
:10438000C2F200452046414652463B46CDE900B9BF
:10439000FDF7F2FFB4F9000095ED066A9FED7E7B14
:1043A00000EE100AB4F90200B7EEC66A01EE100A78
:1043B000B4F90400B8EEC00A02EE100AB4F906001F
:1043C000B8EEC11A03EE100AB4F90800B8EEC22A1A
:1043D00004EE100AB4F90A00B8EEC33A22EE0E2A2F
:1043E00005EE100AB8EEC44A0A2020EE0E0A22EEAC
:1043F0000F2A23EE0E3AB8EEC55AB7EEC22A21EEC6
:104400000E1A24EE0E4A22EE082B20EE0F0A23EE9F
:104410002E3A25EE0E5A21EE0F1A22EE092B24EE2B
:104420002E4AB7EEC00AB7EEC33A25EE2E5AB7EEC3
:10443000C11A22EE0A2BB7EEC44A20EE080BB7EEE3
:10444000C55A23EE0B3B21EE081BB7EEC22B84EDC1
:10445000082A24EE0B4BB7EEC22A20EE090B23EEFE
:104460000C3B25EE0B5B21EE091B24EE0C4B20EEE2
:104470000A0B23EE0D3B25EE0C5B21EE0A1B24EE0E
:104480000D4B32EE072B95ED047AB7EEC00B84EDA1
:10449000060A23EE0A3B37EE000A95ED057A25EE73
:1044A0000D5B85ED040AB7EEC11B84ED071A24EEFF
:1044B0000A4B37EE010A95ED071A32EE062B85ED11
:1044C000050AB7EEC33B84ED093A25EE0A5BB7EE69
:1044D000C44B84ED0A4AB7EEC20B85ED060A31EEF5
:1044E000030AB7EEC55B85ED070A95ED080A30EEC5
:1044F000040A95ED091A85ED080A31EE050A84EDE6
:104500000B5A85ED090AFBF7FBFF632E06F1010646
:10451000FFF438AF95ED040A9FED233A95ED051AA7
:1045200080EE030A95ED062A85ED040A81EE030A62
:1045300095ED074A85ED050A82EE030A85ED060A28
:1045400084EE030A85ED070A95ED080A80EE030A5A
:1045500095ED091A85ED080A81EE030A85ED090A31
:1045600002B0BDEC108B01B0BDE8F08F00BF00BF02
:104570009A99999999992340333333333333F33FDD
:104580000B7C71F5838E124030E80BFA82BEE03F5F
:10459000499224499224F13F14AE47E17A9423C012
:1045A000000000380000FA440000C842000000008B
:1045B00010B52DED0A8B40F2D804C2F200442078E9
:1045C00040B194ED058A9FED260A28EE000ABDEC65
:1045D0000A8B10BDB6EE009A94ED028A94ED03AA00
:1045E00040F2100094ED01BA28EE0A0AF0EE490AF2
:1045F000C2F2004090ED01CAEBEE4B0AACEE0B0AA2
:10460000E8EE480A00F068FC28EE4C1AB8EE002AE2
:1046100084ED040AABEE0A1A21EE021AB0EE410A4A
:1046200000F0C4FB2CEE0A1A84ED050AA8EE489AA5
:10463000ABEE081AB0EE408AAAEE4A9AB0EE410AF2
:10464000F0EE490A00F048FC84ED060A01202070D3
:104650009FED030A28EE000ABDEC0A8B10BD00BFD7
:10466000E12E65420000000010B52DED0C8B40F2EC
:10467000D804C2F20044207840B194ED048A9FED42
:10468000260A28EE000ABDEC0C8B10BDB6EE009A8F
:1046900094ED02AA94ED03BA40F2100094ED01CA21
:1046A0002AEE0B0AF0EE490AC2F2004090ED01DA60
:1046B000ECEE4C0AADEE0C0AEAEE4A0A00F00CFCF5
:1046C0002AEE4D1AB8EE002AB0EE408A84ED040AB4
:1046D000ACEE0B1A21EE021AB0EE410A00F066FBB6
:1046E0002DEE0B1A84ED050AAAEE4A9AACEE0A1AD0
:1046F000ABEE4B9AB0EE410AF0EE490A00F0ECFB4B
:1047000084ED060A012020709FED030A28EE000ABE
:10471000BDEC0C8B10BD00BFE12E65420000000017
:1047200010B52DED0A8B40F2D804C2F20044207877
:1047300040B194ED060A9FED251A20EE010ABDEC6A
:104740000A8B10BDB6EE008A94ED029A94ED03AA8E
:1047500040F2100094ED01BA29EE0A0AF0EE480A80
:10476000C2F2004090ED01CAEBEE4B0AACEE0B0A30
:10477000E9EE490A00F0B0FB29EE4C1AB8EE002A27
:1047800084ED040AABEE0A1A21EE021AB0EE410AD9
:1047900000F00CFB2CEE0A1A84ED050AA9EE498AFA
:1047A000ABEE091AAAEE4A8AB0EE410AF0EE480AC8
:1047B00000F092FB84ED060A012020709FED031AA1
:1047C00020EE010ABDEC0A8B10BD00BFE12E654250
:1047D00084B0FBF7D1FFFFF71BFCFDF7B1FFFEF73D
:1047E000EFF9FEF709F9FEF7D3F8FEF7B1F9FEF796
:1047F0001FFAFEF709F8FBF767FE40F240503C2134
:10480000C2F20040FDF758F840F2D8503C21C2F205
:104810000040FDF751F840F224603C21C2F2004014
:10482000FDF74AF840F270603C21C2F20040FDF70B
:1048300043F8FEF7D9FDFEF7EBFCFFF7B9FA642069
:10484000FBF75EFEFDF700FF40F220079FEDAA1A7E
:10485000C2F20047388800EE100AB8EE400A81EE36
:10486000000AFFF759FDFFF763FDB0EE0CBB40F205
:10487000A804B3EE00DA40F2BC689FED958BC2F25B
:104880000044C2F200489FED949B4FF000094FF0A6
:10489000080A9FED93AB04F1080BA51C9FED92CB8A
:1048A000261D9FED96FA9FED92EBDFED95DA04F170
:1048B0000A0003904EE000BFFFF732FF84ED030AC9
:1048C000FFF776FE84ED040AFFF7CEFE94ED031A9F
:1048D00084ED050AB7EEC11A40200021042202230C
:1048E000CDF800A0B0EE410BFEF7E6FD94ED040A12
:1048F0004020B7EEC00A102104220223CDF800A008
:10490000FEF7DAFD94ED050A4020B7EEC00A20213B
:1049100004220223CDF800A0FEF7CEFDFFF760FBD6
:1049200040F24050C2F200400068406A40F2D85065
:10493000C2F200400068406A40F22460C2F20040C7
:104940000068406A40F27060C2F200400068406A4D
:10495000FFF72EFAD8F800003B88D7E90212401A78
:1049600069EB0201C01A71F10000A5D3D8F800006C
:10497000A31DC7E9020903982946CDE900B02046E6
:104980003246FDF7F9FCB4F9000000EE100AB4F964
:10499000020001EE100AB4F90400B8EEC00A02EEFB
:1049A000100AB4F90600B8EEC11A03EE100AB4F901
:1049B0000800B8EEC22A20EE0F0AB8EEC33A22EE83
:1049C0000F2A21EE0F1A23EE0F3A22EE0D2A20EEC7
:1049D0000D0A23EE2D3AB7EEC22A21EE0D1AB7EEDC
:1049E000C00A22EE082BB7EEC33AB7EEC11A22EE88
:1049F000092B20EE080B22EE0A2B23EE0B3BB7EE21
:104A0000C24B02EE100AB4F90A0021EE081B05EEB3
:104A1000100AB8EEC22A20EE090BB8EEC55A22EEF3
:104A20000F2A23EE0C3B25EE0F5A22EE2D2A21EE03
:104A3000091B25EE2D5AB7EEC22A20EE0A0BB7EE5F
:104A4000C55A22EE0B2B25EE0B5B22EE0C2B25EE2E
:104A50000C5B22EE0E2B23EE0E3B25EE0E5B21EEC1
:104A60000A1B22EE0A2BB7EEC00B23EE0A3B25EE03
:104A70000A5BB7EEC11BB7EEC26B97ED042AB7EE27
:104A8000C33B70EE421A97ED050AB7EEC55B31EEF7
:104A9000402A97ED060A97ED081A74EE402A97ED22
:104AA000070A76EE410A97ED091A33EE400A35EE11
:104AB000411AC4ED061A84ED072AC4ED082A84EDD4
:104AC000090AC4ED0A0A84ED0B1A00F01DF8F3E69A
:104AD0009A99999999992340333333333333F33F78
:104AE0000B7C71F5838E124030E80BFA82BEE03FFA
:104AF000499224499224F13F00007A440000003892
:104B00000000FA44000000009FED9D3A40F2D800FA
:104B100020EE835AC2F2004061EE030A40F2100117
:104B200020EE036A90ED020A90ED013A20EE057A3C
:104B300060EE803AC2F2004160EEC34A90ED031A83
:104B400065EE035A91ED014AA3EE067A45F6DF12AF
:104B5000E4EE063AF5EE401AE4EE054AC5F6377281
:104B6000E4EE205AA1EE207AE1EE453AB6EE005A84
:104B7000E1EE064AE0EE465AF1EE10FA67EE450A1B
:104B800063EE853A24EE857A25EE856A04BFB5EE9C
:104B9000402AF1EE10FA00F0AF802DED108B62EE9E
:104BA000024A21EE019A24EE04BAE1EEA14A34EE63
:104BB00004CA60EE008AE2EEA24A63EE03AA14EE93
:104BC000903A64EE855AF7EE084AA2EB5303B0EE32
:104BD000648A06EE903A66EEE57AA7EEA68AF0EED3
:104BE000647A68EE266A31EE018A66EEE55AE5EEF1
:104BF000A67AF1EE005A2BEE25BA20EE25EA66EEF3
:104C0000A77A63EE256A24EE25DA61EEA71A22EE72
:104C1000272A62EEA72A21EEC8AAA6EE89AAABEE41
:104C200003AAACEE42AA21EE8CCAABEE00CAB2EEE9
:104C300000BA7AEE667A30EE00AAAEEE09CA23EE2A
:104C40000BFA61EE8A9AA8EE42CAEFEE2A7AEDEEEE
:104C5000289A20EE0B9AEFEE287A3CEE4EBAEDEE53
:104C60002A9A33EE038AA9EE2ABAE6EEA27AF0EE89
:104C7000646AE8EE429A61EEC81A2AEEA58AA9EEA5
:104C800028BA68EEA55AE8EE011AAEEE22BA67EE2F
:104C9000A72AE5EE811AE9EEA92AEAEE421AEBEE1E
:104CA0000B2AE1EEA12A12EE903A22EE852AA2EB1F
:104CB000530302EE903A62EEC25AE5EEA26A66EE45
:104CC000A22A22EEC22AE2EE224A22EEA42A69EEAB
:104CD000822A67EE824A6BEE025A21EE822AD1EDD9
:104CE000001AE1EEE20AE1EEE43AA1EEE57AA1EE85
:104CF000C26ABDEC108B05E0F5EE402AF1EE10FA29
:104D00007FF44BAF91ED022AA3EE823AA0EE824AE5
:104D1000A7EE020AB7EE087AA6EE021A63EE030ABD
:104D2000E4EE040AE0EE000AE1EE010A10EE903A29
:104D300020EE852AF0EE470AA2EB530205EE102A78
:104D400025EE426AE6EE050A20EE855A25EE422A55
:104D5000A2EE057A25EE072A24EE024A23EE023A55
:104D600081ED014A20EE020A80ED013A21EE021A9D
:104D700080ED020A80ED031A00210170704700BF28
:104D800039FA8E3C4100080218BF04200A0E18BFF1
:104D900040F001004FF07F4232EA010108BF40F0CD
:104DA0000200012808BF05207047000010B54FF031
:104DB0000E402DED028BB0EE408A18EE104A00EB4B
:104DC0004400B0F1506F4AD84FF0FC40B0EB440FB4
:104DD00022D2B0EEC80AF7EE000A30EEC00AF6EEB4
:104DE000000A60EE208A18EE900A00F0E1F901EE68
:104DF000100A14F0004F1DBFDFED2D0A9FED2D0AA4
:104E0000B1EE411ADFED2C0A08BF9FED2C0AF8EE37
:104E1000001A21EE218A05E0DFED290A68EE088AF2
:104E2000B0EE600A9FED271ADFED271A30EE080A70
:104E300048EE811A9FED251A08EEA11ADFED241A1B
:104E400048EE811A9FED231A08EEA11A68EE281A7F
:104E5000BDEC028B01EE810A30EE200A10BD4FF04E
:104E6000E440B0EB440F0CD918EE100AFFF78AFFAC
:104E7000042808BF00F094F9B0EE480ABDEC028B9C
:104E800010BD4FF07F40B0EB440F07D2B0EE480AA0
:104E9000BDEC028BBDE8104000F074B90120FBF7B7
:104EA000CAFABDEC028BBDE8104000F071B90000F9
:104EB0000000C9BF22AAFDB90000C93F22AAFD39DE
:104EC0000000000024FE1C3DC78AD83C1E67383D08
:104ED0001B93993DAFAA2A3E70B54FF068422DED65
:104EE000048BF0EE408A18EE900AB0EE608A18EE5D
:104EF000101A02EB4003B3F1654F3CBF02EB4102D5
:104F0000B2F1654F7DD200BFC0F3C753C1F3C752A2
:104F10009A1A1B2A09DD10F0004F14BF9FED830A77
:104F20009FED830ABDEC048B70BD12F11A0F36DAC7
:104F300011F0004F09D010F0004F0CBF9FED7D0A1B
:104F40009FED7D0ABDEC048B70BD88EE889A19EE4A
:104F5000100AFFF717FF042808BF00F021F918EE28
:104F6000900AFFF70FFF054618EE100AFFF70AFF39
:104F7000044619EE100AFFF705FF042D18BF052D92
:104F800008D1042C18BF052C04D1002804BF02202E
:104F9000FBF751FAB0EE490ABDEC048B70BD42003C
:104FA000B2EB410F3AD910F0004F19BFDFED630AA1
:104FB0009FED630ADFED630A9FED630AB0EE481AC6
:104FC0000A46B1EE688A80F00041F0EE418A104650
:104FD0000A1A5200B2F1807F34D2484010F0004FDC
:104FE000DFED5A1A9FED5A2A1DBFBEEE001A70EE71
:104FF000E10A30EE420AB6EE001A08BF70EEA10ACE
:1050000000E040E008BF30EE020AB0EE682A01EE90
:10501000482A08EE818AC2EE081A15E011F0004F06
:1050200004BF9FED4C0AF0EE400AD1D010F0004FC3
:1050300019BFDFED490A9FED490ADFED490A9FEDEF
:10504000490AC5E7C8EE881A21EEA11A9FED462A43
:10505000DFED462A41EE022A9FED452A01EE222A83
:10506000DFED442A41EE022A9FED432ABDEC048B7A
:1050700001EE222A21EE811A01EE020A30EE210A07
:1050800030EE200A70BD4FF07F42B2EB400F28BFD8
:10509000B2EB410F09D2F0EE480AB0EE680ABDEC5F
:1050A000048BBDE8704000F070B840EA01035B007B
:1050B00008BF41F0FF410BD0B2EB400F08BFB2EB8D
:1050C000410F08D120F0804008EE900A21F0804185
:1050D00008EE101A18E7B2EB400F12BF5FEA410367
:1050E00040F0FF4001F000413FF40EAFB2EB410F42
:1050F00012BF5FEA400200F0004041F0FF413FF480
:1051000003AF4A0092EA40033FF5FEAE002AACBF6F
:105110009FED1A0A9FED1A0A68EE808A28EE008A2F
:1051200018EE900A18EE101AEEE60000DB0FC9BF69
:10513000DB0FC93FDB0F4940DB0F49C00000C9BF8F
:1051400022AAFDB90000C93F22AAFD390060ED3E48
:10515000C30ACE3700000000000049C022AA7DBA71
:105160000000494022AA7D3A2DAD65BD8FB8D53DDE
:105170000FB511BE61C84C3EA8AAAABE0000804F60
:105180000000802F30EE000A704730EE200A704792
:10519000DFED020A80EEA00A704700000000000068
:1051A0009FED020A20EE000A704700000000001088
:1051B00010B500EE100A2DED028BB1EEC08A18EE8C
:1051C000100A20F00040C0F1FF40C00F0AD010EEDE
:1051D000100A20F00040C0F1FF40C00F04BF0120C2
:1051E000FBF729F918EE100ABDEC028B10BDF1EEA9
:1051F000100A4FF6FF71C0F2C03120EA010040F002
:105200004070E1EE100A7047000000000102030444
:105210000102030406070809000000000000000066
:10522000002F000000000700070000147F147F1407
:1052300000242A7F2A12002313086462003649558D
:10524000225000000007000000001C224100000066
:1052500041221C000014083E08140008083E0808FB
:10526000000000A060000008080808080000606056
:105270000000002010080402003E5149453E000095
:10528000427F4000004261514946002141454B3177
:10529000001814127F10002745454539003C4A4943
:1052A00049300001710905030036494949360006B5
:1052B0004949291E0000363600000000563600001D
:1052C0000008142241000014141414140000412298
:1052D0001408000201510906003E4955592E007C70
:1052E0001211127C007F49494936003E414141225A
:1052F000007F4141221C007F49494941007F090943
:105300000901003E4149497A007F0808087F0000F2
:10531000417F4100002040413F01007F08142241AD
:10532000007F40404040007F020C027F007F040865
:10533000107F003E4141413E007F09090906003EC1
:105340004151215E007F09192946004649494931EA
:105350000001017F0101003F4040403F001F20400D
:10536000201F003F4038403F0063140814630007CB
:105370000870080700615149454300007F41410022
:10538000000204081020000041417F0000040201D7
:1053900002040040404040400000010204000020A0
:1053A00054545478007F48444438003844444420DE
:1053B00000384444487F00385454541800087E098B
:1053C00001020018A4A4A47C007F08040478000053
:1053D000447D4000004080847D00007F1028440010
:1053E0000000417F4000007C04180478007C080421
:1053F000047800384444443800FC2424241800185D
:10540000242418FC007C0804040800485454542048
:1054100000043F444020003C4040207C001C2040D1
:10542000201C003C4030403C004428102844001C14
:10543000A0A0A07C004464544C440000087F4100BC
:105440000000007F00000000417F08000008040801
:105450001008000000000000000000000000000034
:105460000000000000F800000000000000333000E1
:10547000000000160E00160E0000000000000000E4
:10548000000040C07840C0784000043F04043F045E
:105490000400007088FC08300000001820FF211E66
:1054A0000000F008F000E018000000211C031E219D
:1054B0001E0000F00888700000001E212324192718
:1054C0002110000000160E00000000000000000087
:1054D0000000000000E0180402000000000718208F
:1054E000400000020418E0000000004020180700FF
:1054F0000000404080F0804040000202010F0102A5
:105500000200000000F0000000000101011F010185
:105510000100000000000000000000B0700000006A
:105520000000000000000000000000010101010176
:105530000101000000000000000000303000000009
:1055400000000000000080601804006018060100E0
:10555000000000E010080810E000000F10202010EC
:105560000F00001010F8000000000020203F202055
:1055700000000070080808887000003028242221EC
:1055800030000030088888483000001820202011A2
:105590000E000000C02010F8000000070424243F83
:1055A000240000F80888880808000019212020112C
:1055B0000E0000E0108888180000000F1120201154
:1055C0000E0000380808C83808000000003F00003E
:1055D00000000070880808887000001C2221212229
:1055E0001C0000E010080810E00000003122221129
:1055F0000F00000000C0C0000000000000303000BC
:105600000000000000C0C0000000000080B070007A
:105610000000000080402010080000010204081073
:105620002000404040404040400004040404040482
:105630000400000810204080000000201008040230
:105640000100007048080808F00000000030360132
:105650000000C030C828E810E000071827242314F1
:105660000B000000C038E0000000203C23020227AD
:10567000382008F8888888700000203F20202011FA
:105680000E00C03008080808380007182020201035
:10569000080008F808080810E000203F202020102B
:1056A0000F0008F88888E8081000203F20202320F9
:1056B000180008F88888E8081000203F2000030040
:1056C0000000C03008080838000007182020221EFB
:1056D000020008F808000008F808203F2101012115
:1056E0003F20000808F8080800000020203F202084
:1056F000000000000808F8080800C08080807F00D3
:10570000000008F888C028180800203F200126382B
:10571000200008F8080000000000203F2020202082
:10572000300008F8F800F8F80800203F003F003F7C
:10573000200008F830C00008F808203F20000718B3
:105740003F00E01008080810E0000F102020201093
:105750000F0008F808080808F000203F21010101A7
:105760000000E01008080810E0000F18242438504A
:105770004F0008F8888888887000203F2000030CBC
:1057800030200070880808083800003820212122C5
:105790001C00180808F8080818000000203F200026
:1057A000000008F808000008F808001F202020204A
:1057B0001F000878880000C83808000007380E016C
:1057C0000000F80800F80008F800033C0700073C58
:1057D0000300081868808068180820302C03032C08
:1057E00030200838C800C83808000000203F2000DA
:1057F000000010080808C83808002038262120209A
:105800001800000000FE020202000000007F40407D
:105810004000000C30C0000000000000000106380D
:10582000C00000020202FE000000004040407F0075
:1058300000000020100804081020000000000000F4
:105840000000000000000000000080808080808058
:10585000808000020408000000000000000000003A
:105860000000000080808080000000192422222295
:105870003F2008F8008080000000003F1120201128
:105880000E000000008080800000000E112020200B
:105890001100000000808088F800000E1120201008
:1058A0003F200000808080800000001F22222222F2
:1058B0001300008080F0888888180020203F202076
:1058C00000000000808080808000006B949494939E
:1058D000600008F8008080800000203F2100002048
:1058E0003F2000809898000000000020203F2020EA
:1058F0000000000000809898000000C08080807F39
:10590000000008F8000080808000203F24022D3035
:105910002000000808F8000000000020203F2020A0
:1059200000008080808080808000203F20003F2019
:10593000003F008080008080000000203F21002088
:105940003F200000808080800000001F2020202059
:105950001F00808000808000000080FFA1202011B7
:105960000E000000008080808000000E112020A02A
:10597000FF80808080008080800020203F212000E8
:1059800001000000808080808000003324242424D3
:105990001900008080E0808000000000001F2020AF
:1059A00000008080000000808000001F2020201068
:1059B0003F20808080000080808000010E3008063B
:1059C000010080800080008080800F300C030C304C
:1059D0000F0000808000808080000020312E0E317A
:1059E0002000808080000080808080818E7018067A
:1059F000010000808080808080000021302C2221E6
:105A0000300000000000807C020200000000003F27
:105A1000404000000000FF00000000000000FF0008
:105A200000000002027C800000000040403F0000B7
:105A30000000008040408000008000000000000165
:105A400001000000685A000800000024480000001F
:105A500030030008B05A000848000024780C000009
:105A600050030008000000000100000010000000CA
:105A70000090D0030090D003CDCCCC3D0000803FFF
:105A80000AD7233C000000000A00000000000000CC
:105A90000000000000000000000000000000000006
:105AA00000000000000000000000000000000000F6
:04000005080002CD20
:00000001FF
