:020000040800F2
:10000000580700249903000871210008F11C00081A
:1000100069210008A1040008A124000800000000D4
:100020000000000000000000000000008121000826
:10003000D904000800000000792100088921000887
:10004000B3030008B3030008B3030008B3030008B8
:10005000B3030008B3030008B3030008B3030008A8
:10006000B3030008B3030008B3030008B303000898
:10007000B3030008B3030008B3030008B303000888
:10008000B3030008B3030008B3030008B303000878
:10009000B3030008B3030008B3030008B303000868
:1000A000B3030008B3030008B3030008B303000858
:1000B000B3030008B3030008B3030008B303000848
:1000C000B3030008B3030008B3030008B303000838
:1000D000B3030008B3030008B3030008B303000828
:1000E000B3030008B303000800000000B3030008D6
:1000F000B3030008B3030008B3030008B303000808
:10010000B3030008B3030008B3030008B3030008F7
:10011000B3030008B3030008B3030008B3030008E7
:10012000B3030008B3030008B3030008B3030008D7
:10013000B3030008B3030008B3030008B3030008C7
:1001400000000000000000000000000000000000AF
:10015000B3030008B3030008B3030008B3030008A7
:10016000B3030008B3030008B3030008B303000897
:10017000B3030008B3030008B30300080000000045
:10018000B3030008B3030008B3030008B303000877
:10019000B3030008B3030008B3030008B303000867
:1001A000B3030008B3030008B30300080000000015
:1001B000B3030008B3030008B3030008B303000847
:1001C000B3030008B30300080000000000000000B3
:1001D0000000000000000000B30300080000000061
:1001E000000000000000000000000000000000000F
:1001F0000000000000000000B3030008B303000883
:10020000B3030008B303000800000000B3030008B4
:10021000B3030008B3030008B3030008B3030008E6
:10022000B303000800000000B30300080000000052
:10023000B3030008B303000800000000B303000884
:10024000B3030008B3030008B3030008B3030008B6
:10025000B3030008B3030008B3030008B3030008A6
:10026000B3030008B3030008B3030008B303000896
:10027000B3030008B3030008B30300080000000044
:10028000B3030008B3030008B3030008B303000876
:1002900000000000B3030008B303000800000000E2
:1002A00000000000B3030008B3030008B303000814
:1002B000B3030008B3030008B3030008B303000846
:1002C000B303000809230008B303000800F002F894
:1002D00000F052F814A696E8000CB244B344DA4594
:1002E00001D100F049F8BAE80F000FA696E83000F7
:1002F000A5EB040504EB0607AAEB0704A7F1010729
:100300004FEA15154FEA3414A4F10104AC4201D3AD
:1003100000F032F813F0010F18BFFB1A43F001038D
:1003200000F001F8DBE71847C8210000E8210000D1
:10033000103A24BF78C878C1FAD8520724BF30C811
:1003400030C144BF04680C60704700007047000073
:100350000023002400250026103A28BF78C1FBD8CE
:10036000520728BF30C148BF0B6070471FB502F06D
:10037000AAF81FBD10B510BD00F05CF81146FFF7DC
:10038000F5FF02F091F800F07AF803B4FFF7F2FFFE
:1003900003BC00F07DF80000094880470948004789
:1003A000FEE7FEE7FEE7FEE7FEE7FEE7FEE7FEE725
:1003B000FEE7FEE704480549054A064B7047000082
:1003C00059220008CD0200085801002458070024D3
:1003D00058030024580300244FF0000200B51346D0
:1003E00094469646203922BFA0E80C50A0E80C5055
:1003F000B1F12001BFF4F7AF090728BFA0E80C5006
:1004000048BF0CC05DF804EB890028BF40F8042BFE
:1004100008BF704748BF20F8022B11F0804F18BF6B
:1004200000F8012B704770477047704700487047CD
:10043000100000247546FFF7F9FFAE460500694637
:10044000534620F00700854618B020B5FFF7B2FFED
:10045000BDE820404FF000064FF000074FF00008C5
:100460004FF0000BAC46ACE8C009ACE8C009ACE802
:10047000C009ACE8C00921F007018D46704710B5EE
:100480000446AFF300802046BDE81040FFF77DBF73
:1004900001491820ABBEFEE72600020070470000AD
:1004A000FEE70000000000004EF6FC50CEF2000017
:1004B000016841F08071016041F200000021CEF23C
:1004C00000004160016841F0010101604068B0FA3C
:1004D00080F04009704700007047000000000000F5
:1004E000EFF3108072B600BFFEE7000000000000CE
:1004F0002DE9F04F83B00F68002F00F0C98000F1A4
:10050000264642F2004506F1FF76C5F602050A22AC
:10051000A8424FEAB62540F2040C08BF092200F1B8
:1005200020030093082DC5F6000C38BF4FEAB62211
:10053000002400264FF0000801920AE008F10108AB
:100540000F6837FA08F206F1020604F1040400F01D
:100550009F80012202FA08FE17EA0E09EED0D1F8B8
:1005600004B003220BF00307B2407D1E6FEA020ABB
:10057000012D11D88268CD6802EA0A02B5402A43EB
:100580008260CBF30015426822EA0E0205FA08F5F4
:100590002A43426004E000BF032F01D103271FE07C
:1005A000C2688D6802EA0A02B540022F42EA0502DB
:1005B000C26015D16FF0030204F01C0502EA580B6B
:1005C000009A0F2352F80BE0AB400F692EEA0303A9
:1005D000AF403B4342F80B30D1F804B00BF00307B7
:1005E000026807FA06F302EA0A021BF4403F42EAF5
:1005F00003020260A2D044F2F44340F2084EC5F672
:100600000203C5F6000E0F251A6842F002021A60B6
:100610001A6802F00202029228F00302029B04F020
:100620000C0352F80E709D40AF43019D05FA03F391
:100630003B4342F80E304FF0B04EDEF800204B68DE
:1006400042EA0907DD0258BF22EA09079D02CEF8F7
:100650000070DCF8002042EA090758BF22EA0907C7
:100660009D03CCF80070DCF8802042EA090758BFEF
:1006700022EA0907DB03CCF88070DCF87C2042EA30
:10068000090758BF22EA0907CCF87C7056E700BF7B
:1006900003B0BDE8F08F0000002A08BF09048161A3
:1006A000704700000000000040F25410C2F2004009
:1006B000006870470000000040F2000040F2541152
:1006C000C2F20040C2F2004100780A68104408609B
:1006D000704700000000000080B5032000F0ACF877
:1006E00000F00EFA44F2184142F2E043C5F602016E
:1006F000C0F600030A68C2F303229A5C096801F09D
:100700000F0102F01F02595CD04040F20C02C2F20D
:10071000004201F01F0120FA01F1116040F20801CE
:10072000C2F2004108600F2000F00AF800281CBF48
:10073000012080BD00F02CF8002080BD00000000EA
:10074000B0B540F20005C2F200452978F1B1044687
:1007500040F20800C2F200404FF47A72B2FBF1F1AD
:100760000068B0FBF1F000F0F3FC0F2C01464FF0F5
:1007700001000AD8002918BFB0BD4FF0FF30002299
:10078000214600F029F800206C60B0BD0120B0BD0A
:1007900081B044F2F440C5F60200016841F0020164
:1007A0000160006800F002000090009801B07047FE
:1007B000002848BF704700F01F01012202FA01F132
:1007C0004EF20012C0F34A10CEF2000242F820109E
:1007D000704700000000000070B54EF60C5C4FF052
:1007E000FF36CEF2000C00F1604505F56445DCF8FB
:1007F0000030C3F3022E8EF00703042B28BF04231E
:10080000BEF1030406FA03F321EA030100F00F032B
:1008100038BF0024043B0028634406FA04F048BFB4
:1008200003F10C05A14022EA0000084300012870F2
:1008300070BD0000000000004EF60C514FF6FF03A3
:10084000CEF200010A681A4060F30A2242F080608A
:1008500040F0FD7008607047B0B544F60C05C5F671
:10086000020529684907296806D401F00701081A1A
:1008700018BF0120B0BD00BF21F007010843286068
:10088000FFF712FF044600BF55F8080C800407D498
:10089000FFF70AFF001BB0F57A7FF5D90120B0BD44
:1008A0000020B0BD000000002DE9F04381B0002819
:1008B00000F0208142F200090446C5F20029D9F86F
:1008C000000000F00F0081420DD9D9F8000020F09F
:1008D0000F000843C9F80000D9F8000000F00F002D
:1008E000884240F00781206844F218464207C5F666
:1008F00002060AD52269336803F070039A4204D9CC
:10090000336823F070031A43326002070AD5626924
:10091000736803F070039A4204D9736823F070037C
:100920001A437260C2060AD5A269736803F4E063D1
:100930009A4204D9736823F4E0631A437260820612
:100940000AD5E269B36803F070039A4204D9B36828
:1009500023F070031A43B26010F002020AD0E36879
:10096000376807F00F07BB4204D9376827F00F0735
:100970003B433360C3073FD0306820F47062D4E952
:1009800001031A433260012856F8182C0AD00328B4
:1009900004D002280AD192030BD4ABE0920108D410
:1009A000A8E000BFD20504D4A4E000BF520740F184
:1009B000A180884656F8081C21F00701084346F834
:1009C000080CFFF771FE054641F2883756F8080C0F
:1009D000616800F03800B0EBC10F09D0FFF764FE8A
:1009E000401BB842F2D9032001B0BDE8F08300BF3C
:1009F0002068414600F0020252B1E268336803F019
:100A00000F039A4204D2336823F00F031A43326073
:100A1000D9F8002002F00F0291420CD2D9F8002040
:100A200022F00F020A43C9F80020D9F8002002F092
:100A30000F028A425ED141070AD52169326802F06D
:100A40007002914204D2326822F070021143316088
:100A500001070AD56169726802F07002914204D2FE
:100A6000726822F0700211437160C1060AD5A16953
:100A7000726802F4E062914204D2726822F4E06289
:100A80001143716080060AD5E069B16801F0700118
:100A9000884204D2B16821F070010843B06000F0D0
:100AA0002FF8316842F2E042C0F60002C1F30321A0
:100AB000515C336803F00F0301F01F01D25C20FA90
:100AC00001F102F01F0040F20C02C2F2004221FAD2
:100AD00000F0106040F2040040F20802C2F2004050
:100AE000C2F200420068116001B0BDE8F043FFF7B8
:100AF00027BE00BF012001B0BDE8F0830000000068
:100B000044F20041C5F602010869C0F3C20003289F
:100B100016D002280ED0002832D10868800649F28B
:100B20000000C0F2D03058BF70470968C1F3C1015E
:100B3000C840704747F64000C0F27D10704700BFC4
:100B40008B6A886AD1F82CC04A6BC0F30510E8B1F3
:100B5000C2F3CC0203F0030300EE102A9FED2A1A21
:100B6000B8EE400A20EE010A9FED281ADFE803F0F4
:100B7000022110210A6892060ED49FED261A18E071
:100B800040F60010C0F23D00704700BF00207047E3
:100B90009FED1F1A0DE000BF0A6849F20003C0F282
:100BA000D033C2F3C10223FA02F201EE102AB8EEEA
:100BB000411A0A6B9FED183A6FF35F2202EE102A7A
:100BC0005FEACC7203FE000A03EE100A086BB8EE6F
:100BD000422AC0F34620B8EE433A013030EE020A12
:100BE000B7EE002A81EE031A30EE020A21EE000A67
:100BF00001EE100AB8EE411A80EE010ABCEEC00AFE
:100C000010EE100A704700BF000000390024744A3B
:100C100020BCBE4B0024744C00000000000000000B
:100C200070B3F0B581B00446007844F20046C007C6
:100C3000C5F6020626D1207880076AD5306910F003
:100C40003801B06A42D0182908BF5FEA80703DD0F1
:100C5000E0683168002800F02D8121F01901084377
:100C60003060FFF721FD0546306840074AD4FFF7A2
:100C70001BFD401B0228F7D9032001B0F0BD00BFC7
:100C800001207047306900F03801B06A102905D0A2
:100C900018290BD100F00300022807D13068800327
:100CA000C9D560680028C6D1AAE000BF6168306875
:100CB000002900F03981B1F5A02F00F02D81B1F5A8
:100CC000803F40F0478140F4803049E13068400780
:100CD000E06802D5002800F09380316821F0190106
:100CE00008433060FFF7E0FC054600BF306840076E
:100CF00008D4FFF7D9FC401B02284FF00300F5D9B8
:100D000001B0F0BD7068216920F0FE4040EA01604A
:100D100070602078C0061AD5306900F03801B06ADA
:100D2000082907D0182940F0858000F00300012829
:100D300040F080803068C00502D5E06980285FD12E
:100D4000F068216A20F07C5040EA0160F060207871
:100D500000073FD42078800656D42078400700F161
:100D60008180656A9DB3306900F03800182840F032
:100D70001981012DB16A306B42D001F00302A36AE0
:100D80009A423DD1C1F30511E26A914238D1014640
:100D9000226B6FF35F21013A914231D1C0F34622B9
:100DA000616B01398A422BD1C0F30642A16B013934
:100DB0008A4225D1C0F30660E16B013988421FD118
:100DC000706BA16CC0F3CC00814240F0A581002083
:100DD00001B0F0BD60690028706F59D040F001008B
:100DE0007067FFF761FC0546706F8007B2D4FFF7AC
:100DF0005BFC401B0228F7D9032001B0F0BD00BF07
:100E0000012001B0F0BD00BFA0690028306871D09A
:100E100040F480503060FFF747FC0546306880049E
:100E20009BD4FFF741FC401B0228F7D9032001B0F7
:100E3000F0BD00BFE0690028306800F0A18040F0FC
:100E400080003060FFF730FC054600BF3068C00509
:100E50003FF576AFFFF728FC401B02284FF0030058
:100E6000F4D94DE7D6F8000440F48070C6F80004C9
:100E7000FFF71AFC054600BFD6F80004C0052BD4C6
:100E8000FFF712FC401B6428F6D9032001B0F0BD27
:100E900020F001007067FFF707FC0546706F8007C0
:100EA0007FF558AFFFF700FC401B02284FF003000E
:100EB000F4D925E721F001003060FFF7F5FB054686
:100EC000306840077FF525AFFFF7EEFB401B022897
:100ED0004FF00300F4D913E7A168306F002900F048
:100EE0008B80052900F08080012940F09D8040F032
:100EF00001009FE020F480503060FFF7D5FB0546ED
:100F0000306880047FF529AFFFF7CEFB401B022835
:100F10004FF00300F4D9F3E640F4802030603068ED
:100F200040F480301CE000BF20F480303060306836
:100F300020F480203060FFF7B7FB0546306880035F
:100F40007FF579AEFFF7B0FB401B64284FF003003C
:100F5000F4D9D5E620F480303060306820F4802069
:100F60003060FFF7A1FB0546306880033FF563AEB4
:100F7000FFF79AFB401B6428F6D9032001B0F0BDAF
:100F800020F080003060FFF78FFB05463068C00519
:100F90007FF5DDAEFFF788FB401B02284FF0030012
:100FA000F4D9ADE6306820F080703060FFF77CFB4C
:100FB000022D05460CD100BF306880014CD5FFF7EB
:100FC00073FB401B02284FF00300F5D998E600BFE1
:100FD000306880017FF5FBAEFFF766FB401B0228FF
:100FE0004FF00300F4D98BE640F004003067306F17
:100FF00040F001001EE000BF20F001003067306FBC
:1010000020F004003067FFF74FFB054641F28837B8
:10101000306F80077FF5A5AEFFF746FB401BB84257
:101020004FF00300F4D96BE620F001003067306F19
:1010300020F004003067FFF737FB054641F28837A0
:10104000306F80073FF58DAEFFF72EFB401BB84297
:101050004FF00300F4D953E604F12807B06A40F2D8
:10106000F33188438ECF0843591E40EA02104FF4F3
:101070007E426FF35F21B06202EB47204FF4FE0225
:1010800080B2E36B0844A16B02EB01414FF0FE42DA
:1010900001F4FE0102EB0362084402F0FE41084441
:1010A0003063F06A4FF6F87120F00100F062706B67
:1010B000A26C884340EAC2007063F06A216C20F0A1
:1010C0000C000843F062F06A616C20F002000843F3
:1010D000F062F06A40F48030F062F06A40F4003070
:1010E000F062F06A40F48020F062F06A40F00100A3
:1010F000F062306840F080703060FFF7D5FA044647
:10110000306880013FF563AEFFF7CEFA001B02287E
:101110004FF00300F4D9F3E5F06A20F00100F0622B
:10112000FFF7C2FA0546FFF7BFFAA842FBD0706B83
:101130004FF6F871A26C884340EAC2007063F06A0F
:1011400040F00100F062002001B0F0BD000000009E
:10115000411E0020B0EB116F02D00120704700BF8C
:101160004EF21002F023CEF2000251604EF62351EF
:10117000CEF200010B7007219060116070470000F3
:1011800070470000000000007047000000000000F1
:10119000704700000000000090F83C20012A01D1B7
:1011A00002207047B0B5D1E9022323F47C5322F426
:1011B000705242EA030548F2FF73D1E900CECEF641
:1011C000F0730EEA030203F5006445EA020E0CEA2E
:1011D00004050C6903F5C05245EA0E0522402A4376
:1011E0004D692A4303F560550C6B03F5F0432A4023
:1011F00023401343026840F2004C42F48065C4F27D
:10120000010C8C69654540F2000CCEF6FF7CCD697F
:101210000CEA044443EA050343EA040318D14FF6F9
:10122000FF7540F2000CCDF60F458C6ACDF6F04C00
:1012300003EA050E0D6A0CEA04544B6A44EA0E04F4
:1012400025F0085523F000532543C96A2B430B436F
:101250005364002180F83C100020B0BD0000000065
:1012600090F83C20012A4FF0020266D0B0B580F819
:101270003D2040F2004C0268C4F2010C42F480634D
:1012800063455368D2F808E002BF23F470034C684A
:1012900023434DF6FF740D68C4F2000423F070037D
:1012A000A24243EA0503536014DC40F2FF73C4F228
:1012B00000039A4222DD40F60003C4F200039A4282
:1012C0002ED040F60043C4F200039A4228D041F6E3
:1012D000000321E04FF6FF73C4F200039A4213DDCE
:1012E0000023C4F201039A421AD044F20003C4F26C
:1012F00001039A4214D0624512D016E0B2F1804F39
:101300000ED040F2004307E04EF20003C4F20003A7
:101310009A4205D04EF20043C4F200039A4204D12F
:101320002EF080038968194391600022012180F822
:101330003D1080F83C20BDE8B040104670470000EA
:1013400060B310B5044690F83D0028B9002084F839
:101350003C00204600F024F8022084F83D0020687C
:10136000211D00F0D9FF012084F8480084F83E00D8
:1013700084F83F0084F8400084F8410084F842007B
:1013800084F8430084F8440084F8450084F846005B
:1013900084F8470084F83D00002010BD012070470C
:1013A00080B584B040F200410068C4F20001884278
:1013B00032D04EF20001C4F20001884214D0002164
:1013C000C4F20101884234D144F2E840C5F602007B
:1013D000816841F001018160806800F001000390A4
:1013E000039804B080BD00BF44F2E8400022C5F677
:1013F0000200416841F0807141604068002100F0C6
:10140000807001900198A120FFF7E6F9A12004B0B7
:10141000BDE88040FFF7CCB944F2E840C5F60200D1
:10142000016841F002010160006800F002000290D2
:10143000029804B080BD000090F83C20012A4FF0D3
:10144000020200F0AA8080B580F83D208822D0F802
:1014500000C0CFF6CE72DCF808301A40CCF8082075
:101460000B686F2B0EDDB3F1101F37DAB3F5005F99
:101470006EDA702B00F0B680B3F5805F00F08480E8
:10148000D8E000BF2F2B33DD4F2B39DC302B6FD052
:10149000402B40F0CF80D1F804E0C968DCF8203060
:1014A000DCF8202022F00102CCF82020DCF8182003
:1014B00022F0F00242EA011123F00A02CCF81810DF
:1014C00042EA0E01CCF820104FF68872DCF80810C2
:1014D000CFF6CF721140473154E000BF2F21C0F248
:1014E00010018B423ADCB3F1101F41D020213BE0C8
:1014F000002B18BF102B3BD0202B39D09AE000BF17
:10150000502B4DD0602B40F09580D1F804E0C96895
:10151000DCF82030DCF8202022F01002CCF820206B
:10152000DCF8182022F4704242EA013123F0A002D4
:10153000CCF8181042EA0E11CCF820104FF6887241
:10154000DCF80810CFF6CF72114067311AE000BF07
:101550005CD0B3F5801F0BD06CE000BF3021C0F22F
:1015600010018B4204D04021C0F210018B4261D1A6
:101570004FF68872DCF80810CFF6CF72114019438D
:1015800041F00701CCF808100022012180F83D103D
:10159000002180F83C10BDE880401046704700BF35
:1015A000D1F804E0C968DCF82030DCF8202022F013
:1015B0000102CCF82020DCF8182022F0F00242EAE8
:1015C000011123F00A02CCF8181042EA0E01CCF8FF
:1015D00020104FF68872DCF80810CFF6CF72114059
:1015E0005731CFE701F1040E9EE80C40DCF80810FB
:1015F0001A4321F47F4142EA0E221143CCF808102D
:10160000DCF8081041F07701BCE700BF01F1040EDF
:101610009EE80C40DCF808101A4321F47F4142EAAE
:101620000E221143CCF80810DCF8081041F4804178
:10163000A8E700BF0122A8E77047000000000000F3
:10164000F0B581B004460068C5680669B10717D5D2
:1016500015F0020114D06FF0020101610121217720
:101660008069800704D02046FFF7E6FF06E000BF50
:10167000204600F09DF8204600F02EFB0020207749
:10168000700719D515F0040016D020686FF004011A
:10169000016102212177806910F4407F04D0204647
:1016A000FFF7CAFF06E000BF204600F081F82046A1
:1016B00000F012FB00202077300717D515F0080046
:1016C00014D020686FF00801016104212177C069FE
:1016D000800703D02046FFF7AFFF05E0204600F06B
:1016E00067F8204600F0F8FA00202077F00619D5B8
:1016F00015F0100016D020686FF01001016108216C
:101700002177C06910F4407F04D02046FFF794FF92
:1017100006E000BF204600F04BF8204600F0DCFA5F
:1017200000202077F00718BF15F0010006D02068D0
:101730006FF001010161204600F0D2FA05F0800748
:1017400016F4025F18BF002F02D1F00509D410E093
:1017500020686FF4025101612046FFF715FDF00586
:1017600007D537B120686FF4807101612046FFF71B
:1017700007FD700609D515F0400006D020686FF00F
:1017800040010161204600F0AFFAB0060CD515F01B
:10179000200009D020686FF020010161204601B0CF
:1017A000BDE8F040FFF7F4BC01B0F0BD0000000060
:1017B000704700000000000090F83C30012B01D180
:1017C000022070474FEAB202052A00F223812DE978
:1017D000F041DFE812F00700BB0057009500310030
:1017E000F90000BF036843F6FF76C4F201061C6AE5
:1017F000B3421A6A24F0020422F001021A621A4665
:10180000D3F804C052F818EF8D6844EA0504D1F803
:10181000008040F3818144F20007C4F20107BB421B
:1018200000F0858144F60007C4F20107BB4200F0D6
:101830007E8144F2004776E1036843F6FF77C4F205
:101840000107D3F820C0BB421A6A22F480321A6220
:101850001A465C6852F8546F0D68D1F808E040F3FE
:10186000DF8044F20007C4F20107BB4200F0E380CE
:1018700044F60007C4F20107BB4200F0DC8044F2EA
:101880000047D4E0036840F2004E43F48067C4F29E
:10189000010E1C6A77451A6A24F4007422F48072DF
:1018A0001A621A465D6852F81CCF8E6844EA062414
:1018B00007D1CE6840F2FF47360224F44064BE43AD
:1018C000344343F6FF76D1F80080C4F20106B342F8
:1018D00040F3D28044F20007C4F20107BB4200F09B
:1018E000D28044F60007C4F20107BB4200F0CB806F
:1018F00044F20047C4F20107BB4200F0C480C9E0D3
:10190000036843F6FF77C4F20107D3F820C0BB4257
:101910001A6A22F480521A621A465C6852F81C6FE6
:101920000D68D1F808E040F3CD8044F20007C4F21E
:101930000107BB4200F0D18044F60007C4F2010762
:10194000BB4200F0CA8044F20047C2E0036840F2A4
:10195000004E43F48067C4F2010E1C6A77451A6A90
:1019600024F0200422F010021A621A465D6852F830
:1019700018CF8E6844EA061407D1CE686FF040078E
:1019800024F0C00407EA0616344343F6FF76D1F884
:101990000080C4F20106B34240F3E08044F2000745
:1019A000C4F20107BB4200F0E08044F60007C4F235
:1019B0000107BB4200F0D98044F20047C4F201079E
:1019C000BB4200F0D280D7E0036843F6FF77C4F251
:1019D0000107D3F820C0BB421A6A22F480121A62AF
:1019E0001A465C6852F8546F0D68D1F808E040F36D
:1019F000058144F20007C4F20107BB4200F00981EF
:101A000044F60007C4F20107BB4200F0028144F231
:101A10000047FAE00121002280F83C200846704788
:101A20000027C4F20107BB4205D040F20047C4F2D0
:101A30000107BB4204D14F6924F4803444EA0724EF
:101A40004FF68C775C60CFF6FE7703373E402CF480
:101A5000003746EA05045C654E6809699E6547EAF9
:101A60000E471F625F6D47F008075F655F6D27F0E7
:101A700004075F65EEE000BF0027C4F20107BB4228
:101A800001D0734506D1D1E90576374325F4405698
:101A900046EA07154FF68C775D60CFF6FE7707EACA
:101AA0000C0747EA0807DF614F680969DF631C62BA
:101AB000DF6947F00807DF61DF6927F00407DF61AE
:101AC000C8E000BF0027C4F20107BB4205D040F2C6
:101AD0000047C4F20107BB4204D14F6924F480449B
:101AE00044EA871448F6FF475C60CFF6FF673E4044
:101AF0002CF4005746EA0524DC614E6809691E642F
:101B000047EA0E371F62DF6947F40067DF61DF696C
:101B100027F48067DF619CE00027C4F20107BB4225
:101B200005D040F20047C4F20107BB4205D1CF689F
:101B300024F00C0427F004073C43B34234DD44F2A4
:101B40000006C4F20106B34239D044F60006C4F2DE
:101B50000106B34233D044F200462CE00027C4F221
:101B60000107BB4201D0734506D1D1E90576374361
:101B700025F4406646EA870548F6FF475D60CFF6E4
:101B8000FF6707EA0C0747EA08279F614F68096962
:101B90009F631C629F6947F400679F619F6927F4F8
:101BA00080679F6155E000BF0026C4F20106B34282
:101BB00005D040F20046C4F20106B34206D12CF42F
:101BC0004077D1E90565374347EA050C4FF68C7538
:101BD000C3F804C0CFF6FE750EEA050747EA08070A
:101BE0009F614F6809695F631C629F6947F008073E
:101BF0009F619F6927F004079F612BE00027C4F2D3
:101C00000107BB4205D040F20047C4F20107BB42C6
:101C100004D14F6924F4802444EA872448F6FF471E
:101C20005C60CFF6FF6707F540773E402CF4001765
:101C300046EA05245C654E680969DE6547EA0E5789
:101C40001F625F6D47F400675F655F6D27F4806713
:101C50005F6509021368194311600021BDE8F04176
:101C6000002280F83C200846704700000000000079
:101C700060B310B5044690F83D0028B9002084F800
:101C80003C00204600F024F8022084F83D00206843
:101C9000211D00F041FB012084F8480084F83E003B
:101CA00084F83F0084F8400084F8410084F8420042
:101CB00084F8430084F8440084F8450084F8460022
:101CC00084F8470084F83D00002010BD01207047D3
:101CD0007047000000000000704700000000000096
:101CE0007047000000000000704700000000000086
:101CF000FEE70000000000002DE9F04F87B044F23D
:101D0000E0400025C5F602000695CDE90455CDE971
:101D10000255016841F6000841F080010160016848
:101D2000C5F6020801F0800101910199016841F0B6
:101D3000040101600168A8F5805901F004010191D6
:101D40000199016841F0010101600168002201F080
:101D5000010101910199016841F0100101600168E0
:101D6000342401F0100101910199016841F0400112
:101D70000160016801F0400101910199016841F0A1
:101D8000020101600068342100F002000190019816
:101D90004846FEF781FCA8F5C0564FF400610022CA
:101DA0003046FEF779FC4FF41051012240464FF0C7
:101DB000010AFEF771FC4FF4004100224046FEF795
:101DC0006BFCA8F5A0571021002238464FF0100BED
:101DD000FEF762FCCDE9024A02AC48462146CDE955
:101DE0000455FEF785FB4FF400602146CDE9020A59
:101DF0003046CDE90455FEF77BFB4FF424402146E5
:101E0000CDE9020A4046CDE90455FEF771FB38469C
:101E10002146CDE902BACDE90455FEF769FB07B0CA
:101E2000BDE8F08F0000000070B5A2B001A8342119
:101E300000241B94CDE91944CDE91644CDE914449E
:101E4000CDE91244CDE91044CDE90E44FEF7C4FAC1
:101E500040F270000025C2F20040C4F20105C72123
:101E60000560C0E9011440F2E7314461C0E90314A0
:101E700080218161FFF764FA08B1FEF731FB4FF46E
:101E80008050189040F2700018A9C2F20040FFF78D
:101E9000D3FA08B1FEF724FB40F27000C2F2004012
:101EA000FFF7E6FE08B1FEF71BFB40F2700015A934
:101EB000C2F200400024CDE915441794FFF7D0F991
:101EC00008B1FEF70DFB60200E904FF4FA700EA9DA
:101ED000CDE90F0440F270000022C2F20040CDE9CB
:101EE0001144CDE91344FFF767FC08B1FEF7F8FA97
:101EF00040F270040026C2F200444FF40050CDE9D5
:101F000006064FF0007001A9CDE90A0620460596A5
:101F1000CDE90366CDE9016609960D96FFF73CF918
:101F200008B1FEF7DDFA40F200412068C4F200017A
:101F300021968842CDE91F66CDE91D6618D0A842DA
:101F400032D144F2E0404FF40072C5F6020001685D
:101F500041F010010160006800F010001C900020AA
:101F60001C99C5F60200012100F5805012E000BF67
:101F700044F2E0404022C5F60200016841F0010150
:101F800001600068022100F001001C901C980020F4
:101F9000C5F6020021911DA91D9202221E92002267
:101FA000CDE91F22FEF7A4FA22B070BD00000000A8
:101FB00080B588B040F2BC004EF20002C2F2004090
:101FC00000210791C4F20002CDE9051102910260DF
:101FD000C722C0E9012140F2E7328161C0E9032153
:101FE000FFF7AEF908B1FEF77BFA4FF4805004908A
:101FF00040F2BC0004A9C2F20040FFF71DFA08B18C
:10200000FEF76EFA00200190039040F2BC00C2F28D
:10201000004001A9FFF724F908B1FEF761FA08B002
:1020200080BD000000000000B0B594B040F2081080
:1020300040F20045C2F2004000210D91C4F20005BB
:10204000CDE90B11CDE90811CDE90611CDE9041157
:10205000CDE90211CDE900110560C722C0E90121D7
:1020600040F2E732C0E9032180218161FFF768F97E
:1020700008B1FEF735FA4FF480500A9040F208108C
:102080000AA9C2F20040FFF7D7F908B1FEF728FA13
:1020900040F20810C2F20040FFF7EAFD08B1FEF777
:1020A0001FFA40F2081007A9C2F20040002407946A
:1020B0000994FFF7D5F808B1FEF712FA60200090F6
:1020C0004FF4FA700494CDE9010440F20814694613
:1020D000C2F2004400222046FFF76EFB08B1FEF773
:1020E000FFF920680021A8421391CDE91111109148
:1020F0000F911BD00021C4F20101884232D144F279
:10210000E0404FF40072C5F60200016841F0100192
:102110000160006800F010000E9000200E99C5F6D6
:102120000200012100F5805012E000BF44F2E040BF
:102130004022C5F60200016841F00101016000681B
:10214000022100F001000E900E980020C5F602005A
:1021500013910FA90F92022210920022CDE91122B1
:10216000FEF7C6F914B0B0BDFEE7000000000000A5
:10217000FEE70000000000007047000000000000C3
:102180007047000000000000FEF796BA0000000053
:10219000B0B59CB044F6180409A84C21C5F6020459
:1021A000FEF71AF902200025CDE90755CDE90555BE
:1021B000CDE90355CDE90155FEF74EFB00952068AA
:1021C00040F440402060206800F4404000900098B7
:1021D0002068800409D4206880045CBF20685FEA1E
:1021E000804002D420688004F2D50120099020228A
:1021F0004FF48031CDE915200C20199009A80A91DF
:1022000002211491CDE91211CDE917110024CDE975
:102210001A44FEF705FD28B1EFF3108072B600BF37
:10222000FEE700BF3F20019003204FF48061CDE91D
:102230000204082004904020CDE90500CDE90710F4
:1022400001A80221FEF730FB20B1EFF3108072B637
:10225000FEE700BF1CB0B0BD4EF6885042F2000C45
:10226000CEF20000C5F2002C026842F47002026057
:10227000DCF8000000F00F00062806D8DCF80000AB
:10228000072262F30300CCF8000044F200404EF64F
:102290007F51C5F60200CEF6F621026842F0010237
:1022A000026000220261036819400160DCF800103E
:1022B000090706D5DCF80010072363F30301CCF807
:1022C000001040F200218261C261C0F2022102626C
:1022D00081620021C0F2FF11C16240F28021C0F290
:1022E0000111016342638163C26301644264016856
:1022F00021F480210160026644F20000C5F2002052
:1023000043F2D2010160704740F2BC00C2F20040CB
:10231000FFF796B90000000040F6FF32C4F2000259
:102320009042026810DCB0F1804F1ED040F20043B2
:10233000C4F20003984218D040F60003C4F2000330
:10234000984212D015E000BF40F60043C4F20003EB
:1023500098420AD040F20043C4F20103984204D0EC
:102360000023C4F20103984203D122F070024B68AB
:102370001A434EF2FF3343F6FF7CC4F20003C4F26B
:10238000010C984214DD60452CDC4EF20043C4F28F
:102390000003984243D00023C4F2010398423ED088
:1023A00040F20043C4F20103984238D03BE000BF42
:1023B00040F2FF73C4F20003984227DD40F60003A9
:1023C000C4F2000398422AD040F60043C4F200034E
:1023D000984224D04EF20003C4F2000398421ED06B
:1023E00021E000BF44F20003C4F20103984216D07A
:1023F00044F60003C4F20103984210D044F20043B3
:10240000C4F2010398420AD00DE000BFB0F1804F42
:1024100005D040F20043C4F20003984203D122F4F5
:102420004072CB681A4310B522F08002D1F800E068
:102430004C698B6822430260C3626045C0F828E0A3
:10244000BDE8104012DD44F20002C4F201029042E5
:1024500017D044F60002C4F20102904211D044F2B7
:102460000042C4F2010290420BD00CE00022C4F200
:102470000102904205D040F20042C4F201029042B3
:1024800001D109690163012141610169C90708BFDF
:102490007047016921F001010161704700000000EF
:1024A000FEE7000000000000FEF716F9FFF770FEDF
:1024B000FFF722FCFFF7B8FCFFF7B6FDFFF778FD4A
:1024C000FDF7F2FFFEE7F1EE100A4FF6FF71C0F2E2
:1024D000C03120EA010040F04070E1EE100A704780
:1024E00000000000010203040102030406070809BA
:1024F0001025000800000024100000003003000830
:1025000020250008100000244807000050030008A0
:1025100001000000100000000090D0030090D003E4
:04000005080002CD20
:00000001FF
