:020000040800F2
:10000000A8130024E9030008195A0008D14B00087E
:10001000B9540008C10D0008218F0008000000003D
:1000200000000000000000000000000071730008E4
:10003000710F0008000000001971000889740008A1
:100040000304000803040008030400080304000874
:100050000304000803040008030400080304000864
:100060000304000803040008030400080304000854
:100070000304000803040008030400080304000844
:100080000304000803040008030400080304000834
:100090000304000803040008030400080304000824
:1000A0000304000803040008030400080304000814
:1000B000030400083976000803040008030400085C
:1000C00003040008030400080304000803040008F4
:1000D00003040008030400080304000803040008E4
:1000E00003040008030400080000000003040008E3
:1000F00003040008030400080304000803040008C4
:1001000003040008030400080304000803040008B3
:1001100003040008030400080304000803040008A3
:100120000304000803040008030400080304000893
:100130000304000803040008030400080304000883
:1001400000000000000000000000000000000000AF
:100150000304000803040008030400080304000863
:100160000304000803040008030400080304000853
:100170000304000803040008030400080000000052
:100180000304000803040008030400080304000833
:100190000304000803040008030400080304000823
:1001A0000304000803040008030400080000000022
:1001B0000304000803040008030400080304000803
:1001C0000304000803040008000000000000000011
:1001D0000000000000000000030400080000000010
:1001E000000000000000000000000000000000000F
:1001F00000000000000000000304000803040008E1
:1002000003040008030400080000000003040008C1
:10021000097600080304000803040008030400082A
:1002200003040008000000000304000800000000B0
:100230000304000803040008000000000304000891
:100240000304000803040008030400080304000872
:100250000304000803040008030400080304000862
:100260000304000803040008030400080304000852
:100270000304000803040008030400080000000051
:100280000304000803040008030400080304000832
:100290000000000003040008030400080000000040
:1002A000000000000304000803040008D1770008E0
:1002B0000304000803040008030400080304000802
:1002C00003040008197600082976000800F002F8F7
:1002D00000F07BF814A696E8000CB244B344DA456B
:1002E00001D100F072F8BAE80F000FA696E83000CE
:1002F000A5EB040504EB0607AAEB0704A7F1010729
:100300004FEA15154FEA3414A4F10104AC4201D3AD
:1003100000F05BF813F0010F18BFFB1A43F0010364
:1003200000F001F8DBE71847ACB70000CCB70000DD
:100330000A444FF0000C10F8013B13F0070408BF0B
:1003400010F8014B1D1108BF10F8015B641E05D0A9
:1003500010F8016B641E01F8016BF9D113F0080F5E
:100360001EBF10F8014BAD1C0C1B09D16D1E58BFF0
:1003700001F801CBFAD505E014F8016B01F8016B27
:100380006D1EF9D59142D6D370470000704700002A
:100390000023002400250026103A28BF78C1FBD88E
:1003A000520728BF30C148BF0B6070471FB50AF025
:1003B0006DFE00F0F7FC0400002000210AF050FE62
:1003C000401C60601FBD10B510BD00F0BDFC1146A3
:1003D000FFF7ECFF09F044F800F0E8FC03B4FFF786
:1003E000F2FF03BC08F0A0FD094880470948004718
:1003F000FEE7FEE7FEE7FEE7FEE7FEE7FEE7FEE7D5
:10040000FEE7FEE704480549054A064B7047000031
:1004100059750008CD020008A80D0024A813002477
:10042000A80F0024A80F0024704753EA020C00F024
:1004300069802DE9F04B4FF00006002B1FBFB3FA87
:1004400083F503FA05F424FA05F65E4012BF16435D
:10045000B2FA82F502FA05F4C5F120051EBF22FAB0
:1004600005FC44EA0C04203556EA044C4FEA1444D7
:1004700018BF641C4FF000084FF00009904271EB68
:10048000030C39D3002919BFB1FA81F701FA07F635
:10049000B0FA80F700FA07F6C7F120071EBF20FA6E
:1004A00007FC46EA0C062037B6FBF4FCA7EB050771
:1004B000103F07F01F0BCBF120062CFA06F60CFAC2
:1004C0000BFB44BFB3460026202FA4BF5E464FF06F
:1004D000000B5BEA060C08BF4FF0010B19EB0B0990
:1004E00048EB0608ABFB027C06FB02CC0BFB03CC03
:1004F000C01B71EB0C01C1E70B4602464146484662
:10050000BDE8F08B13B5084318BF4FF0FF3001462C
:10051000AFF30080BDE81C40704700000FB400B589
:100520008DB010A9099000910B904FF0FF300A9008
:1005300000200C90064878440690064878446A46A5
:1005400007900F9909A800F0D1F90DB05DF814FBE0
:10055000D3030000EB0300002DE9FF5F1D464FF0C1
:10056000FF3B91464FF000085F46D5E90146A96977
:1005700001987F1C8847296A824688470028F6D15F
:10058000BAF1FF3F0CD0002E24F4C06419DD6006E0
:1005900014D5BAF12B0F09D0BAF12D0F0ED103E00B
:1005A000584604B0BDE8F09F44F48064A9690198FE
:1005B0007F1C8847761E8246002E02DDBAF1300F7E
:1005C00003D0B9F1000F26D032E0A969761E019858
:1005D0007F1C44F400748847002E824605DDBAF182
:1005E000780F06D0BAF1580F03D0B9F1000F10D030
:1005F0001EE0B9F1000F02D0B9F1100F18D1A969AE
:10060000761E01987F1C24F40074884782461020CF
:1006100002E0082000E00A20814609E0A96908FB01
:100620000908761E01987F1C44F4007488478246AE
:10063000002E05DD4946504600F043F90028EDDA6A
:10064000E96901988847A00502D46FF00100A8E786
:10065000E00725D1600613D5600502D5C8F100007A
:1006600000E0404629680A1D2A600968220501D574
:10067000087015E0220701D5088011E008600FE03E
:100680002868011D29600068210502D580F80080D6
:1006900006E0210702D5A0F8008001E0C0F8008044
:1006A00038467EE7401ECAB210F8011F8A4202D0C7
:1006B0000029F9D10020704740EA010370B59B077B
:1006C0002ED14FF00136042A2AD308C810C99D1B29
:1006D0009D43121F15EAC61517D0D8B2E1B2401AD1
:1006E00050EA056110D198B2A1B2401A50EA054112
:1006F0000AD123F07F4024F07F41401A50EA0521BF
:1007000002D1180EA0EB146070BDA342DBD018BA62
:1007100021BA884201D9012070BD4FF0FF3070BD71
:100720000AB9002070BD10F8013B11F8014B63B10C
:10073000A3420AD1521E08D010F8013B11F8014B18
:100740001BB1A34201D1521EEDD1181B70BD032A6B
:1007500040F2308010F0030C00F0158011F8013BDE
:10076000BCF1020F624498BF11F801CB00F8013BC5
:1007700038BF11F8013BA2F1040298BF00F801CB89
:1007800038BF00F8013B11F0030300F0DF80083AA6
:10079000C0F0088051F8043B083A51F804CBA0E8B7
:1007A0000810F5E7121D5CBF51F8043B40F8043B0C
:1007B000AFF30080D20724BF11F8013B11F801CB41
:1007C00048BF11F8012B24BF00F8013B00F801CB12
:1007D00048BF00F8012B70474FF0000200B51346E8
:1007E00094469646203922BFA0E80C50A0E80C5051
:1007F000B1F12001BFF4F7AF090728BFA0E80C5002
:1008000048BF0CC05DF804EB890028BF40F8042BFA
:1008100008BF704748BF20F8022B11F0804F18BF67
:1008200000F8012B7047000030B44FF0013C50F845
:10083000042BCCFA52F451F8043BD51A20D1FCB960
:1008400050F8042BCCFA52F451F8043BD51A17D1C6
:10085000B4B950F8042BCCFA52F451F8043BD51A31
:100860000ED16CB950F8042BCCFA52F451F8043B79
:10087000D51A05D1002CDAD030BC4FF000007047FB
:1008800029BAB1FA81F111F01801D1F120008440A8
:10089000F2D1CA40CB4012F0FF0213F0FF0330BC8C
:1008A000D01A7047704770477047704710B500F016
:1008B0007FF8006810BD10B5044600F079F80460B8
:1008C00010BD3A2800D2303820F02002412A01D34E
:1008D000A2F13700884201D34FF0FF30704700008B
:1008E000026811441378016018467047D1600549C9
:1008F0007944516104497944116200211161114622
:1009000000F064B8EDFFFFFFBF000000426842B195
:10091000016811F8013B23B1521EC0E900121846CC
:1009200070470121C160881E704742685AB1C36890
:10093000016843B983688B4205D0491E521CC0E947
:100940000012002070474FF0FF30704710B5203A7A
:10095000C0F00B80B1E81850A0E81850B1E818506A
:10096000A0E81850203ABFF4F5AF5FEA027C24BF3C
:10097000B1E81850A0E8185044BF18C918C0BDE825
:1009800010405FEA827C24BF51F8043B40F8043BEE
:1009900008BF7047D20728BF31F8023B48BF11F8A3
:1009A000012B28BF20F8023B48BF00F8012B7047FD
:1009B000004870476001002410B5044600F0EAF9D1
:1009C0000068005D00F0010010BD00002DE9F34F4C
:1009D0004FF0000A0C4656468DB001200C9001F1F4
:1009E0000C000B9062690B9801219047051E2DD0D9
:1009F000252D2CD0216A8847C0B162690B9801214E
:100A00009047216A88470028F7D16269411E0B98F8
:100A1000904700E0761CA1690D988847216A8847B5
:100A20000028F7D1E1690D988847DBE7A1690D98A7
:100A30008847A842074601D1761CD3E7E1690D98A3
:100A400088477F1C02D1BAF1000F6FD06BE1626959
:100A50000B9800273D46394690472A2804D1626901
:100A60000B98012190470125DFF8D08262690B982D
:100A700001219047A0F130010A290AD24745E5DC5F
:100A800007EB870100EB4107303FDFD445F010054D
:100A9000ECE7E90601D46FF000476C280AD04C2837
:100AA00014D0682815D06A280DD074281CD07A2854
:100AB0001AD01DE062690B98012190476C2802D082
:100AC00045F0040514E045F002050DE045F0200571
:100AD0000AE062690B9801219047682802D045F02E
:100AE000080505E045F4006562690B98012190470F
:100AF000C4E9015765283DD019DC58287AD00CDCB0
:100B0000452837D004DC252826D041289ED131E065
:100B100046282FD0472899D12CE05B2877D0612830
:100B200028D063287CD0642823D15AE0F6E06F28CF
:100B300048D008DC66281DD067281BD0692821D042
:100B40006E2816D127E0702845D0732868D0752804
:100B500047D078280DD14DE0A1690D988847252808
:100B600005463FF469AFE1690D9888476D1C3FF475
:100B70006AAFD8E00D9923466A466FF00100AFF3E3
:100B80000080C5E045F0400023464FF00002606061
:100B9000A80736D43EE0E8077FF447AF2068011D80
:100BA00021600068290501D506701BE7290701D5DA
:100BB000068017E7A90703D5F117C0E9006111E71F
:100BC00006600FE745F0400023464FF008026060E2
:100BD000A80716D41EE040F60E0125EA0100606069
:100BE00016E045F0400023464FF00A026060A80777
:100BF00007D40FE045F040006060A80708D5234601
:100C000010220D996FF00100AFF3008080E007E043
:100C1000102223460D996FF00100FFF79DFC77E04D
:100C20004FF0000963284F46C8464B46CB4602D0DA
:100C30005B2806D038E0E80601D40120A060012737
:100C400032E06269D4F80CB00B98012190475E281D
:100C500007D14FF0010949466269D4F80CB00B98EE
:100C60009047216939B900210A4603AB43F8212096
:100C7000491C0829FADBD8B3216949B308F10108F6
:100C800062690B98012190475D28F4D1B9F1000FFA
:100C900009D0002003A951F82020D24341F8202098
:100CA000401C0828F7DB03AB2069002820794FEAB5
:100CB00040701ED05B462246CDF80080CDE90197FA
:100CC0000D9900286FF0010020DAAFF300801FE0DB
:100CD000C11703AA00EBD1614B1121F01F0102EBF8
:100CE0008302411A13680120884003431360C7E759
:100CF00019E00D99224600286FF00100009702DAF2
:100D0000AFF3008004E0AFF3008001E0AFF30080B8
:100D100000280ADA401C06D10C9820B14FF0FF30B1
:100D20000FB0BDE8F08F5046FAE7E90701D10AF1AC
:100D3000010A064400200C9054E60000CCCCCC0CF8
:100D400000487047600100247546FFF7F9FFAE4682
:100D500005006946534620F00700854618B020B5C7
:100D6000FFF750FBBDE820404FF000064FF00007B2
:100D70004FF000084FF0000BAC46ACE8C009ACE8FF
:100D8000C009ACE8C009ACE8C00921F007018D46F4
:100D90007047000010B500F005F8001D10BD00BF41
:100DA000C1A20000004870478001002410B504462D
:100DB000AFF300802046BDE81040FFF70FBB0000F6
:100DC000FEE700000000000070B52DED048B0D461D
:100DD000002948BF4D420446012D05D8002020605F
:100DE000BDEC048B70BD00BFE26A954216D9A06AC3
:100DF000854217D92A1AC0F5C87000EE102A01EEF4
:100E0000100AB8EE400AB8EE411A80EE010AB0EEC0
:100E1000001AB1EEC00AA0EE011A1BE0B6EE001AED
:100E200018E000BFAB1A801A00EE103A01EE100A6B
:100E3000F0EE080A0E46B8EE400AB8EE411A80EE0F
:100E4000010A09F093FDB7EE082AB6EE001A314602
:100E5000A0EE021A00EE101A9FED342AB7EE088AAF
:100E6000B8EE084A9FED323AB8EEC00A9FED319ACB
:100E700021EE000A20EE020ABDEEC00A10EE100AB2
:100E800000EE105AC828B8EE400AA8BFC82084ED6A
:100E9000091A81EE041A10F1C80F80EE030AD8BFB8
:100EA0006FF0C70071EE080A206094ED022AB8EED8
:100EB000422AA2EE089AB7EE002A80FE420A09F002
:100EC00055FD9FED1D1A42F21070A9EE001ABCEEFE
:100ED000C10A10EE101A81420DD394ED021AB8EE39
:100EE000400AB8EE411A21EE081A81FE400ABCEE13
:100EF000C00A10EE100A606040F20800C2F2004022
:100F0000016862682069B1FBF2F103680139D962B6
:100F1000C1600121E17702F01BFBD4E90401BDECC3
:100F2000048BBDE8704002F0F7BF00BF9A99993F6B
:100F300000008C4300401CC600401C46000000001E
:100F40004EF6FC50CEF20000016841F08071016065
:100F500041F200000021CEF200004160016841F042
:100F6000010101604068B0FA80F04009704700005C
:100F7000704700000000000041F6802241F20401A9
:100F8000C0F20602CEF2000150430A680B689B1AB9
:100F900083420BD20B689B1A83423EBF0B689B1A9D
:100FA000834203D20B689B1A8342EFD37047000041
:100FB00041F204014FF4C872CEF2000150430A68B6
:100FC0000B689B1A83420BD20B689B1A83423EBF6D
:100FD0000B689B1A834203D20B689B1A8342EFD3A0
:100FE0007047000000000000EFF3108072B600BFF1
:100FF000FEE70000000000002DE9F041044600F08B
:10100000CFFC1CB3054694F83500022822D140F2EB
:101010000F472668C4F2020740F26F48BE426FF0E5
:101020000E00C4F202081DDC6F21C4F202018E42E0
:101030002ADC3F21C4F202018E4241DC1021C4F2BD
:1010400002018E4263D028215CE000BF0120BDE890
:10105000F08100BF802060650120002184F83410F9
:10106000BDE8F08146451BDC40F23F41C4F202017D
:101070008E422DDC40F21041C4F202018E4246D075
:1010800040F228413EE000BF9F21C4F202018E429F
:1010900028DC7021C4F202018E4238D0882131E070
:1010A00040F29F41C4F202018E4223DC40F27041C3
:1010B000C4F202018E422AD040F2884122E000BFF1
:1010C0004021C4F202018E4221D058211AE000BF13
:1010D00040F24041C4F202018E4218D040F2584121
:1010E00010E000BFA021C4F202018E420FD0B8214F
:1010F00008E000BF40F2B841C4F202018E4206D0BF
:1011000040F2A041C4F202018E42314607D131467D
:10111000306820F01E0041F8140B6FF080000A6860
:10112000464500EA020008601ADC9F20C4F2020073
:10113000864233DC5720C4F2020086425ADC10207B
:10114000C4F20200864200F097802820C4F2020018
:10115000864200F091804020C4F202008AE000BF85
:1011600045F22F40C5F6020086422DDC40F2B74022
:10117000C4F2020086424BDC40F27040C4F202002E
:10118000864279D040F28840C4F20200864273D091
:1011900040F2A040C4F202006CE000BF40F22740E1
:1011A000C4F20200864243DCA020C4F20200864260
:1011B00062D0B820C4F2020086425DD040F21040F6
:1011C000C4F2020056E000BF45F26B40C5F60200D3
:1011D00086423FDC45F23040C5F6020086424BD0E5
:1011E00045F24440C5F60200864245D045F25840DB
:1011F0003EE000BF5820C4F2020086423CD070207E
:10120000C4F20200864237D08820C4F2020031E0E6
:1012100040F2B840C4F2020086422DD045F20840A8
:10122000C5F60200864227D045F21C4020E000BFF0
:1012300040F22840C4F2020086421DD040F24040F5
:10124000C4F20200864217D040F25840C4F20200B5
:1012500010E000BF45F26C40C5F6020086420BD09C
:1012600045F29440C5F60200864205D045F2804022
:10127000C5F60200864204D1206E016821F4807117
:101280000160306820F00100306000BF3068C007A6
:1012900010D000F085FB401B0628F7D320206065A6
:1012A000032084F835000120002184F83410BDE8C3
:1012B000F08100BF20680821B8424FF03F0211DCE6
:1012C0006F23C4F2020398421EDC3F23C4F20203E0
:1012D000984235DC1023C4F20203984257D02823E9
:1012E00050E000BF40451BDC40F23F43C4F2020324
:1012F00098422DDC40F21043C4F20203984246D0DB
:1013000040F228433EE000BF9F23C4F2020398420C
:1013100028DC7023C4F20203984238D0882331E0DD
:1013200040F29F43C4F20203984223DC40F2704330
:10133000C4F2020398422AD040F2884322E000BF60
:101340004023C4F20203984221D058231AE000BF80
:1013500040F24043C4F20203984218D040F258438E
:1013600010E000BFA023C4F2020398420FD0B823BC
:1013700008E000BF40F2A043C4F20203984206D046
:1013800040F2B843C4F20203984240F0C580D4E969
:10139000163707F01F07404502FA07F25A5019DCCA
:1013A0009F21C4F20201884232DC5721C4F20201BB
:1013B000884259DC1021C4F20201884200F0968074
:1013C0002821C4F20201884200F090804021C4F23A
:1013D000020189E045F22F41C5F6020188422DDC69
:1013E00040F2B741C4F2020188424BDC40F2704146
:1013F000C4F20201884279D040F28841C4F202016D
:10140000884273D040F2A041C4F202016CE000BFF8
:1014100040F22741C4F20201884243DCA021C4F219
:101420000201884262D0B821C4F2020188425DD034
:1014300040F21041C4F2020156E000BF45F26B4198
:10144000C5F6020188423FDC45F23041C5F6020193
:1014500088424BD045F24441C5F60201884245D04E
:1014600045F258413EE000BF5821C4F202018842D3
:101470003CD07021C4F20201884237D08821C4F2E6
:10148000020131E040F2B841C4F2020188422DD09D
:1014900045F20841C5F60201884227D045F21C41B9
:1014A00020E000BF40F22841C4F2020188421DD072
:1014B00040F24041C4F20201884217D040F2584144
:1014C000C4F2020110E000BF45F26C41C5F6020112
:1014D00088420BD045F29441C5F60201884205D0FE
:1014E00045F28041C5F6020188420BD1616EA26EC1
:1014F000E06E4A6030B1016821F480710160D4E986
:101500001C014160012084F835000020002184F88E
:101510003410BDE8F08100BF0421012237E700004C
:10152000F0B190F83510022918D180B540F20F4281
:101530000168C4F20202914214DC6F23C4F2020378
:10154000994225DC3F23C4F2020399423CDC10237C
:10155000C4F2020399425DD0282357E080214165FF
:101560000120704740F26F43C4F2020399421BDC32
:1015700040F23F43C4F2020399422DDC40F2104393
:10158000C4F20203994245D040F228433EE000BF36
:101590009F23C4F20203994228DC7023C4F20203A1
:1015A000994237D0882331E040F29F43C4F20203CE
:1015B000994223DC40F27043C4F20203994229D0DD
:1015C00040F2884322E000BF4023C4F20203994264
:1015D00020D058231AE000BF40F24043C4F2020377
:1015E000994217D040F2584310E000BFA023C4F244
:1015F000020399420ED0B82308E000BF40F2B8437E
:10160000C4F20203994205D040F2A043C4F202039F
:10161000994275D191424FF0040280F8352011DCD7
:101620006F20C4F20200814222DC3F20C4F202009B
:10163000814239DC1020C4F20200814259D02820B6
:1016400054E000BF40F26F40C4F2020081421BDC54
:1016500040F23F40C4F2020081422DDC40F21040D3
:10166000C4F20200814244D040F228403EE000BF74
:101670009F20C4F20200814228DC7020C4F20200E4
:10168000814236D0882031E040F29F40C4F202000F
:10169000814223DC40F27040C4F20200814228D033
:1016A00040F2884022E000BF4020C4F202008142A4
:1016B0001FD058201AE000BF40F24040C4F20200A0
:1016C000814216D040F2584010E000BFA020C4F282
:1016D000020081420DD0B82008E000BF40F2B840BF
:1016E000C4F20200814204D040F2A040C4F20200E1
:1016F0008142086820F001000860002080BD00BF22
:101700000A6822F00E020A6045F25742C5F602024C
:1017100091420A6822F001020A600FDC45F22F4272
:10172000C5F60202914219DC45F20842C5F60202F2
:10173000914229D045F21C4222E000BF45F27F428F
:10174000C5F60202914213DC45F25842C5F6020288
:10175000914219D045F26C4212E000BF45F230428E
:10176000C5F6020291420FD045F2444208E000BFA4
:1017700045F29442C5F60202914205D045F28042FC
:10178000C5F6020291421AD1D0E9181CD0E916E33D
:101790000A6822F480720A6003F01F01012202FA33
:1017A00001F1CEF80410816ECCF80410C16E31B195
:1017B0000A6822F480720A60D0E91C124A60012192
:1017C00080F83510016D0022002980F8342094D073
:1017D0008847002080BD00002DE9F04F83B00F68DE
:1017E000002F00F0C98000F1264642F2004506F1C4
:1017F000FF76C5F602050A22A8424FEAB62540F256
:10180000040C08BF092200F120030093082DC5F63F
:10181000000C38BF4FEAB622002400264FF0000823
:1018200001920AE008F101080F6837FA08F206F1A0
:10183000020604F1040400F09F80012202FA08FE6F
:1018400017EA0E09EED0D1F804B003220BF003071B
:10185000B2407D1E6FEA020A012D11D88268CD6860
:1018600002EA0A02B5402A438260CBF300154268BF
:1018700022EA0E0205FA08F52A43426004E000BF9E
:10188000032F01D103271FE0C2688D6802EA0A0214
:10189000B540022F42EA0502C26015D16FF0030283
:1018A00004F01C0502EA580B009A0F2352F80BE0D3
:1018B000AB400F692EEA0303AF403B4342F80B30C5
:1018C000D1F804B00BF00307026807FA06F302EA46
:1018D0000A021BF4403F42EA03020260A2D044F233
:1018E000F44340F2084EC5F60203C5F6000E0F257C
:1018F0001A6842F002021A601A6802F002020292AA
:1019000028F00302029B04F00C0352F80E709D4075
:10191000AF43019D05FA03F33B4342F80E304FF00D
:10192000B04EDEF800204B6842EA0907DD0258BFDE
:1019300022EA09079D02CEF80070DCF8002042EA96
:10194000090758BF22EA09079D03CCF80070DCF8AC
:10195000802042EA090758BF22EA0907DB03CCF8D6
:101960008070DCF87C2042EA090758BF22EA0907A8
:10197000CCF87C7056E700BF03B0BDE8F08F0000E4
:101980000069084018BF01207047000000000000F7
:10199000002A08BF090481617047000000000000B0
:1019A00040F6A050C2F200400068704700000000FE
:1019B00040F2000040F6A051C2F20040C2F20041E5
:1019C00000780A68104408607047000000000000BA
:1019D00080B5032000F0ACF801F012F944F2184190
:1019E0004BF20823C5F60201C0F600030A68C2F3F1
:1019F00003229A5C096801F00F0102F01F02595C92
:101A0000D04040F20C02C2F2004201F01F0120FA65
:101A100001F1116040F20801C2F2004108600F209C
:101A200000F00AF800281CBF012080BD00F02CF84F
:101A3000002080BD00000000B0B540F20005C2F2F9
:101A400000452978F1B1044640F20800C2F2004096
:101A50004FF47A72B2FBF1F10068B0FBF1F001F0E3
:101A6000F7FB0F2C01464FF001000AD8002918BFE0
:101A7000B0BD4FF0FF300022214600F029F80020D1
:101A80006C60B0BD0120B0BD81B044F2F440C5F639
:101A90000200016841F002010160006800F00200EC
:101AA0000090009801B07047002848BF704700F0D0
:101AB0001F01012202FA01F14EF20012C0F34A1096
:101AC000CEF2000242F82010704700000000000033
:101AD00070B54EF60C5C4FF0FF36CEF2000C00F104
:101AE000604505F56445DCF80030C3F3022E8EF046
:101AF0000703042B28BF0423BEF1030406FA03F3F3
:101B000021EA030100F00F0338BF0024043B002842
:101B1000634406FA04F048BF03F10C05A14022EA31
:101B2000000008430001287070BD000000000000A4
:101B30004EF60C514FF6FF03CEF200010A681A4030
:101B400060F30A2242F0806040F0FD700860704748
:101B5000B0B544F60C05C5F60205296849072968A1
:101B600006D401F00701081A18BF0120B0BD00BF5C
:101B700021F0070108432860FFF712FF044600BF69
:101B800055F8080C800407D4FFF70AFF001BB0F5D6
:101B90007A7FF5D90120B0BD0020B0BD0000000063
:101BA00080B500F0A5FF44F220414BF20822C5F6B3
:101BB0000201C0F600020968C1F30211515C01F094
:101BC0001F01C84080BD000080B544F2384EC5F604
:101BD000020E5EF8103C5EF8101C5EF80C2CC1F38F
:101BE000053CDEF80410BCF1000F19D0C9089FEDC8
:101BF0003C1AD20601EAE27103F003026FF35F318F
:101C000000EE101AB8EE400ADFE802F002221022BD
:101C10005EF8381C89060DD49FED331A18E000BF1A
:101C200000218160C0E9001180BD00BF9FED2D1A29
:101C30000EE000BF5EF8381C49F20002C0F2D0325C
:101C4000C1F3C10122FA01F101EE101AB8EE411AF6
:101C5000DEF800109FED253A6FF35F2102EE101AB7
:101C6000DEF80010C1F34621B8EE422A013100EE41
:101C7000032A00EE10CAB7EE003AB8EE400A81EE31
:101C8000000A32EE031A20EE010A01EE101AB8EE35
:101C9000411A80EE011ABCEEC11A80ED001ADEF87E
:101CA0000010C1F30641013101EE101AB8EE411ADD
:101CB00080EE011ABCEEC11A80ED011ADEF80010A8
:101CC000C1F30661013101EE101AB8EE411A80EE3F
:101CD000010ABCEEC00A10EE101A816080BD00BF80
:101CE0000024744A20BCBE4B0024744C0000003910
:101CF00080B544F2404EC5F6020E5EF8183C5EF820
:101D0000181C5EF8142CC1F3055CDEF80410BCF15D
:101D1000000F19D0C9089FED3C1AD20501EAE27103
:101D200003F003026FF35F3100EE101AB8EE400AC1
:101D3000DFE802F0022210225EF8401C89060DD472
:101D40009FED331A18E000BF00218160C0E9001147
:101D500080BD00BF9FED2D1A0EE000BF5EF8401C55
:101D600049F20002C0F2D032C1F3C10122FA01F1FE
:101D700001EE101AB8EE411ADEF800109FED253A78
:101D80006FF35F2102EE101ADEF80010C1F3462156
:101D9000B8EE422A013100EE032A00EE10CAB7EE77
:101DA000003AB8EE400A81EE000A32EE031A20EE45
:101DB000010A01EE101AB8EE411A80EE011ABCEECB
:101DC000C11A80ED001ADEF80010C1F3064101319E
:101DD00001EE101AB8EE411A80EE011ABCEEC11ADB
:101DE00080ED011ADEF80010C1F30661013101EE49
:101DF000101AB8EE411A80EE010ABCEEC00A10EECD
:101E0000101A816080BD00BF0024744A20BCBE4B04
:101E10000024744C000000392DE9F0470446C078D6
:101E200044F22C480007C5F6020828D5606E4FEA38
:101E3000305103292AD8DFE801F0030B131B00BF40
:101E4000D8F8001041F40031C8F8001010E000BFCD
:101E500004F10800022105F063F9064680B906E0A6
:101E600004F12800022105F0EFF9064640B9606E42
:101E7000D8F8241021F440110843C8F824000026A3
:101E80006078C00706D135462FE000BF0126607894
:101E9000C007F8D0A06D04283ED83546DFE800F032
:101EA00004140E0B0B0000BFD8F80000354640F4B8
:101EB0000030C8F800002F46C5B90DE004F1280035
:101EC000002105F0C1F904E004F10800002105F04B
:101ED00027F905462F464DB9D8F82400A16D20F00A
:101EE000070000250843C8F82400374660784007FB
:101EF0003AD5D4F8A4004FEA7050052818D8DFE886
:101F000000F0031D11232323D8F8000040F4003013
:101F1000C8F8000018E000BF0125012760784007DD
:101F2000E7D421E004F12800002105F08DF90AE052
:101F300001250126607800071AD44FE004F108005B
:101F4000002105F0EDF805462E461DB1607800072A
:101F50000ED443E0D8F82C00D4F8A41020F460008C
:101F600000250843C8F82C003E466078000735D5A8
:101F7000D4F8A8004FEA3060052813D8DFE800F055
:101F800004180C1E1E1E00BFD8F8000040F40030DC
:101F9000C8F8000012E000BF04F12800002105F09D
:101FA00053F90AE001250127E07880071AD434E0CC
:101FB00004F10800002105F0B3F805462F461DB1D5
:101FC000E07880070ED428E0D8F82C00D4F8A810C8
:101FD00020F0E06000250843C8F82C003746E07880
:101FE00080071AD5E06C4FEA3010032838D8DFE8B4
:101FF00000F009032D0900BFD8F8000040F40030BC
:10200000C8F800002E464DB9D8F82000E16C20F049
:10201000300000250843C8F820003E466078C0061E
:1020200039D5E06D4FEA3030042847D8DFE800F0BA
:1020300004221C0A0A0000BFD8F8000040F4003057
:10204000C8F800002F463DBB1CE000BF04F10800AB
:10205000022105F065F80546002D2E46DED1D3E7B6
:1020600001250126DAE700BF04F12800002105F070
:10207000EBF804E004F10800002105F051F80546F2
:102080002F464DB9D8F82400E16D20F4E04000253A
:102090000843C8F8240037466078800635D5206E9E
:1020A0004FEA3040052815D8DFE800F0041A0E0486
:1020B000040400BF2E46DDB91EE000BF0125012744
:1020C00060788006EBD420E004F12800012105F0BF
:1020D000BBF80AE0012501266078400619D449E0E2
:1020E00004F10800012105F01BF805462E461DB13C
:1020F000607840060DD43DE0D8F82400216E20F42D
:10210000E02000250843C8F824003E4660784006D9
:1021100030D5D4F8AC004FEA307005280ED8DFE88F
:1021200000F00313070303032F46ADB918E000BF07
:1021300004F12800012105F087F80AE001250127B4
:10214000607800061AD43CE004F10800012104F094
:10215000E7FF05462F461DB1607800060ED430E03B
:10216000D8F82C00D4F8AC1020F0E040002508434B
:10217000C8F82C0037466078000622D5E06E58B1CA
:10218000B0F1005F0CD0B0F1805F37D1D8F800001B
:1021900040F40030C8F800002E469DB908E000BFAA
:1021A00004F10800012104F0BBFF05462E464DB99D
:1021B000D8F82400E16E20F0405000250843C8F80C
:1021C00024003E46E078C0071DD0A06C032855D8F7
:1021D000DFE800F008024A08D8F8000040F40030B8
:1021E000C8F80000A9467DB9D8F82000A16C20F0FD
:1021F000030000250843C8F8200004E0012501265B
:10220000E078C007E1D1B146A078400602D44F463D
:1022100018E000BFD8F8D40340F48070C8F8D403A5
:10222000FFF7BEFB064600BFD8F8D403C00507D4AD
:10223000FFF7B6FB801B6428F6D90325032701E0CE
:102240002F46FDB12078C00700F06F80A06F4FEAE5
:10225000F00005284ED8DFE800F0035347030303DE
:10226000002D2E4654D157E004F10800022104F05D
:1022700057FF0546002DA946C6D1B5E701254FF009
:102280000109C1E7D8F84410D4F8B000414011F476
:10229000407F11D0D8F84410D8F8442042F480325E
:1022A000C8F84420D8F8442021F4407122F4803248
:1022B000C8F84420C8F84410B0F5807F40F0D082C0
:1022C000FFF76EFB064641F2883A0325032700BF5D
:1022D000D8F84400800700F1C182FFF761FB801B42
:1022E0005045F5D9AEE700BF04F12800012104F004
:1022F000ABFF0AE0012501262078800719D446E0CB
:1023000004F10800012104F00BFF05462E461DB123
:10231000207880070DD43AE0D8F82800A16F20F08B
:10232000380000250843C8F828003E46207880077A
:102330002DD5606F05280FD8DFE800F004140804DD
:10234000040400BF2F46ADB918E000BF04F1280017
:10235000012104F079FF0AE00125012720784007D8
:1023600019D447E004F10800012104F0D9FE054624
:102370002F461DB1207840070DD43BE0D8F8280047
:10238000616F20F0070000250843C8F82800374691
:10239000207840072ED5D4F8900005280ED8DFE825
:1023A00000F00313070303032E46ADB918E000BF86
:1023B00004F12800012104F047FF0AE0012501266D
:1023C000207880061AD44BE004F10800012104F0C3
:1023D000A7FE05462E461DB1207880060ED43FE0AC
:1023E000D8F82C00D4F8901020F0070000250843FE
:1023F000C8F82C003E462078800631D5D4F88C00F1
:102400004FEA307005280FD8DFE800F00414080404
:10241000040400BF2F46ADB918E000BF04F1280046
:10242000022104F011FF0AE001250127207840066F
:102430001AD44BE004F10800002104F071FE0546B7
:102440002F461DB1207840060ED43FE0D8F8280072
:10245000D4F88C1020F0E04000250843C8F828008C
:1024600037462078400631D5D4F898004FEAB0209E
:1024700005280FD8DFE800F004140804040400BFA6
:102480002E46ADB918E000BF04F12800022104F087
:10249000DBFE0AE001250126207800061AD44EE072
:1024A00004F10800002104F03BFE05462E461DB154
:1024B000207800060ED442E0D8F82C00D4F898100A
:1024C00020F4E05000250843C8F82C003E46207850
:1024D000000634D5D4F89C004FEA7030052815D892
:1024E000DFE800F0041A0E04040400BF2F46E5B133
:1024F0002068010727D4C1063ED4000355D477E0F5
:1025000004F12800022104F09FFE0AE001250127C2
:1025100020680107EFD516E004F10800002104F05F
:10252000FFFD0546002D2F46E2D1D8F82C00D4F847
:102530009C1020F4604000250843C8F82C00374662
:1025400020680107D7D5D4F88000B0F5805F09D1A5
:1025500004F12800022104F077FE002818BF0127AB
:10256000D4F88000D8F8281021F440510843C8F866
:1025700028002068C106C0D5D4F89400B0F5807F4B
:1025800009D104F12800022104F05EFE002818BFE2
:102590000127D4F89400D8F82C1021F44071084396
:1025A000C8F82C002068000322D5D4F8A000B0F5AC
:1025B000003F11D0B0F5803F08D0002844D104F18D
:1025C0000800002104F0ACFD05E000BF04F1280084
:1025D000022104F039FE05462E4655B9D8F82C00E4
:1025E000D4F8A01020F4403000250843C8F82C008F
:1025F0003E46A07840072CD5D4F88400B0F5401FA3
:102600000BD0B0F5001F0BD0B0F5801F2AD1D8F841
:10261000000040F40030C8F800002F46D5B907E0AC
:1026200004F12800012104F00FFE05462F468DB964
:10263000D8F82800D4F8841020F44010002508436E
:10264000C8F8280005E000BF01250126A078400752
:10265000D2D43746A078C00709D13E462168880009
:1026600015D532E001250127A078C007F5D0206DEF
:10267000B0F5803F10D018BBD8F8000040F400300F
:10268000C8F800002E4685B1216888001DD4606816
:102690008A0326D465E000BF04F10800022104F09B
:1026A0003FFD0546002D2E46EED1D8F82000216DC5
:1026B00020F4803000250843C8F82000CDE700BF93
:1026C0000125012621688800E1D504F128000221B6
:1026D00004F0BAFD002818BF0126D4E900108A03CF
:1026E0003FD5E26F6FF0010303EB3223022B0BD3D4
:1026F0004FEA322343B1012B40F0AA80D8F80030D2
:1027000043F40033C8F8003025B3CA022CD48A023F
:1027100034D44A003CD4CA0F49D1090251D4C1076C
:102720005AD1810763D441076CD4010776D4C1061E
:1027300000F18080800607D504F12800022104F012
:1027400083FD002818BF0125002D18BF012528464C
:10275000BDE8F087D8F8283023F440731A43C8F84E
:1027600028203546CA02D2D5D8F82420236F22F07B
:1027700000421A43C8F824208A02CAD5D8F8242077
:10278000A36E22F080721A43C8F824204A00C2D5F2
:1027900058F81C2C22F4004248F81C2CD4F8B42021
:1027A00058F81C3C1A4348F81C2CCA0FB5D0D8F86E
:1027B0002020636D22F040521A43C8F820200902FD
:1027C000ADD5D8F82810D4F8882021F44001114361
:1027D000C8F82810C107A4D004F10800002104F0B3
:1027E0009FFC002818BF0546606881079BD504F14F
:1027F0000800012104F094FC002818BF0546606819
:10280000410792D504F10800022104F089FC002858
:1028100018BF0546606801077FF589AF04F12800FD
:10282000002104F011FD002818BF05466068C106AC
:102830007FF580AF04F12800012104F005FD002898
:1028400018BF0546606880063FF576AF7CE700BF9D
:102850000125CA027FF55BAF86E700BFD4F8B00060
:102860004FF6CF7358F81C2CC0F2FF0300F44071F0
:1028700022F47C5203EA10136FF31F30B1F5407F4E
:1028800008BF1A43002548F81C2CD8F84410084308
:10289000C8F84400FFF7BBBC2DE9F04381B0002825
:1028A00000F0208142F200090446C5F20029D9F85F
:1028B000000000F00F0081420DD9D9F8000020F08F
:1028C0000F000843C9F80000D9F8000000F00F001D
:1028D000884240F00781206844F218464207C5F656
:1028E00002060AD52269336803F070039A4204D9BC
:1028F000336823F070031A43326002070AD5626915
:10290000736803F070039A4204D9736823F070036C
:102910001A437260C2060AD5A269736803F4E063C1
:102920009A4204D9736823F4E0631A437260820602
:102930000AD5E269B36803F070039A4204D9B36818
:1029400023F070031A43B26010F002020AD0E36869
:10295000376807F00F07BB4204D9376827F00F0725
:102960003B433360C3073FD0306820F47062D4E942
:1029700001031A433260012856F8182C0AD00328A4
:1029800004D002280AD192030BD4ABE0920108D400
:10299000A8E000BFD20504D4A4E000BF520740F174
:1029A000A180884656F8081C21F00701084346F824
:1029B000080CFEF7F5FF054641F2883756F8080C7B
:1029C000616800F03800B0EBC10F09D0FEF7E8FFF6
:1029D000401BB842F2D9032001B0BDE8F08300BF2C
:1029E0002068414600F0020252B1E268336803F009
:1029F0000F039A4204D2336823F00F031A43326064
:102A0000D9F8002002F00F0291420CD2D9F8002030
:102A100022F00F020A43C9F80020D9F8002002F082
:102A20000F028A425ED141070AD52169326802F05D
:102A30007002914204D2326822F070021143316078
:102A400001070AD56169726802F07002914204D2EE
:102A5000726822F0700211437160C1060AD5A16943
:102A6000726802F4E062914204D2726822F4E06279
:102A70001143716080060AD5E069B16801F0700108
:102A8000884204D2B16821F070010843B06000F0C0
:102A9000B7F831684BF20822C0F60002C1F30321F7
:102AA000515C336803F00F0301F01F01D25C20FA80
:102AB00001F102F01F0040F20C02C2F2004221FAC2
:102AC00000F0106040F2040040F20802C2F2004040
:102AD000C2F200420068116001B0BDE8F043FEF7A9
:102AE000ABBF00BF012001B0BDE8F08300000000D3
:102AF00080B500F085F844F218414BF20823C5F682
:102B00000201C0F600030A68C2F303229A5C096856
:102B100001F00F0102F01F02595C20FA02F201F0ED
:102B20001F0040F20C01C2F2004122FA00F00860DE
:102B300040F20801C2F200410A6080BD00000000BE
:102B400080B500F05DF844F2184C4BF20823C5F64E
:102B5000020CC0F60003DCF80020C2F303229A5CEA
:102B6000DCF8001001F00F0102F01F02595CD040A8
:102B700040F20C02C2F2004201F01F0120FA01F102
:102B8000116040F20802C2F200421060DCF804005A
:102B9000C0F30210185C00F01F0021FA00F080BDA5
:102BA00080B500F02DF844F2184C4BF20823C5F61E
:102BB000020CC0F60003DCF80020C2F303229A5C8A
:102BC000DCF8001001F00F0102F01F02595CD04048
:102BD00040F20C02C2F2004201F01F0120FA01F1A2
:102BE000116040F20802C2F200421060DCF80400FA
:102BF000C0F30220185C00F01F0021FA00F080BD35
:102C000044F20041C5F602010869C0F3C20003287E
:102C100016D002280ED0002832D10868800649F26A
:102C20000000C0F2D03058BF70470968C1F3C1013D
:102C3000C840704747F64000C0F27D10704700BFA3
:102C40008B6A886AD1F82CC04A6BC0F30510E8B1D2
:102C5000C2F3CC0203F0030300EE102A9FED2A1A00
:102C6000B8EE400A20EE010A9FED281ADFE803F0D3
:102C7000022110210A6892060ED49FED261A18E050
:102C800040F60010C0F23D00704700BF00207047C2
:102C90009FED1F1A0DE000BF0A6849F20003C0F261
:102CA000D033C2F3C10223FA02F201EE102AB8EEC9
:102CB000411A0A6B9FED183A6FF35F2202EE102A59
:102CC0005FEACC7203FE000A03EE100A086BB8EE4E
:102CD000422AC0F34620B8EE433A013030EE020AF1
:102CE000B7EE002A81EE031A30EE020A21EE000A46
:102CF00001EE100AB8EE411A80EE010ABCEEC00ADD
:102D000010EE100A704700BF000000390024744A1A
:102D100020BCBE4B0024744C0000000000000000EA
:102D200070B3F0B581B00446007844F20046C007A5
:102D3000C5F6020626D1207880076AD5306910F0E2
:102D40003801B06A42D0182908BF5FEA80703DD0D0
:102D5000E0683168002800F02D8121F01901084356
:102D60003060FEF71DFE0546306840074AD4FEF786
:102D700017FE401B0228F7D9032001B0F0BD00BFA9
:102D800001207047306900F03801B06A102905D081
:102D900018290BD100F00300022807D13068800306
:102DA000C9D560680028C6D1AAE000BF6168306854
:102DB000002900F03981B1F5A02F00F02D81B1F587
:102DC000803F40F0478140F4803049E1306840075F
:102DD000E06802D5002800F09380316821F01901E5
:102DE00008433060FEF7DCFD054600BF3068400751
:102DF00008D4FEF7D5FD401B02284FF00300F5D99B
:102E000001B0F0BD7068216920F0FE4040EA016029
:102E100070602078C0061AD5306900F03801B06AB9
:102E2000082907D0182940F0858000F00300012808
:102E300040F080803068C00502D5E06980285FD10D
:102E4000F068216A20F07C5040EA0160F060207850
:102E500000073FD42078800656D42078400700F140
:102E60008180656A9DB3306900F03800182840F011
:102E70001981012DB16A306B42D001F00302A36ABF
:102E80009A423DD1C1F30511E26A914238D101461F
:102E9000226B6FF35F21013A914231D1C0F3462298
:102EA000616B01398A422BD1C0F30642A16B013913
:102EB0008A4225D1C0F30660E16B013988421FD1F7
:102EC000706BA16CC0F3CC00814240F0A581002062
:102ED00001B0F0BD60690028706F59D040F001006A
:102EE0007067FEF75DFD0546706F8007B2D4FEF790
:102EF00057FD401B0228F7D9032001B0F0BD00BFE9
:102F0000012001B0F0BD00BFA0690028306871D079
:102F100040F480503060FEF743FD05463068800481
:102F20009BD4FEF73DFD401B0228F7D9032001B0DA
:102F3000F0BD00BFE0690028306800F0A18040F0DB
:102F400080003060FEF72CFD054600BF3068C005EC
:102F50003FF576AFFEF724FD401B02284FF003003B
:102F6000F4D94DE7D6F8000440F48070C6F80004A8
:102F7000FEF716FD054600BFD6F80004C0052BD4A9
:102F8000FEF70EFD401B6428F6D9032001B0F0BD0A
:102F900020F001007067FEF703FD0546706F8007A3
:102FA0007FF558AFFEF7FCFC401B02284FF00300F2
:102FB000F4D925E721F001003060FEF7F1FC054669
:102FC000306840077FF525AFFEF7EAFC401B02287A
:102FD0004FF00300F4D913E7A168306F002900F027
:102FE0008B80052900F08080012940F09D8040F011
:102FF00001009FE020F480503060FEF7D1FC0546D0
:10300000306880047FF529AFFEF7CAFC401B022818
:103010004FF00300F4D9F3E640F4802030603068CC
:1030200040F480301CE000BF20F480303060306815
:1030300020F480203060FEF7B3FC05463068800342
:103040007FF579AEFEF7ACFC401B64284FF003001F
:10305000F4D9D5E620F480303060306820F4802048
:103060003060FEF79DFC0546306880033FF563AE97
:10307000FEF796FC401B6428F6D9032001B0F0BD92
:1030800020F080003060FEF78BFC05463068C005FC
:103090007FF5DDAEFEF784FC401B02284FF00300F5
:1030A000F4D9ADE6306820F080703060FEF778FC2F
:1030B000022D05460CD100BF306880014CD5FEF7CB
:1030C0006FFC401B02284FF00300F5D998E600BFC3
:1030D000306880017FF5FBAEFEF762FC401B0228E2
:1030E0004FF00300F4D98BE640F004003067306FF6
:1030F00040F001001EE000BF20F001003067306F9B
:1031000020F004003067FEF74BFC054641F288379B
:10311000306F80077FF5A5AEFEF742FC401BB8423A
:103120004FF00300F4D96BE620F001003067306FF8
:1031300020F004003067FEF733FC054641F2883783
:10314000306F80073FF58DAEFEF72AFC401BB8427A
:103150004FF00300F4D953E604F12807B06A40F2B7
:10316000F33188438ECF0843591E40EA02104FF4D2
:103170007E426FF35F21B06202EB47204FF4FE0204
:1031800080B2E36B0844A16B02EB01414FF0FE42B9
:1031900001F4FE0102EB0362084402F0FE41084420
:1031A0003063F06A4FF6F87120F00100F062706B46
:1031B000A26C884340EAC2007063F06A216C20F080
:1031C0000C000843F062F06A616C20F002000843D2
:1031D000F062F06A40F48030F062F06A40F400304F
:1031E000F062F06A40F48020F062F06A40F0010082
:1031F000F062306840F080703060FEF7D1FB04462A
:10320000306880013FF563AEFEF7CAFB001B022861
:103210004FF00300F4D9F3E5F06A20F00100F0620A
:10322000FEF7BEFB0546FEF7BBFBA842FBD0706B6A
:103230004FF6F871A26C884340EAC2007063F06AEE
:1032400040F00100F062002001B0F0BD000000007D
:10325000411E0020B0EB116F02D00120704700BF6B
:103260004EF21002F023CEF2000251604EF62351CE
:10327000CEF200010B7007219060116070470000D2
:1032800070470000000000007047000000000000D0
:10329000704700000000000090F83C20012A01D196
:1032A00002207047B0B5D1E9022323F47C5322F405
:1032B000705242EA030548F2FF73D1E900CECEF620
:1032C000F0730EEA030203F5006445EA020E0CEA0D
:1032D00004050C6903F5C05245EA0E0522402A4355
:1032E0004D692A4303F560550C6B03F5F0432A4002
:1032F00023401343026840F2004C42F48065C4F25C
:10330000010C8C69654540F2000CCEF6FF7CCD695E
:103310000CEA044443EA050343EA040318D14FF6D8
:10332000FF7540F2000CCDF60F458C6ACDF6F04CDF
:1033300003EA050E0D6A0CEA04544B6A44EA0E04D3
:1033400025F0085523F000532543C96A2B430B434E
:103350005364002180F83C100020B0BD0000000044
:1033600090F83C20012A4FF0020266D0B0B580F8F8
:103370003D2040F2004C0268C4F2010C42F480632C
:1033800063455368D2F808E002BF23F470034C6829
:1033900023434DF6FF740D68C4F2000423F070035C
:1033A000A24243EA0503536014DC40F2FF73C4F207
:1033B00000039A4222DD40F60003C4F200039A4261
:1033C0002ED040F60043C4F200039A4228D041F6C2
:1033D000000321E04FF6FF73C4F200039A4213DDAD
:1033E0000023C4F201039A421AD044F20003C4F24B
:1033F00001039A4214D0624512D016E0B2F1804F18
:103400000ED040F2004307E04EF20003C4F2000386
:103410009A4205D04EF20043C4F200039A4204D10E
:103420002EF080038968194391600022012180F801
:103430003D1080F83C20BDE8B040104670470000C9
:1034400060B310B5044690F83D0028B9002084F818
:103450003C00204600F024F8022084F83D0020685B
:10346000211D04F0F1F8012084F8480084F83E00A2
:1034700084F83F0084F8400084F8410084F842005A
:1034800084F8430084F8440084F8450084F846003A
:1034900084F8470084F83D00002010BD01207047EB
:1034A00010B584B04EF200410068C4F200018842B9
:1034B00032D04EF20001C4F2000188421AD040F22C
:1034C0000041C4F20001884240D144F2EC400022A5
:1034D000C5F602001D2450F8041C41F0020140F81A
:1034E000041C50F8040C002100F002000390039823
:1034F0001D2022E044F2EC400022C5F60200A12487
:10350000016841F0807101600068002100F0807066
:1035100002900298A12010E044F2EC400022C5F68F
:103520000200A224016841F00071016000680121DD
:1035300000F0007001900198A220FEF7C9FA204621
:1035400004B0BDE81040FEF7AFBA00BF04B010BD34
:1035500090F83D10012927D1022180F83D10016823
:103560004DF6FF70C4F200008142C86840F00100CF
:10357000C8601BDC40F2FF70C4F2000081422DDD08
:1035800040F60000C4F2000081423DD040F6004009
:10359000C4F20000814237D041F60000C4F20000BE
:1035A000814231D03CE000BF012070474FF6FF70F0
:1035B000C4F2000081421BDD0020C4F20100814200
:1035C00022D044F20000C4F2010081421CD040F23B
:1035D0000040C4F20100814216D021E0B1F1804FD9
:1035E00012D040F20040C4F2000081420CD017E03B
:1035F0004EF20000C4F20000814205D04EF20040BD
:10360000C4F2000081420BD107228868C0F2010297
:1036100002400020062A18BFB2F5803F00D1704753
:10362000086840F0010008600020704700000000BA
:1036300090F83C20012A4FF0020200F0AA8080B5E9
:1036400080F83D208822D0F800C0CFF6CE72DCF89A
:1036500008301A40CCF808200B686F2B0EDDB3F150
:10366000101F37DAB3F5005F6EDA702B00F0B6800A
:10367000B3F5805F00F08480D8E000BF2F2B33DDEE
:103680004F2B39DC302B6FD0402B40F0CF80D1F85E
:1036900004E0C968DCF82030DCF8202022F00102C8
:1036A000CCF82020DCF8182022F0F00242EA0111C8
:1036B00023F00A02CCF8181042EA0E01CCF82010D0
:1036C0004FF68872DCF80810CFF6CF721140473100
:1036D00054E000BF2F21C0F210018B423ADCB3F15D
:1036E000101F41D020213BE0002B18BF102B3BD0F6
:1036F000202B39D09AE000BF502B4DD0602B40F0EA
:103700009580D1F804E0C968DCF82030DCF820208E
:1037100022F01002CCF82020DCF8182022F47042AD
:1037200042EA013123F0A002CCF8181042EA0E114F
:10373000CCF820104FF68872DCF80810CFF6CF7264
:10374000114067311AE000BF5CD0B3F5801F0BD089
:103750006CE000BF3021C0F210018B4204D0402148
:10376000C0F210018B4261D14FF68872DCF808106C
:10377000CFF6CF721140194341F00701CCF8081081
:103780000022012180F83D10002180F83C10BDE8A6
:1037900080401046704700BFD1F804E0C968DCF8EB
:1037A0002030DCF8202022F00102CCF82020DCF8C8
:1037B000182022F0F00242EA011123F00A02CCF8AC
:1037C000181042EA0E01CCF820104FF68872DCF88F
:1037D0000810CFF6CF7211405731CFE701F1040E38
:1037E0009EE80C40DCF808101A4321F47F4142EABD
:1037F0000E221143CCF80810DCF8081041F07701D4
:10380000BCE700BF01F1040E9EE80C40DCF8081094
:103810001A4321F47F4142EA0E221143CCF80810EA
:10382000DCF8081041F48041A8E700BF0122A8E7B6
:103830007047000000000000F0B581B00446006849
:10384000C5680669B10717D515F0020114D06FF0ED
:1038500002010161012121778069800704D020469F
:10386000FFF7E6FF06E000BF204600F09DF8204687
:1038700000F04EFB00202077700719D515F00400EA
:1038800016D020686FF00401016102212177806960
:1038900010F4407F04D02046FFF7CAFF06E000BFC7
:1038A000204600F081F8204600F032FB002020770F
:1038B000300717D515F0080014D020686FF0080104
:1038C000016104212177C069800703D02046FFF7FA
:1038D000AFFF05E0204600F067F8204600F018FB37
:1038E00000202077F00619D515F0100016D02068BA
:1038F0006FF01001016108212177C06910F4407F49
:1039000004D02046FFF794FF06E000BF204600F0F9
:103910004BF8204600F0FCFA00202077F00718BF93
:1039200015F0010006D020686FF00101016120460A
:1039300000F0AAFB05F0800716F4025F18BF002F05
:1039400002D1F00509D410E020686FF40251016142
:103950002046FFF799FCF00507D537B120686FF4D2
:10396000807101612046FFF78BFC700609D515F0C8
:10397000400006D020686FF040010161204600F051
:10398000CBFBB0060CD515F0200009D020686FF0F5
:1039900020010161204601B0BDE8F040FFF778BC8E
:1039A00001B0F0BD00000000704700000000000002
:1039B00090F83C30012B01D1022070474FEAB2024F
:1039C000052A00F223812DE9F041DFE812F007001B
:1039D000BB00570095003100F90000BF036843F6B3
:1039E000FF76C4F201061C6AB3421A6A24F002048C
:1039F00022F001021A621A46D3F804C052F818EFF6
:103A00008D6844EA0504D1F8008040F3818144F2D6
:103A10000007C4F20107BB4200F0858144F60007AD
:103A2000C4F20107BB4200F07E8144F2004776E118
:103A3000036843F6FF77C4F20107D3F820C0BB4206
:103A40001A6A22F480321A621A465C6852F8546F7D
:103A50000D68D1F808E040F3DF8044F20007C4F2BB
:103A60000107BB4200F0E38044F60007C4F20107FF
:103A7000BB4200F0DC8044F20047D4E0036840F22F
:103A8000004E43F48067C4F2010E1C6A77451A6A3F
:103A900024F4007422F480721A621A465D6852F8A7
:103AA0001CCF8E6844EA062407D1CE6840F2FF4757
:103AB000360224F44064BE43344343F6FF76D1F823
:103AC0000080C4F20106B34240F3D28044F2000702
:103AD000C4F20107BB4200F0D28044F60007C4F2F2
:103AE0000107BB4200F0CB8044F20047C4F201075B
:103AF000BB4200F0C480C9E0036843F6FF77C4F21C
:103B00000107D3F820C0BB421A6A22F480521A621D
:103B10001A465C6852F81C6F0D68D1F808E040F353
:103B2000CD8044F20007C4F20107BB4200F0D1800F
:103B300044F60007C4F20107BB4200F0CA8044F219
:103B40000047C2E0036840F2004E43F48067C4F2CD
:103B5000010E1C6A77451A6A24F0200422F0100234
:103B60001A621A465D6852F818CF8E6844EA061445
:103B700007D1CE686FF0400724F0C00407EA0616AC
:103B8000344343F6FF76D1F80080C4F20106B34215
:103B900040F3E08044F20007C4F20107BB4200F0AA
:103BA000E08044F60007C4F20107BB4200F0D98070
:103BB00044F20047C4F20107BB4200F0D280D7E0D4
:103BC000036843F6FF77C4F20107D3F820C0BB4275
:103BD0001A6A22F480121A621A465C6852F8546F0C
:103BE0000D68D1F808E040F3058144F20007C4F203
:103BF0000107BB4200F0098144F60007C4F2010747
:103C0000BB4200F0028144F20047FAE001210022A9
:103C100080F83C20084670470027C4F20107BB42E9
:103C200005D040F20047C4F20107BB4204D14F69FE
:103C300024F4803444EA07244FF68C775C60CFF696
:103C4000FE7703373E402CF4003746EA05045C65F6
:103C50004E6809699E6547EA0E471F625F6D47F02F
:103C600008075F655F6D27F004075F65EEE000BF42
:103C70000027C4F20107BB4201D0734506D1D1E948
:103C80000576374325F4405646EA07154FF68C77FC
:103C90005D60CFF6FE7707EA0C0747EA0807DF61A9
:103CA0004F680969DF631C62DF6947F00807DF615D
:103CB000DF6927F00407DF61C8E000BF0027C4F216
:103CC0000107BB4205D040F20047C4F20107BB42E6
:103CD00004D14F6924F4804444EA871448F6FF472E
:103CE0005C60CFF6FF673E402CF4005746EA05249F
:103CF000DC614E6809691E6447EA0E371F62DF699E
:103D000047F40067DF61DF6927F48067DF619CE0CB
:103D10000027C4F20107BB4205D040F20047C4F2BD
:103D20000107BB4205D1CF6824F00C0427F004073B
:103D30003C43B34234DD44F20006C4F20106B34210
:103D400039D044F60006C4F20106B34233D044F23F
:103D500000462CE00027C4F20107BB4201D07345A6
:103D600006D1D1E90576374325F4406646EA870552
:103D700048F6FF475D60CFF6FF6707EA0C0747EAA2
:103D800008279F614F6809699F631C629F6947F418
:103D900000679F619F6927F480679F6155E000BFBE
:103DA0000026C4F20106B34205D040F20046C4F238
:103DB0000106B34206D12CF44077D1E905653743BB
:103DC00047EA050C4FF68C75C3F804C0CFF6FE75B4
:103DD0000EEA050747EA08079F614F6809695F63B4
:103DE0001C629F6947F008079F619F6927F00407DD
:103DF0009F612BE00027C4F20107BB4205D040F2CF
:103E00000047C4F20107BB4204D14F6924F4802467
:103E100044EA872448F6FF475C60CFF6FF6707F562
:103E200040773E402CF4001746EA05245C654E6856
:103E30000969DE6547EA0E571F625F6D47F4006748
:103E40005F655F6D27F480675F650902136819433A
:103E500011600021BDE8F041002280F83C200846B6
:103E6000704700000000000060B310B5044690F8F1
:103E70003D0028B9002084F83C00204600F024F8DA
:103E8000022084F83D002068211D03F0DDFB0120A5
:103E900084F8480084F83E0084F83F0084F840002D
:103EA00084F8410084F8420084F8430084F8440018
:103EB00084F8450084F8460084F8470084F83D0003
:103EC000002010BD0120704744F200010068C4F2D8
:103ED0000101884218BF704780B582B044F2F040BB
:103EE0000022C5F60200016841F4803101600068DB
:103EF000002100F48030019001987420FDF7E8FD66
:103F0000742002B0BDE88040FDF7CEBD0000000087
:103F1000704700000000000080B5C9B10B1F4FF0D2
:103F20003F0C4FEAB30E4322BEF1040F38BF0CEB37
:103F3000B302825C012A13D1BEF1030F1ED8DFE861
:103F40000EF00319111500BF022280F83F2018E07F
:103F500090F83E20012A03D1022280F83E2010E092
:103F6000012080BD022280F841200AE0022280F870
:103F7000422006E0022280F8402002E0022280F87F
:103F80004320026801F01F00012101FA00F0116ACC
:103F9000814311624EF2FF31C4F200018A42116A7C
:103FA00040EA0100106215DC40F6FF30C4F2000068
:103FB000824227DCB2F1804F4ED040F20040C4F282
:103FC0000000824248D040F60000C4F20000824265
:103FD00042D053E043F6FF700021C4F20100C4F266
:103FE0000101824244F20000C4F201001EDC4EF2E4
:103FF0000043C4F200039A422ED08A4224D040F2F9
:1040000000431DE040F60040C4F20000824223D08D
:1040100041F60000C4F2000082421DD04EF20000C2
:10402000C4F20000824217D028E000BF82420BD0C9
:1040300044F60003C4F201039A4205D044F200435F
:10404000C4F201039A4219D1536C8A4243F40041ED
:10405000516418BF82420BD107219068C0F2010160
:1040600001400020062918BFB1F5803F06D180BD70
:1040700040F20040C4F201008242EDD0106840F0EE
:1040800001001060002080BDB0B540F2004504463C
:10409000C4F20005006805F56041884212D005F5BC
:1040A0005C41884227D005F59E3188422AD0A8423B
:1040B00018BFB0BD40F2D860C2F20040BDE8B040C9
:1040C00003F05AB905F058F940F208209FED112A83
:1040D000C2F2004090ED011A80ED000A30EE411A64
:1040E00080ED010A81EE021A80ED021A206805F5C2
:1040F0005C418842D7D106F00BF8206805F59E3167
:104100008842D4D140F2A860C2F2004003F034F9F2
:104110002068CCE7CDCC4C3D70470000000000008B
:1041200090F88410012901D1022070472421C0F8A1
:10413000881001680A680B6822F0005223F001031E
:104140000B60002343660A602021C0F8881080F8C5
:10415000843000207047000070470000000000001D
:10416000704700000000000090F88420012A01D16F
:104170000220704770B52422C0F888200268D0F869
:1041800064E0BEF1000FD2F800C0136823F0010311
:104190001360936823F0606341EA0301916019D0D2
:1041A00091684BF65E2E9368C0F6000E5B0F4BF6DF
:1041B0006625C1F34266C0F600051EF80340E95CBF
:1041C0002301B3FBF1F11EF80630AE5D1B01B3FB1A
:1041D000F6F301E001210123A0F86A102021A0F8E4
:1041E0006830C2F800C0C0F88810002180F8841040
:1041F000002070BD0000000090F88420012A01D149
:104200000220704770B52422C0F888200268D0F8D8
:1042100064E0BEF1000FD2F800C0136823F0010380
:104220001360936823F0604341EA0301916019D061
:1042300091684BF65E2E9368C0F6000E5B0F4BF64E
:104240006625C1F34266C0F600051EF80340E95C2E
:104250002301B3FBF1F11EF80630AE5D1B01B3FB89
:10426000F6F301E001210123A0F86A102021A0F853
:104270006830C2F800C0C0F88810002180F88410AF
:10428000002070BD0000000070470000000000002A
:1042900070470000000000007047000000000000B0
:1042A00070B5016840F62F02CB691A40202A0A68CF
:1042B0008E680BD102F0200406F080552D1917D01E
:1042C000416F69B3BDE87040084700BF40F60F0575
:1042D0002B420DD0012540F22014C1F20005C0F29E
:1042E000004406EA050C02EA040515EB0C0525D18D
:1042F000DD06C46E16D5012C14D112F0100511D0B4
:1043000010220A628968490666D4B0F85C10B0F8D9
:104310005E20B0F85E30002B18BF914240F05C8206
:1043200070BD00BFDD0215D516F4800512D04FF424
:1043300080120A62BDE87040FFF7AABFDD0718BF10
:1043400012F4807540F01E819D0706F0010E00F109
:1043500025812EE1190606D502F0800106F400063B
:10436000891940F0BF82590640F1008112F04001E6
:1043700000F0FC80016851E8001F026821F0400154
:1043800042E80013F3B1016851E8001F026821F010
:10439000400142E80013002B1FBF016851E8001FD5
:1043A000026821F040011CBF42E80013002B09D035
:1043B000016851E8001F026821F0400142E8001343
:1043C000002BD7D12021C0F8881000218167BDE8DB
:1043D000704000F0F9BB00BFD0F880100A68526846
:1043E00093B2002B9CD0B0F85C60B34298D2A0F896
:1043F0005E20C969B1F5807F00F0AC80016851E8AA
:10440000001F026821F4807142E80013F3B10168D3
:1044100051E8001F026821F4807142E80013002B6C
:104420001FBF016851E8001F026821F480711CBFA2
:1044300042E80013002B09D0016851E8001F026810
:1044400021F4807142E80013002BD7D1016851E8B4
:10445000021F026821F0010142E80213F3B1016872
:1044600051E8021F026821F0010142E80213002B0B
:104470001FBF016851E8021F026821F001011CBF43
:1044800042E80213002B09D0016851E8021F0268BC
:1044900021F0010142E80213002BD7D1016851E855
:1044A000021F026821F0400142E80213F3B10168E3
:1044B00051E8021F026821F0400142E80213002B7C
:1044C0001FBF016851E8021F026821F040011CBFB4
:1044D00042E80213002B09D0016851E8021F02686C
:1044E00021F0400142E80213002BD7D12021C0F86F
:1044F0008C100021C166016851E8001F026821F09C
:10450000100142E80013F3B1016851E8001F02688E
:1045100021F0100142E80013002B1FBF016851E891
:10452000001F026821F010011CBF42E80013002B9D
:1045300009D0016851E8001F026821F0100142E82B
:104540000013002BD7D1D0F8801004460846FCF7A2
:1045500053FD204602210167B0F85C10B0F85E20E0
:10456000891A89B2BDE87040FFF7F6BD190240F123
:10457000C58112F0804100F0C181BDE87040FFF7B5
:1045800083BE00BF01250D62D0F8905045F00105B3
:10459000C0F890509D0706F0010E0AD5BEF1000F3D
:1045A00007D002240C62D0F8904044F00404C0F814
:1045B00090405C070AD5BEF1000F07D004250D62BC
:1045C000D0F8905045F00205C0F890501D070CD56A
:1045D00002F0200555EA0C0507D008250D62D0F839
:1045E000905045F00805C0F890501D050BD512F00D
:1045F000806508D04FF400650D62D0F8905045F00A
:104600002005C0F89050D0F89050002D3FF488AEAF
:104610009B060BD502F0200206F08053D21805D07D
:10462000426F1AB10446904720462168D0F8902086
:10463000896801F0400102F02802891806D1044679
:10464000FFF72AFE0020C4F8900070BD016851E811
:10465000001F026821F4907142E80013F3B1016871
:1046600051E8001F026821F4907142E80013002B0A
:104670001FBF016851E8001F026821F490711CBF40
:1046800042E80013002B09D0016851E8001F0268BE
:1046900021F4907142E80013002BD7D14FF6FE7140
:1046A000CEF6FF71026852E8022F03680A4043E821
:1046B0000226DEB1026852E8022F03680A4043E88E
:1046C0000226002E1FBF026852E8022F03680A402C
:1046D0001CBF43E80226002E08D0026852E8022FD1
:1046E00003680A4043E80226002EDBD1C16E01298F
:1046F00027D1016851E8001F026821F0100142E84B
:104700000013F3B1016851E8001F026821F01001A5
:1047100042E80013002B1FBF016851E8001F026828
:1047200021F010011CBF42E80013002B09D00168E2
:1047300051E8001F026821F0100142E80013002B2D
:10474000D7D12021C0F88C100021C16602684167D2
:104750009168490640F1CE80016851E8021F026865
:1047600021F0400142E80213F3B1016851E8021F51
:10477000026821F0400142E80213002B1FBF0168CC
:1047800051E8021F026821F040011CBF42E80213F9
:10479000002B09D0016851E8021F026821F0400196
:1047A00042E80213002BD7D1D0F88010002900F086
:1047B000A18047F6312204460846C0F600020A6589
:1047C000FCF7AEFE00283FF4ABADD4F88000016DDD
:1047D000BDE87040084700BF891A026852E8002F00
:1047E000036822F4907243E80026F6B1026852E8AA
:1047F000002F036822F4907243E80026002E1FBFAA
:10480000026852E8002F036822F490721CBF43E84C
:104810000026002E09D0026852E8002F036822F417
:10482000907243E80026002ED7D14FF6FE72CEF6E6
:10483000FF72036853E8023F0668134046E80235FA
:10484000DDB1036853E8023F0668134046E80235CD
:10485000002D1FBF036853E8023F066813401CBFCA
:1048600046E80235002D08D0036853E8023F066889
:10487000134046E80235002DDBD12022C0F88C2001
:104880000022C2664267026852E8002F036822F0E5
:10489000100243E80026F6B1026852E8002F0368D0
:1048A00022F0100243E80026002E1FBF026852E8E3
:1048B000002F036822F010021CBF43E80026002EE0
:1048C00009D0026852E8002F036822F0100243E882
:1048D0000026002ED7D189B202220267BDE87040BF
:1048E000FFF73ABC816F00293FF41AADBDE8704074
:1048F000084700BFBDE87040FFF7CEBCD9017FF587
:104900000FADB2F1FF3FC8BF70BDBDE87040FFF70B
:1049100027BC00000000000010B5D8B10446D0F854
:10492000880028B9002084F88400204600F028F888
:104930002420C4F888002068A16A0268002922F0B7
:104940000101016002D0204602F04AFF204603F038
:10495000A3FD08B1012010BD2068416821F49041F9
:104960004160816821F02A018160016841F0010104
:1049700001602046BDE8104002F0A2BF0000000028
:10498000B0B5B6B0044602A80830B0210025319574
:10499000CDE93455CDE93255FBF71EFF41F6000154
:1049A0002068C4F20101884202D036B0B0BD00BF19
:1049B0000120029002A80395FDF72EFA08B1FCF73A
:1049C00013FB44F2E040C5F60200016941F04001EA
:1049D0000161016901F0400101910199016841F013
:1049E00008010160006831A900F0080001900198F9
:1049F0004FF440403190022032900020CDE9330046
:104A00000B20359040F60040C5F60200FCF7E4FEAE
:104A10009B2000210022FDF75BF89B20FDF744F866
:104A200036B0B0BD00000000D0F88C30202B07D18C
:104A30000123002918BF002A06D11846704700BF7D
:104A400002231846704700BF80B50023C36640F6B6
:104A50000043D0F800C0C5F600039C4503D0DCF845
:104A600004301B0204D403F073FF002080BD00BF9C
:104A7000036853E800CFD0F800E04CF080634EE8C4
:104A8000003CBCF1000FEED0036853E800CFD0F833
:104A900000E04CF080634EE8003CBCF1000F1FBF0B
:104AA000036853E800CFD0F800E04CF080631CBFEF
:104AB0004EE8003CBCF1000FD5D0036853E800CFAE
:104AC000D0F800E04CF080634EE8003CBCF1000FF1
:104AD000CED1C8E70000000040F63801C2F2004124
:104AE000884218BF704770B540F2FC15C2F200450D
:104AF000287840280ED10120A8700020E88028786E
:104B0000E9884A1CEA8040F62052C2F20042505422
:104B10004AE000BFA878012846D12978EA88501CCD
:104B2000E88040F62050C2F200408154E988022912
:104B300034D3E988014411F8021C0D292ED1E988EB
:104B4000084410F8010C0A2828D10026AE706878B5
:104B5000042822D8288940F69621C2F20041EA882A
:104B600000EB801001EB400440F62051C2F20041FE
:104B70002046FBF7ECFDE88843F23431A4F88000CE
:104B8000C3F2333128890130A0FB011202EB82010C
:104B9000401A2881687801306870EE80E8888028A3
:104BA00002D30020A870E88040F6380040F2FC11E3
:104BB000C2F20040C2F200410122BDE87040FFF79E
:104BC00033BF00000000000070470000000000003C
:104BD000FEE70000000000002DE9F04F81B098468C
:104BE00091460E460746DDE90ABA00F0C5FED02020
:104BF00000F0DAFD00F094FC3B2000F0D5FD00F061
:104C00008FFC00F0B9FED12000F0CEFD00F088FC52
:104C100000F0AEFC0446012000F0A2FD00F0D8FE3A
:104C200000F0AAFED02000F0BFFD00F079FC3C208F
:104C300000F0BAFD00F074FC00F09EFED12000F000
:104C4000B3FD00F06DFC00F093FC0546012000F080
:104C500087FD00F0BDFE45EA0420388000F08CFEA0
:104C6000D02000F0A1FD00F05BFC3D2000F09CFD99
:104C700000F056FC00F080FED12000F095FD00F021
:104C80004FFC00F075FC0446012000F069FD00F0C7
:104C90009FFE00F071FED02000F086FD00F040FC89
:104CA0003E2000F081FD00F03BFC00F065FED120CD
:104CB00000F07AFD00F034FC00F05AFC05460120BB
:104CC00000F04EFD00F084FE45EA0420308000F044
:104CD00053FED02000F068FD00F022FC3F2000F0E1
:104CE00063FD00F01DFC00F047FED12000F05CFDEC
:104CF00000F016FC00F03CFC0446012000F030FD02
:104D000000F066FE00F038FED02000F04DFD00F00F
:104D100007FC402000F048FD00F002FC00F02CFEF3
:104D2000D12000F041FD00F0FBFB00F021FC054626
:104D3000012000F015FD00F04BFE45EA0420A9F823
:104D4000000000F019FED02000F02EFD00F0E8FB7E
:104D5000432000F029FD00F0E3FB00F00DFED12020
:104D600000F022FD00F0DCFB00F002FC0446012014
:104D700000F0F6FC00F02CFE00F0FEFDD02000F06C
:104D800013FD00F0CDFB442000F00EFD00F0C8FB49
:104D900000F0F2FDD12000F007FD00F0C1FB00F0B3
:104DA000E7FB0546012000F0DBFC00F011FE45EAC0
:104DB0000420A8F8000000F0DFFDD02000F0F4FC93
:104DC00000F0AEFB452000F0EFFC00F0A9FB00F086
:104DD000D3FDD12000F0E8FC00F0A2FB00F0C8FBFE
:104DE0000446012000F0BCFC00F0F2FD00F0C4FD20
:104DF000D02000F0D9FC00F093FB462000F0D4FC5A
:104E000000F08EFB00F0B8FDD12000F0CDFC00F0EA
:104E100087FB00F0ADFB0546012000F0A1FC00F08F
:104E2000D7FD45EA0420ABF8000000F0A5FDD02036
:104E300000F0BAFC00F074FB472000F0B5FC00F075
:104E40006FFB00F099FDD12000F0AEFC00F068FB94
:104E500000F08EFB0446012000F082FC00F0B8FD5B
:104E600000F08AFDD02000F09FFC00F059FB4820A4
:104E700000F09AFC00F054FB00F07EFDD12000F021
:104E800093FC00F04DFB00F073FB0546012000F0A1
:104E900067FC00F09DFD45EA0420AAF8000001B07F
:104EA000BDE8F08F0000000080B500F009FB00F0C5
:104EB00063FDD02000F078FC00F032FB6B2000F0A6
:104EC00073FC00F02DFB012000F06EFC00F028FBCD
:104ED00000F07EFD00F050FDD02000F065FC00F0F9
:104EE0001FFB6C2000F060FC00F01AFB002000F0BB
:104EF0005BFC00F015FB00F06BFD00F03DFDD020E9
:104F000000F052FC00F00CFB192000F04DFC00F00A
:104F100007FB092000F048FC00F002FB00F058FD00
:104F200000F02AFDD02000F03FFC00F0F9FA1A2032
:104F300000F03AFC00F0F4FA062000F035FC00F036
:104F4000EFFA00F045FD00F017FDD02000F02CFC3A
:104F500000F0E6FA1B2000F027FC00F0E1FA182030
:104F600000F022FC00F0DCFA00F032FD00F004FD5D
:104F7000D02000F019FC00F0D3FA1C2000F014FC43
:104F800000F0CEFA182000F00FFC00F0C9FA00F093
:104F90001FFD6420BDE88040FBF7EEBF000000006D
:104FA0002DE9F04786B044F2E0400024C5F6020047
:104FB0000594CDE90344CDE90144016840F200487D
:104FC00041F0200101600168C5F6020801F02001EE
:104FD00000910099016841F080010160016808F5C5
:104FE000805501F0800100910099016841F00401B1
:104FF00001600168002201F004010091009901683C
:1050000041F00101016001684FF0400A01F0010127
:1050100000910099016841F008010160016801F008
:10502000080100910099016841F0020101600068E7
:10503000402100F00200009000982846FCF7A8FCF0
:1050400008F5806641F6730100223046FCF7A0FCAB
:105050004FF40071012230464FF00109FCF798FC33
:10506000402100224046FCF793FC8021012240466B
:10507000FCF78EFC01AF3C20CDE9010428463946FF
:105080000394FCF7A9FB28463946CDE901A9CDE9EF
:105090000344FCF7A1FB41F673203946CDE9010931
:1050A0003046CDE90344FCF797FBC0203946CDE9F3
:1050B00001094046CDE90344FCF78EFB06B0BDE88C
:1050C000F087000000000000B0B59EB001A83421B8
:1050D000002416941494CDE91244CDE91044CDE98E
:1050E0000E44FBF779FB40F2087044F20005C2F26F
:1050F0000040C4F20105C7210560C0E9011440F277
:10510000E7314461C0E9031480218161FEF7ACFE00
:1051100008B1FBF769FF40F2087015A9C2F2004020
:1051200015941794FEF71CF908B1FBF75DFF60209A
:105130000E9040F208700EA9C2F200400022002436
:10514000CDE90F44CDE91144CDE91344FEF730FC1D
:1051500008B1FBF749FF05944FF40050CDE9034433
:10516000CDE90144CDE906040D9440F20874C2F281
:10517000004401A92046FEF78FF808B1FBF734FF81
:1051800020680021A8421D91CDE91B111A911991A7
:105190001AD040F20041C4F20001884230D144F2FA
:1051A000E0408022C5F60200016841F00401016080
:1051B000006800F00400189000201899C5F602005D
:1051C000022100F5006011E044F2E0400422C5F63F
:1051D0000200016841F0010101600068042100F053
:1051E0000100189018980020C5F602001D9119A919
:1051F000199202221A920022CDE91B22FCF7ECFA46
:105200001EB0B0BD0000000080B588B040F2547000
:105210004EF20002C2F2004000210791C4F20002E7
:10522000CDE9051102910260C722C0E9012142F2D5
:105230000F728161C0E90321FEF702F908B1FBF7A3
:10524000D3FE4FF48050049040F2547004A9C2F28F
:105250000040FEF7EDF908B1FBF7C6FE0020019013
:10526000039040F25470C2F2004001A9FEF778F8B2
:1052700008B1FBF7B9FE08B080BD000000000000D7
:1052800080B588B040F2A0704EF20042C2F20040F9
:10529000C4F20002002107910260C72242604DF271
:1052A0008F02CDE905110291C0F20302C0E902129A
:1052B00001618161FEF7C4F808B1FBF795FE4FF478
:1052C0008050049040F2A07004A9C2F20040FEF7A2
:1052D000AFF908B1FBF788FE00200190039040F27F
:1052E000A070C2F2004001A9FEF73AF808B1FBF73E
:1052F0007BFE08B080BD0000B0B594B040F2EC7009
:1053000040F20045C2F2004000210D91C4F20005B8
:10531000CDE90B11CDE90811CDE90611CDE9041154
:10532000CDE90211CDE900110560C722C0E90121D4
:1053300040F2E732C0E9032180218161FEF780F865
:1053400008B1FBF751FE4FF480500A9040F2EC7028
:105350000AA9C2F20040FEF76BF908B1FBF744FE60
:1053600040F2EC70C2F20040FEF77EFD08B1FBF7A0
:105370003BFE40F2EC7007A9C2F200400024079403
:105380000994FDF7EDFF08B1FBF72EFE60200294B3
:10539000CDE90004049440F2EC74C2F20044694682
:1053A00004222046FEF704FB08B1FBF71DFE44F281
:1053B00000022068C4F20102002190421391CDE95D
:1053C0001111CDE90F1117D0A84231D144F2E040BC
:1053D0008022C5F60200016841F004010160006806
:1053E00000F004000E9000200E99C5F60200022184
:1053F00000F5006012E000BF44F2E0400422C5F670
:105400000200016841F0010101600068042100F020
:1054100001000E900E980020C5F6020013910FA90E
:105420000F92022210920022CDE91122FCF7D4F94A
:1054300014B0B0BD0000000080B540F6380041F661
:105440000001C2F20040C4F201010C2201604FF4DD
:10545000E13141600021C0E902110161C0E905218B
:10546000C0E90711C0E90911FFF756FA08B1FBF7C7
:10547000BBFD40F638000021C2F20040FEF7BCFE42
:1054800008B1FBF7B1FD40F638000021C2F2004040
:10549000FEF76AFE08B1FBF7A7FD40F63800C2F23E
:1054A0000040FEF73DFE002808BF80BDBDE88040FB
:1054B000FBF79ABD00000000FEE7000000000000BE
:1054C000B0B586B040F6000401ADC5F60204002078
:1054D00005904FF4006101911121CDE902100220E5
:1054E000049020462946FCF777F94FF4805001904C
:1054F00020462946FCF770F94FF40061012220464E
:10550000FCF746FA0A20FBF753FD4FF480510122C5
:105510002046FCF73DFA0A20FBF74AFD06B0B0BD75
:10552000B0B540F600044FF48051C5F602040122E4
:105530002046FCF72DFA0A20FBF73AFD4FF40061F4
:1055400001222046FCF724FA0A20FBF731FD4FF434
:1055500080512046FCF714FA05464FF40061002202
:105560002046FCF715FA0A20FBF722FD2846B0BDBD
:10557000B0B540F600044FF48051C5F60204012294
:105580002046FCF705FA0A20FBF712FD4FF40061F4
:1055900001222046FCF7FCF90A20FBF709FD4FF435
:1055A00080512046FCF7ECF901384FF40061B0FA65
:1055B00080F0002245092046FCF7EAF90A20FBF7B3
:1055C000F7FC4FF4006101222046FCF7E1F90A20C4
:1055D000FBF7EEFC4FF480512046FCF7D1F901387F
:1055E0004FF40061B0FA80F000224009800140EAE7
:1055F000C5152046FCF7CCF90A20FBF7D9FC4FF47F
:10560000006101222046FCF7C3F90A20FBF7D0FC19
:105610004FF480512046FCF7B3F901384FF4006194
:10562000B0FA80F00022400945EA40152046FCF718
:10563000AFF90A20FBF7BCFC4FF4006101222046C1
:10564000FCF7A6F90A20FBF7B3FC4FF48051204683
:10565000FCF796F901384FF40061B0FA80F00022AF
:10566000400945EA00152046FCF792F90A20FBF7AD
:105670009FFC4FF4006101222046FCF789F90A20C3
:10568000FBF796FC4FF480512046FCF779F901387E
:105690004FF40061B0FA80F00022400945EAC005ED
:1056A0002046FCF775F90A20FBF782FC4FF40061F5
:1056B00001222046FCF76CF90A20FBF779FC4FF435
:1056C00080512046FCF75CF901384FF40061B0FAD4
:1056D00080F00022400945EA80052046FCF758F991
:1056E0000A20FBF765FC4FF4006101222046FCF71D
:1056F0004FF90A20FBF75CFC4FF480512046FCF781
:105700003FF901384FF40061B0FA80F000224009FF
:1057100045EA40052046FCF73BF90A20FBF748FC28
:105720004FF4006101222046FCF732F90A20FBF712
:105730003FFC4FF480512046FCF722F901384FF42A
:105740000061B0FA80F00022400905432046FCF7D2
:105750001FF90A20FBF72CFCE8B2B0BD00000000E6
:1057600010B540F600040246C5F602044FF480511D
:105770002046FCF70DF90A20FBF71AFC4FF40061F4
:1057800001222046FCF704F90A20FBF711FC4FF434
:10579000006100222046FCF7FBF80A20BDE810401B
:1057A000FBF706BC00000000B0B540F6000405465B
:1057B000C5F6020400F080024FF480512046FCF749
:1057C000E7F80A20FBF7F4FB4FF4006101222046C2
:1057D000FCF7DEF80A20FBF7EBFB4FF40061002238
:1057E0002046FCF7D5F80A20FBF7E2FB05F0400263
:1057F0004FF480512046FCF7CBF80A20FBF7D8FB8A
:105800004FF4006101222046FCF7C2F80A20FBF7A2
:10581000CFFB4FF4006100222046FCF7B9F80A20C4
:10582000FBF7C6FB05F020024FF480512046FCF741
:10583000AFF80A20FBF7BCFB4FF4006101222046C1
:10584000FCF7A6F80A20FBF7B3FB4FF40061002237
:105850002046FCF79DF80A20FBF7AAFB05F0100292
:105860004FF480512046FCF793F80A20FBF7A0FB89
:105870004FF4006101222046FCF78AF80A20FBF76A
:1058800097FB4FF4006100222046FCF781F80A20C4
:10589000FBF78EFB05F008024FF480512046FCF721
:1058A00077F80A20FBF784FB4FF4006101222046C1
:1058B000FCF76EF80A20FBF77BFB4FF40061002237
:1058C0002046FCF765F80A20FBF772FB05F004029E
:1058D0004FF480512046FCF75BF80A20FBF768FB89
:1058E0004FF4006101222046FCF752F80A20FBF732
:1058F0005FFB4FF4006100222046FCF749F80A20C4
:10590000FBF756FB05F002024FF480512046FCF7EE
:105910003FF80A20FBF74CFB4FF4006101222046C0
:10592000FCF736F80A20FBF743FB4FF40061002236
:105930002046FCF72DF80A20FBF73AFB05F00102A0
:105940004FF480512046FCF723F80A20FBF730FB88
:105950004FF4006101222046FCF71AF80A20FBF7F9
:1059600027FB4FF4006100222046FCF711F80A20C3
:10597000BDE8B040FBF71CBB10B540F600044FF487
:105980008051C5F6020401222046FCF701F80A20E6
:10599000FBF70EFB4FF4006101222046FBF7F8FFF6
:1059A0000A20FBF705FB4FF4805100222046FBF74D
:1059B000EFFF0A20FBF7FCFA4FF4006100222046BB
:1059C000FBF7E6FF0A20BDE81040FBF7F1BA000044
:1059D00010B540F600044FF48051C5F602040022D1
:1059E0002046FBF7D5FF0A20FBF7E2FA4FF40061EF
:1059F00001222046FBF7CCFF0A20FBF7D9FA4FF42F
:105A0000805101222046FBF7C3FF0A20BDE8104069
:105A1000FBF7CEBA00000000FEE700000000000027
:105A200080B540F2A8204FF48061C2F20040FAF73E
:105A3000D3FE80BD00000000F0B581B00146CA6809
:105A4000D2B11269C2B18A420D4618D0D168A9B14B
:105A5000096999B19142154611D0CA6862B11269BB
:105A600052B18A420D460AD0D16839B1096929B1CB
:105A700091421546E3D102E00D4600E015460021B3
:105A80004FF0FF342A4600BF8242526908BF0C46DD
:105A90009AB101318242526908BF0C466AB10131A4
:105AA0008242526908BF0C463AB18242526908BF2D
:105AB0004C1C002A01F10201E6D104F1FD0000278F
:105AC000032CC8BFC7B2002F18BF002D50D1002D26
:105AD0004CD0A74207D100200021402210230026ED
