:020000040800F2
:10000000B810002499030008E15C0008B95C0008FE
:10001000D95C0008610C0008697B00080000000042
:10002000000000000000000000000000B16D0008AA
:10003000A10C000800000000596B0008D96D0008F1
:10004000B3030008B3030008B3030008B3030008B8
:10005000B3030008B3030008B3030008B3030008A8
:10006000B3030008B3030008B3030008B303000898
:10007000B3030008B3030008B3030008B303000888
:10008000B3030008B3030008B3030008B303000878
:10009000B3030008B3030008B3030008C10D000850
:1000A000B3030008B3030008B3030008B303000858
:1000B000B3030008B3030008B3030008B303000848
:1000C000B3030008B3030008B3030008B303000838
:1000D000B3030008B3030008B3030008B303000828
:1000E000B3030008B303000800000000B3030008D6
:1000F000B3030008B3030008B3030008B303000808
:10010000B3030008B3030008B3030008B3030008F7
:10011000B3030008B3030008596F0008696F0008B3
:10012000B3030008B3030008B3030008B3030008D7
:10013000B3030008B3030008B3030008B3030008C7
:1001400000000000000000000000000000000000AF
:10015000B3030008B3030008B3030008B3030008A7
:10016000B3030008B3030008B3030008B303000897
:10017000B3030008B3030008B30300080000000045
:10018000B3030008B3030008B3030008B303000877
:10019000B3030008B3030008B3030008B303000867
:1001A000B3030008B3030008B30300080000000015
:1001B000B3030008B3030008B3030008B303000847
:1001C000B3030008B30300080000000000000000B3
:1001D0000000000000000000B30300080000000061
:1001E000000000000000000000000000000000000F
:1001F0000000000000000000B3030008B303000883
:10020000B3030008B303000800000000B3030008B4
:10021000B3030008B3030008B3030008B3030008E6
:10022000B303000800000000B30300080000000052
:10023000B3030008B303000800000000B303000884
:10024000B3030008B3030008B3030008B3030008B6
:10025000B3030008B3030008B3030008B3030008A6
:10026000B3030008B3030008B3030008B303000896
:10027000B3030008B3030008B30300080000000044
:10028000B3030008B3030008B3030008B303000876
:1002900000000000B3030008B303000800000000E2
:1002A00000000000B3030008B30300080171000858
:1002B000B3030008B3030008B3030008B303000846
:1002C000B3030008B3030008B303000800F002F80A
:1002D00000F052F814A696E8000CB244B344DA4594
:1002E00001D100F049F8BAE80F000FA696E83000F7
:1002F000A5EB040504EB0607AAEB0704A7F1010729
:100300004FEA15154FEA3414A4F10104AC4201D3AD
:1003100000F032F813F0010F18BFFB1A43F001038D
:1003200000F001F8DBE71847248A0000448A000047
:10033000103A24BF78C878C1FAD8520724BF30C811
:1003400030C144BF04680C60704700007047000073
:100350000023002400250026103A28BF78C1FBD8CE
:10036000520728BF30C148BF0B6070471FB508F067
:10037000A9F81FBD10B510BD00F0EEFA1146FFF749
:10038000F5FF07F041FC00F00CFB03B4FFF7F2FFB0
:1003900003BC07F0EDFB000009488047094800470F
:1003A000FEE7FEE7FEE7FEE7FEE7FEE7FEE7FEE725
:1003B000FEE7FEE704480549054A064B7047000082
:1003C000A96E0008CD020008B80A0024B810002465
:1003D000B80C0024B80C0024704753EA020C00F05B
:1003E00069802DE9F04B4FF00006002B1FBFB3FAD8
:1003F00083F503FA05F424FA05F65E4012BF1643AE
:10040000B2FA82F502FA05F4C5F120051EBF22FA00
:1004100005FC44EA0C04203556EA044C4FEA144427
:1004200018BF641C4FF000084FF00009904271EBB8
:10043000030C39D3002919BFB1FA81F701FA07F685
:10044000B0FA80F700FA07F6C7F120071EBF20FABE
:1004500007FC46EA0C062037B6FBF4FCA7EB0507C1
:10046000103F07F01F0BCBF120062CFA06F60CFA12
:100470000BFB44BFB3460026202FA4BF5E464FF0BF
:10048000000B5BEA060C08BF4FF0010B19EB0B09E0
:1004900048EB0608ABFB027C06FB02CC0BFB03CC53
:1004A000C01B71EB0C01C1E70B46024641464846B2
:1004B000BDE8F08B13B5084318BF4FF0FF3001467D
:1004C000AFF30080BDE81C4070472DE9FF5F1D467B
:1004D0004FF0FF3B91464FF000085F46D5E90146DB
:1004E000A96901987F1C8847296A824688470028A5
:1004F000F6D1BAF1FF3F0CD0002E24F4C06419DD10
:10050000600614D5BAF12B0F09D0BAF12D0F0ED118
:1005100003E0584604B0BDE8F09F44F48064A96944
:1005200001987F1C8847761E8246002E02DDBAF1B4
:10053000300F03D0B9F1000F26D032E0A969761E42
:1005400001987F1C44F400748847002E824605DD24
:10055000BAF1780F06D0BAF1580F03D0B9F1000FF5
:1005600010D01EE0B9F1000F02D0B9F1100F18D170
:10057000A969761E01987F1C24F40074884782467E
:10058000102002E0082000E00A20814609E0A96965
:1005900008FB0908761E01987F1C44F40074884704
:1005A0008246002E05DD4946504600F0C3F900287A
:1005B000EDDAE96901988847A00502D46FF00100DF
:1005C000A8E7E00725D1600613D5600502D5C8F17C
:1005D000000000E0404629680A1D2A6009682205DB
:1005E00001D5087015E0220701D5088011E00860E8
:1005F0000FE02868011D29600068210502D580F8F8
:10060000008006E0210702D5A0F8008001E0C0F8D4
:10061000008038467EE72DE9F04F9B4616464FF0A6
:100620000109C1B020910090A9F1010920A85DF84D
:10063000295050F82900C5E04FEA6A0070432C1891
:100640005FEACA7100D1801B5A4621462718284606
:10065000904700280EDD304646EA0501890765D03F
:1006600022782978401E05F8012B04F8011BF7D1E8
:10067000AD1BA41B5A46394620469047002823DD6F
:100680005A4639462846904700280EDD304646EA4D
:100690000501890751D03A782978401E05F8012BC9
:1006A00007F8011BF7D1AD1BBF1B304646EA04011A
:1006B000890749D03A782178401E04F8012B07F8C1
:1006C000011BF7D1A41BBF1B314646EA0402B81B2D
:1006D000920740D003782278491E04F8013B00F8C5
:1006E000012BF7D12C46871BB84634445A46414665
:1006F000204690470028F8DB5A464146BF1B384643
:1007000090470028F8DC304646EA0401A7424FEA49
:1007100081712ED931B33A782178401E04F8012B2B
:1007200007F8011BF7D1A41BBF1BDEE7226829686D
:10073000001F04C502C4F9D19AE73A682968001F6E
:1007400004C502C7F9D1AEE73A682168001F04C4A6
:1007500002C7F9D1B6E703682268091F08C404C0BC
:10076000F9D1BFE73A682168001F04C402C7F9D174
:10077000D9E7E1B198F800202178401E04F8012B58
:1007800008F8011BF6D1A21B501BB0FBF6F0401E6F
:10079000AAEB0001491E884216DD0A2910DD20ABB4
:1007A0004DF8295043F8290009F1010918E0D8F85B
:1007B00000202168001F04C448F8041BF7D1E2E7B9
:1007C0000A2810DD824637E70A2807DD4DF8292080
:1007D00020AA42F8291009F10109F3E70A2902DDEC
:1007E00015468A4628E7B9F1000F7FF41DAF41B0E6
:1007F000BDE8F08F2DE9F04799460F4606461400F4
:1008000039D0002F37D00A2F01D9FFF704FF7F1E00
:10081000354607FB04582CE02F46254400E03F1BDB
:10082000B74205D34A462946384690470028F6DCA9
:1008300044EA05003B1980070CD0002117E0291875
:100840000A1B0F6802E011681151121B9A42FAD27A
:10085000001D1751A0420CD2F1E76818027801E0A0
:1008600007780755001B9842FAD2491C0255A1424D
:10087000F3D34545D0D3BDE8F08710B5203AC0F09A
:100880000B80B1E81850A0E81850B1E81850A0E863
:100890001850203ABFF4F5AF5FEA027C24BFB1E8FC
:1008A0001850A0E8185044BF18C918C0BDE810403F
:1008B0005FEA827C24BF51F8043B40F8043B08BF48
:1008C0007047D20728BF31F8023B48BF11F8012B0F
:1008D00028BF20F8023B48BF00F8012B70474FF0BB
:1008E000000200B5134694469646203922BFA0E880
:1008F0000C50A0E80C50B1F12001BFF4F7AF09078C
:1009000028BFA0E80C5048BF0CC05DF804EB89007C
:1009100028BF40F8042B08BF704748BF20F8022BBF
:1009200011F0804F18BF00F8012B704770477047D7
:10093000704770473A2800D2303820F02002412A10
:1009400001D3A2F13700884201D34FF0FF30704746
:1009500000487047280000247546FFF7F9FFAE46AF
:1009600005006946534620F00700854618B020B5BB
:10097000FFF720FDBDE820404FF000064FF00007D4
:100980004FF000084FF0000BAC46ACE8C009ACE8F3
:10099000C009ACE8C009ACE8C00921F007018D46E8
:1009A000704710B50446AFF300802046BDE8104004
:1009B000FFF7EBBC0000000010B50446006842F2EF
:1009C000001140F48070C4F20201884218D142F252
:1009D0000830C4F20200006810F4403F18D003F061
:1009E000BBF96168B1F5803F05D0B1F5403F2BD030
:1009F000B1F5003F29D1090CB0FBF1F025E000BFB3
:100A000046F20830C5F60200006810F4403FE6D117
:100A10004FF40020002102F077F96168A1F58022EF
:100A20004FEAB2420A2A10D8DFE802F006060606AC
:100A30000606403E443C42006FF0010202EA51418A
:100A4000B0FBF1F001E000BF80084BF62141C0F29D
:100A5000BE01884206D82068816821F44071816017
:100A600010BD00BF47F64101C0F27D11884207D892
:100A700020680122816862F30921816010BD00BFF6
:100A800021684FF28102C0F2FA229042886805D8AC
:100A9000022262F30920886010BD00BF40F440705C
:100AA000886010BDC009D0E74009CEE70009CCE757
:100AB000000ACAE78009C8E770B504460068826882
:100AC000836802F0040203F00803D2186CD0C268F5
:100AD000920121D5627E012A1ED1227E012A1BD1DC
:100AE0000168490613D44DF60441C0F20C010439E3
:100AF00050D0026852065CBF02685FEA426206D4C8
:100B0000026852065CBF02685FEA4262EFD540218C
:100B10000160012106E000BF022903D1022108265D
:100B200012E000BF826852070AD58268920707D494
:100B30004FF6C0738268C7F6FF731A4010328260A6
:100B400001294FF0040610D0826812070AD5826886
:100B5000920707D44FF6C0738268C7F6FF731A4036
:100B600020328260032908BF0C2601F0F9FD2168BC
:100B70008968314218D0054603E000BF80683042E2
:100B800012D001F0EDFD401B06282068F6D38168E5
:100B90003142F3D0206E40F010002066606E40F0CD
:100BA00001006066012070BD002070BD00000000E3
:100BB000F0B581B0044600688168C9074AD14FF694
:100BC000C0778168C7F6FF7707F17F0211420BD02B
:100BD000206E40F010002066606E40F001006066FC
:100BE000012001B0F0BD00BF8168394041F0010132
:100BF000816001F0B5FD42F2000246F20836C4F20F
:100C00000202216802F5807302F54275C5F60206FC
:100C1000994208BF2E46914208BF2E46994205468A
:100C2000306814D110F01F0014D110E08868C0079C
:100C300004D18868384040F00100886001F090FDE0
:100C4000401B2168032802D30868C007C0D0086889
:100C5000C007EBD0002001B0F0BD00000000000094
:100C6000FEE70000000000004EF6FC50CEF200004F
:100C7000016841F08071016041F200000021CEF274
:100C800000004160016841F001010160006801213C
:100C900000F0007081EA5060704700000000000022
:100CA0007047000000000000002808BF7047B0B582
:100CB00041F6802C41F20401C0F2060C4EF2805E37
:100CC000CEF20001CFF6F97E0CF1010201E000BF87
:100CD00030B30B6873450FD30C689C4208D90C687D
:100CE0009C4284BF0C689C4202D90C689C42F3D899
:100CF0000023144601E000BF644601380D68ED1A78
:100D0000A542E5D20D68ED1AA5423EBF0D68ED1A69
:100D1000A542DDD20D68ED1AA542EFD3D8E700BF9A
:100D2000BDE8B040704700004AF6AB210230CAF679
:100D3000AA21A0FB010241F20400CEF200005208F9
:100D4000016803685B1A93420BD203685B1A9342F3
:100D50003EBF03685B1A934203D203685B1A934257
:100D6000EFD370470000000041F204014FF4C87255
:100D7000CEF2000150430A6813180ED30B68934259
:100D800008D90B68934284BF0B68934202D90B6861
:100D90009342F3D840F0010000220B689B1A834273
:100DA0000BD20B689B1A83423EBF0B689B1A83428F
:100DB00003D20B689B1A8342EFD3704700000000F8
:100DC0004FF4007001F0DCBBEFF3108072B600BF8F
:100DD000FEE700000000000090ED000A91ED001A0F
:100DE00030EE410A0020B5EE400AF1EE10FAB8BF2D
:100DF0004FF0FF30C8BF0120704700000000000026
:100E0000B0B540F2945100F10807C2F2004101F57B
:100E10000275D1E980CE3CCD3CC7C0E900CED1E916
:100E20008621C0E90621B0BD70B586B040F200440D
:100E300001ADC5F60204002005900121CDE90210A4
:100E40000490204629460326019601F0A5FB0220C6
:100E50002946CDE9010604F5806001F09DFB06B04E
:100E600070BD00000000000040F294520729C2F259
:100E7000004282F8260228BF072182F82712704715
:100E80002DE9F04188B040F2A80740F20045C2F2D7
:100E90000047C5F60205044602213E78284606F0C2
:100EA000010201F055FC06F002020121284601F082
:100EB0004FFC06F0040205F58060012101F048FCBA
:100EC0000120FFF751FF204600F03EFE0A21204698
:100ED00000F086FD002840F0B480204600F0A8FB1A
:100EE000397800EE100A40F2945640F2B4057A18B0
:100EF000C2F20046C1EBC101C2F200455378B8EE20
:100F0000400A05EB810196F82752581C5070C0B278
:100F100001EB8303A84283ED000A01D30020507047
:100F200096F8260202280BD001281FD1A5B3042D64
:100F300005F0030C34D29FED480A00204EE000BFBC
:100F40000DF10408AA004046FFF797FC40F6D9537C
:100F50000422C0F6000340462946FFF74BFC6FF021
:100F6000020000EA4500404490ED000AB6F8241261
:100F700038780F2954D8B6F8222206EB80130131B5
:100F8000A6F8241203EB8203013202F00F02A6F846
:100F9000222283ED000A50E09FED2F0A35E000BFCA
:100FA00005F0FC02A1F1100052429FED2B0A002334
:100FB00090ED041A043B30EE010A90ED051A9A42B6
:100FC00030EE010A90ED061A30EE010A90ED071A94
:100FD00000F1100030EE010AEAD15842BCF1000FD6
:100FE00013D001EB8000BCF1010F90ED001A30EE40
:100FF000010A0AD090ED011ABCF1020F30EE010A8D
:1010000003D090ED021A30EE010A01EE105AB8EE4C
:10101000411A80EE010AB6F8241238780F29AAD9AD
:10102000B6F8201206EB801202EB8102013101F0CA
:101030000F01A6F8201282ED000A06EB800080ED79
:10104000800A204600F004FE3878013000F00700E6
:10105000387008B0BDE8F08100000000000000001A
:1010600090F85C20012A01D10220704710B582B0AF
:1010700042F2083400230193C4F202040093A4F561
:1010800042720368934227D14FF6006ECFF6FF7E7F
:1010900054F80E209B681A4352071DD4D1F800C0A3
:1010A0002268BCF1000F22F4404323D04A681A435F
:1010B00022604FF60052CFF6FF72A25854F80E305D
:1010C0001A43D20726D1226840F61F739A438968D3
:1010D000114341EA0C011CE0016E41F02001016660
:1010E0000121002280F85C2002B0BDE810400846D3
:1010F000704700BF4FF600512360CFF6FF71615873
:1011000054F80E201143C90704D1216840F61F721C
:10111000914321600021E4E72DE9F04381B00022F2
:10112000009290F85C20012A04D10221084601B007
:10113000BDE8F0830368012280F85C209A685207BA
:1011400000F1168246F2083C4FF6FF7EC5F6020C0F
:10115000C0F20F0EACF542780C68434516D0B4F1DE
:10116000FF3F13DD94FAA4F514EA0E0FB5FA85F5E6
:101170004FF0010608BFA50EA40E05F01F0506FAE4
:1011800005F5DE693543DD6101E000BFA40E4D6861
:101190001F2204F01F04C5F3012605F01F05AA4015
:1011A00003EB8606AC40376B27EA02022243326328
:1011B0009A689C6802F0040204F00804121940F0D6
:1011C00034810A6807268D684345C2F34064C2F340
:1011D000045203EB840406FA02F6676905FA02F288
:1011E00027EA060642EA060262613FD041F20002A7
:1011F000C5F60042126802F07042B2F1805F40F022
:10120000A5804A69DC680E2505EA540402FA04F454
:101210000D69042D00F0D38003F160020E6806F022
:10122000F84652F8257007F000473E44344342F830
:1012300025400C6991F8215052F82460012D26F0C8
:10124000004608BF06F1004642F824600A7E0C6999
:101250001D69013A04F01F04B2FA82F225F4F04548
:101260005209D202A2402A431A61DEE04FF604522C
:1012700003F16004CFF6FF72D1E90456042D5CF847
:1012800002706DD14FF65852CFF6FF725CF8022013
:1012900022680F68C2F3846217EA0E09C7F38466F6
:1012A00097FAA7F7B7FA87F52F4608BF3746BA422D
:1012B0000CD1226822F0004222600A6802EA0E097C
:1012C000C2F3846692FAA2F2B2FA82F562682F46FD
:1012D0006268B9F1000F08BF3746C2F38462BA42B0
:1012E0000CD1626822F0004262600A6802EA0E09CC
:1012F000C2F3846692FAA2F2B2FA82F5A2682F468D
:10130000A268B9F1000F08BF3746C2F38462BA423F
:101310000CD1A26822F00042A2600A6802EA0E091B
:10132000C2F3846692FAA2F2B2FA82F5E268B9F1E7
:10133000000FE26808BF3546C2F38462AA4274D146
:10134000E26822F00042E2606FE000BFDA684C69B8
:10135000DD68D2064FEA55052AD405F00E0229E0D1
:101360004FF006090A6809EA970702F0F842BE4002
:1013700054F82570324342F0004244F825200A69AF
:10138000ACF52A74CD6954F8226026F08076354396
:1013900044F822500A6991F8205054F82260012D37
:1013A00026F0007608BF06F1007644F822603CE0A3
:1013B00005F0080294400D69042D7FF42DAF1A6EDC
:1013C0000C6802F0F842A406A24217D11A6E22F06D
:1013D00000421A665A6E02F0F842A24213D09A6E88
:1013E00002F0F842A24217D19A6E22F000429A66A9
:1013F000DA6E02F0F842A24213D016E05A6E02F002
:10140000F842A242EBD15A6E22F000425A669A6E1E
:1014100002F0F842A242E7D0DA6E02F0F842A242AD
:1014200003D1DA6E22F00042DA669A68D20758D108
:10143000ACF51672434518BF03F1C002CD680C68C5
:1014400005F01805166804EA0E072EFA05F5BE43E6
:101450002C40344314600024CA68C4F2FF74A242D2
:101460003BD10C6814EA0E0F12D094FAA4F2B2FA2F
:1014700082F2013202F01E07092F02F01F0710D876
:10148000012207EB4706BA4042EA065715E000BFC3
:10149000012202EB946202F01E070A2F02F01F07DE
:1014A000EED3012207EB4706BA400027CFF62067AC
:1014B00007EB06573A4342F00077C7F3406207252F
:1014C000C7F304578E6803EB8202BD40546906FAE5
:1014D00007F724EA05052F4357610F68B7F1FF3F6F
:1014E00002DD002149E000BF42F2000142F2001596
:1014F000C4F20201C4F2020501F5807201F54276E0
:101500009342624608BF32468B4208BF324643F4DC
:101510008076AE42166823D18A68D1F8081111434B
:10152000C90725D1002106F0E075CCF252718F4237
:1015300008BF16F4000127D00021CCF221318F42E0
:1015400060D10021B1EB156F5CD1434515D1DCF8BA
:10155000001021F0E071294341F0807165E000BF87
:101560004FF60051CFF6FF715CF80110C907D9D0D2
:10157000016E41F0200101660121002280F85C200B
:10158000084601B0BDE8F0834345AAD1DCF800105D
:1015900042F6635221F0E071C0F23E52294341F419
:1015A0000001CCF8001040F20801C2F200410968C5
:1015B0008909A1FB02129109022202EB410100916B
:1015C000009900298DD000990139009100990029D6
:1015D0003FF487AF009901390091009900293FF449
:1015E00080AF009901390091009900293FF479AF4B
:1015F000009901390091009900294FF00001E2D1D2
:10160000BBE700BF43454FF00001B6D10022CCF646
:101610008432974208BF16F48002AED1DCF8001085
:1016200021F0E071294341F48001CCF8001058E723
:101630000068006C7047000070B582B04FF0000188
:10164000019178B3016E39B9044600F075F920466E
:101650000021616684F85C1001688A6892004FF688
:10166000C072C5F6FF7202D58B6813408B608B6821
:10167000DB0032D48B6802F180521A4042F6635389
:1016800042F080528A6040F20802C0F23E53C2F239
:10169000004212689209A2FB0323012202EB93127B
:1016A00006E000BF0124204602B070BD019A013A55
:1016B0000192019A8AB1019A013A0192019A62B1AA
:1016C000019A013A0192019A002A1FBF019A013A38
:1016D0000192019A18BF002AE8D18A68D20009D481
:1016E000026E012442F010020266426E42F00102D4
:1016F000426600E000248A68036E03F0100302F0E3
:101700000402D218026E55D122F4817246F2000C06
:10171000023202668A68C5F6020CD20723D142F271
:10172000001341F48072C4F202039A4242F20002B2
:10173000C4F2020240F0E8809368D2F808512B43CB
:10174000DB0710D102F580739942634608BF134648
:10175000914208BF0B464268D3F8085325F47C1524
:101760002A43C3F80823427EC36B614543EA4233F0
:1017700028D082681A4390F82030012B42EA0343B4
:1017800006D1426A0025CFF6FE7505EB42421343AF
:10179000826A22B102F47872C56A2A431343614512
:1017A0001ED04CF20305CA68CFF6F0752A401A43E2
:1017B000CA6024E042F0100101240166204602B014
:1017C00070BD00BFD0E90225082A00F0A5800C2AD0
:1017D00000F0A0801C2A40F0A1801022A1E000BFF0
:1017E00044F20705DCF80C20CFF6F0752A401A43C6
:1017F000CA600A69436B22F040621A430A618A6830
:101800008B6802F0040203F00803D21869D1027E4B
:1018100061454FEA823229D0036BCE6844F203055A
:10182000AE4333431A43CA6090F84420012A47D19B
:101830004FF61E030A69CFF60043D0F840C01A40A5
:101840000123D0E91265CFF6FF732A4303EB064369
:10185000066D1A43436D32431A430A610A6922F046
:10186000704242EA0C020A6137E000BFCB6890F890
:10187000385044F2030E90F8446023EA0E0343EA22
:101880004503012E42EA0302CA6019D14FF61E0336
:10189000DCF81020CFF600431A40D0E912361A4384
:1018A000036D3243466D1A43036C324342F001022A
:1018B0000A610A6922F070421A430A6111E000BF0E
:1018C0000A69614522F001020A610A69036C22F08B
:1018D000704242EA03020A6103D00546FFF76CF842
:1018E0002846016802690B6B012A23F00F0202D11E
:1018F000C369013B1A430A630122016E62F30101CD
:101900000166204602B070BDDCF80830DB073FF40A
:1019100019AF28E7082204E0002202E0182A18BFC5
:1019200000222A431A4390F82030012B42EA034355
:101930003FF427AF2CE70000B0B5B6B0044602A8CC
:101940002830902100253195CDE93455CDE9325527
:10195000FEF7C5FF42F200012068C4F2020188428E
:1019600002D036B0B0BD00BF4FF400200290022478
:101970001020CDE90504C0200395CDE9090502A892
:101980000494CDE907440B9501F07AFB08B1FFF709
:101990001BFA44F2D840C5F60200016841F020016C
:1019A0000160016801F0200101910199816841F015
:1019B00004018160806831A900F004000190019861
:1019C000032032900020339040F60000C5F602005C
:1019D000319400F0E1FD36B0B0BD00000000000021
:1019E0002DE9F04F81B042F2000B46F20832C4F20A
:1019F000020B044600680BF580790BF54273C5F6BF
:101A0000020248450D4608BF1A46584508BF1A4607
:101A1000D4F814801368B8F1080F03F01F0A01D13D
:101A200008270DE0BAF1090F36D8012140F2212331
:101A300001FA0AF119422FD0C068C00730D104273B
:101A400000F08EFE21680A683A423DD10646681CC5
:101A500031D065B900F084FE2168086838420FD0A3
:101A600008683842F6D02FE0086838422CD100F0E0
:101A700077FE801B2168A842F6D908683842F3D166
:101A8000206E40F004002066002084F85C000320F3
:101A900001B0BDE8F08F00BF106810F4404FCED009
:101AA000206E40F020002066012001B0BDE8F08FDC
:101AB0000868384208D10868384205D108683842B9
:101AC00004BF08683842F3D0206E40F400702066EE
:101AD000C86810F4406F0FD1607E68B908680007CD
:101AE0000AD5206E20F480702066206EC00403D4D6
:101AF000206E40F001002066BAFA8AF0AAF10502D1
:101B0000B2FA82F2AAF10903B3FA83F34009520947
:101B1000494518BF8B4610435A091043C007584621
:101B200018BF08468B4508BF5846B8F1080FC06873
:101B300002D1082003E000BF400401D40C2008605B
:101B4000002001B0BDE8F08F70B542F2000446F20B
:101B50000836C4F20204016804F5807204F5427389
:101B6000C5F60206914208BF1E46A14208BF1E46A6
:101B700035688968490703D490F85C10012901D1C0
:101B8000022070BD012180F85C100646FFF710F8B6
:101B900020B1002086F85C00012070BD316804F59A
:101BA0008073326E994240F60173304618BF0C467E
:101BB00022EA030305F01F0203F580733366631AFC
:101BC000B3FA83F318BF002A03D1066E26F48016F9
:101BD0000666066E5B09F6044FF0000644BF466ECB
:101BE00026F006064FF0000546664FF01C060E6014
:101BF00080F85C5043B9092A18D8012303FA02F28D
:101C000040F221231A4211D0CA68920104D5026E13
:101C1000012363F30D3202664FF6C0728868C7F67F
:101C2000FF72104004308860002070BD016E41F4E6
:101C300080110166E168890102D4002070BD00BFF7
:101C4000016E012262F30D310166002070BD0000BB
:101C5000B0B5044690F85C00012801D10220B0BD67
:101C600003212046012584F85C50FEF725FF28B1AA
:101C7000002084F85C002846B0BD00BF2068816861
:101C80008268D20717D011F0020114D1816801F0E7
:101C90000D01012926D14FF6C0728168C7F6FF7287
:101CA0001140023181600321016000F059FD21687B
:101CB0008968C90708D1204641F20112002550F871
:101CC000601F914316E000BF054602E08068C00730
:101CD000F1D000F045FD401B03282068F6D3816851
:101CE000C907F3D0206E012540F010002066204681
:101CF00050F8641F41F001010160002084F85C008D
:101D00002846B0BD000000002DE9F041044600F077
:101D100027FD1CB3054694F83500022822D140F275
:101D20000F472668C4F2020740F26F48BE426FF0C8
:101D30000E00C4F202081DDC6F21C4F202018E42C3
:101D40002ADC3F21C4F202018E4241DC1021C4F2A0
:101D500002018E4263D028215CE000BF0120BDE873
:101D6000F08100BF802060650120002184F83410DC
:101D7000BDE8F08146451BDC40F23F41C4F2020160
:101D80008E422DDC40F21041C4F202018E4246D058
:101D900040F228413EE000BF9F21C4F202018E4282
:101DA00028DC7021C4F202018E4238D0882131E053
:101DB00040F29F41C4F202018E4223DC40F27041A6
:101DC000C4F202018E422AD040F2884122E000BFD4
:101DD0004021C4F202018E4221D058211AE000BFF6
:101DE00040F24041C4F202018E4218D040F2584104
:101DF00010E000BFA021C4F202018E420FD0B82132
:101E000008E000BF40F2B841C4F202018E4206D0A1
:101E100040F2A041C4F202018E42314607D1314660
:101E2000306820F01E0041F8140B6FF080000A6843
:101E3000464500EA020008601ADC9F20C4F2020056
:101E4000864233DC5720C4F2020086425ADC10205E
:101E5000C4F20200864200F097802820C4F20200FB
:101E6000864200F091804020C4F202008AE000BF68
:101E700045F22F40C5F6020086422DDC40F2B74005
:101E8000C4F2020086424BDC40F27040C4F2020011
:101E9000864279D040F28840C4F20200864273D074
:101EA00040F2A040C4F202006CE000BF40F22740C4
:101EB000C4F20200864243DCA020C4F20200864243
:101EC00062D0B820C4F2020086425DD040F21040D9
:101ED000C4F2020056E000BF45F26B40C5F60200B6
:101EE00086423FDC45F23040C5F6020086424BD0C8
:101EF00045F24440C5F60200864245D045F25840BE
:101F00003EE000BF5820C4F2020086423CD0702060
:101F1000C4F20200864237D08820C4F2020031E0C9
:101F200040F2B840C4F2020086422DD045F208408B
:101F3000C5F60200864227D045F21C4020E000BFD3
:101F400040F22840C4F2020086421DD040F24040D8
:101F5000C4F20200864217D040F25840C4F2020098
:101F600010E000BF45F26C40C5F6020086420BD07F
:101F700045F29440C5F60200864205D045F2804005
:101F8000C5F60200864204D1206E016821F48071FA
:101F90000160306820F00100306000BF3068C00789
:101FA00010D000F0DDFB401B0628F7D32020606531
:101FB000032084F835000120002184F83410BDE8A6
:101FC000F08100BF20680821B8424FF03F0211DCC9
:101FD0006F23C4F2020398421EDC3F23C4F20203C3
:101FE000984235DC1023C4F20203984257D02823CC
:101FF00050E000BF40451BDC40F23F43C4F2020307
:1020000098422DDC40F21043C4F20203984246D0BD
:1020100040F228433EE000BF9F23C4F202039842EF
:1020200028DC7023C4F20203984238D0882331E0C0
:1020300040F29F43C4F20203984223DC40F2704313
:10204000C4F2020398422AD040F2884322E000BF43
:102050004023C4F20203984221D058231AE000BF63
:1020600040F24043C4F20203984218D040F2584371
:1020700010E000BFA023C4F2020398420FD0B8239F
:1020800008E000BF40F2A043C4F20203984206D029
:1020900040F2B843C4F20203984240F0C580D4E94C
:1020A000163707F01F07404502FA07F25A5019DCAD
:1020B0009F21C4F20201884232DC5721C4F202019E
:1020C000884259DC1021C4F20201884200F0968057
:1020D0002821C4F20201884200F090804021C4F21D
:1020E000020189E045F22F41C5F6020188422DDC4C
:1020F00040F2B741C4F2020188424BDC40F2704129
:10210000C4F20201884279D040F28841C4F202014F
:10211000884273D040F2A041C4F202016CE000BFDB
:1021200040F22741C4F20201884243DCA021C4F2FC
:102130000201884262D0B821C4F2020188425DD017
:1021400040F21041C4F2020156E000BF45F26B417B
:10215000C5F6020188423FDC45F23041C5F6020176
:1021600088424BD045F24441C5F60201884245D031
:1021700045F258413EE000BF5821C4F202018842B6
:102180003CD07021C4F20201884237D08821C4F2C9
:10219000020131E040F2B841C4F2020188422DD080
:1021A00045F20841C5F60201884227D045F21C419C
:1021B00020E000BF40F22841C4F2020188421DD055
:1021C00040F24041C4F20201884217D040F2584127
:1021D000C4F2020110E000BF45F26C41C5F60201F5
:1021E00088420BD045F29441C5F60201884205D0E1
:1021F00045F28041C5F6020188420BD1616EA26EA4
:10220000E06E4A6030B1016821F480710160D4E968
:102210001C014160012084F835000020002184F871
:102220003410BDE8F08100BF0421012237E700002F
:10223000F0B190F83510022918D180B540F20F4264
:102240000168C4F20202914214DC6F23C4F202035B
:10225000994225DC3F23C4F2020399423CDC10235F
:10226000C4F2020399425DD0282357E080214165E2
:102270000120704740F26F43C4F2020399421BDC15
:1022800040F23F43C4F2020399422DDC40F2104376
:10229000C4F20203994245D040F228433EE000BF19
:1022A0009F23C4F20203994228DC7023C4F2020384
:1022B000994237D0882331E040F29F43C4F20203B1
:1022C000994223DC40F27043C4F20203994229D0C0
:1022D00040F2884322E000BF4023C4F20203994247
:1022E00020D058231AE000BF40F24043C4F202035A
:1022F000994217D040F2584310E000BFA023C4F227
:10230000020399420ED0B82308E000BF40F2B84360
:10231000C4F20203994205D040F2A043C4F2020382
:10232000994275D191424FF0040280F8352011DCBA
:102330006F20C4F20200814222DC3F20C4F202007E
:10234000814239DC1020C4F20200814259D0282099
:1023500054E000BF40F26F40C4F2020081421BDC37
:1023600040F23F40C4F2020081422DDC40F21040B6
:10237000C4F20200814244D040F228403EE000BF57
:102380009F20C4F20200814228DC7020C4F20200C7
:10239000814236D0882031E040F29F40C4F20200F2
:1023A000814223DC40F27040C4F20200814228D016
:1023B00040F2884022E000BF4020C4F20200814287
:1023C0001FD058201AE000BF40F24040C4F2020083
:1023D000814216D040F2584010E000BFA020C4F265
:1023E000020081420DD0B82008E000BF40F2B840A2
:1023F000C4F20200814204D040F2A040C4F20200C4
:102400008142086820F001000860002080BD00BF04
:102410000A6822F00E020A6045F25742C5F602022F
:1024200091420A6822F001020A600FDC45F22F4255
:10243000C5F60202914219DC45F20842C5F60202D5
:10244000914229D045F21C4222E000BF45F27F4272
:10245000C5F60202914213DC45F25842C5F602026B
:10246000914219D045F26C4212E000BF45F2304271
:10247000C5F6020291420FD045F2444208E000BF87
:1024800045F29442C5F60202914205D045F28042DF
:10249000C5F6020291421AD1D0E9181CD0E916E320
:1024A0000A6822F480720A6003F01F01012202FA16
:1024B00001F1CEF80410816ECCF80410C16E31B178
:1024C0000A6822F480720A60D0E91C124A60012175
:1024D00080F83510016D0022002980F8342094D056
:1024E0008847002080BD0000B0F5007F18BF70470E
:1024F00010B500204FF40071C5F6020000F020F97D
:1025000040F678010128C2F200410968486A07D103
:1025100040F28801C2F200410860BDE810407047F7
:1025200040F28804C2F200442168606088420BD205
:10253000421A4FF00002A0EB010042F1000105F049
:1025400091FF00EE100A04E0401A00EE100AB8EE07
:10255000400AB7EEC00A9FED081B20EE010BB6EE55
:10256000001B20EE010BB7EEC00B84ED020ABDE8A4
:102570001040704700BF00BF006F8104C58FA13FAE
:102580008821C5F600010A68024208BF704708604A
:10259000FFF7AABF000000002DE9F04F83B00F68DD
:1025A000002F00F0C98000F1264642F2004506F1F6
:1025B000FF76C5F602050A22A8424FEAB62540F288
:1025C000040C08BF092200F120030093082DC5F672
:1025D000000C38BF4FEAB622002400264FF0000856
:1025E00001920AE008F101080F6837FA08F206F1D3
:1025F000020604F1040400F09F80012202FA08FEA2
:1026000017EA0E09EED0D1F804B003220BF003074D
:10261000B2407D1E6FEA020A012D11D88268CD6892
:1026200002EA0A02B5402A438260CBF300154268F1
:1026300022EA0E0205FA08F52A43426004E000BFD0
:10264000032F01D103271FE0C2688D6802EA0A0246
:10265000B540022F42EA0502C26015D16FF00302B5
:1026600004F01C0502EA580B009A0F2352F80BE005
:10267000AB400F692EEA0303AF403B4342F80B30F7
:10268000D1F804B00BF00307026807FA06F302EA78
:102690000A021BF4403F42EA03020260A2D044F265
:1026A000F44340F2084EC5F60203C5F6000E0F25AE
:1026B0001A6842F002021A601A6802F002020292DC
:1026C00028F00302029B04F00C0352F80E709D40A8
:1026D000AF43019D05FA03F33B4342F80E304FF040
:1026E000B04EDEF800204B6842EA0907DD0258BF11
:1026F00022EA09079D02CEF80070DCF8002042EAC9
:10270000090758BF22EA09079D03CCF80070DCF8DE
:10271000802042EA090758BF22EA0907DB03CCF808
:102720008070DCF87C2042EA090758BF22EA0907DA
:10273000CCF87C7056E700BF03B0BDE8F08F000016
:102740000069084018BF0120704700000000000029
:10275000002A08BF090481617047000000000000E2
:1027600040F6B020C2F20040006870470000000050
:1027700040F2000040F6B021C2F20040C2F2004137
:1027800000780A68104408607047000000000000EC
:1027900080B5032000F0ACF801F066FB44F218416C
:1027A00048F2EA43C5F60201C0F600030A68C2F324
:1027B00003229A5C096801F00F0102F01F02595CC4
:1027C000D04040F20C02C2F2004201F01F0120FA98
:1027D00001F1116040F20801C2F2004108600F20CF
:1027E00000F00AF800281CBF012080BD00F02CF882
:1027F000002080BD00000000B0B540F20005C2F22C
:1028000000452978F1B1044640F20800C2F20040C8
:102810004FF47A72B2FBF1F10068B0FBF1F001F015
:102820004BFE0F2C01464FF001000AD8002918BFBB
:10283000B0BD4FF0FF300022214600F029F8002003
:102840006C60B0BD0120B0BD81B044F2F440C5F66B
:102850000200016841F002010160006800F002001E
:102860000090009801B07047002848BF704700F002
:102870001F01012202FA01F14EF20012C0F34A10C8
:10288000CEF2000242F82010704700000000000065
:1028900070B54EF60C5C4FF0FF36CEF2000C00F136
:1028A000604505F56445DCF80030C3F3022E8EF078
:1028B0000703042B28BF0423BEF1030406FA03F325
:1028C00021EA030100F00F0338BF0024043B002875
:1028D000634406FA04F048BF03F10C05A14022EA64
:1028E000000008430001287070BD000000000000D7
:1028F0004EF60C514FF6FF03CEF200010A681A4063
:1029000060F30A2242F0806040F0FD70086070477A
:10291000B0B544F60C05C5F60205296849072968D3
:1029200006D401F00701081A18BF0120B0BD00BF8E
:1029300021F0070108432860FFF712FF044600BF9B
:1029400055F8080C800407D4FFF70AFF001BB0F508
:102950007A7FF5D90120B0BD0020B0BD0000000095
:1029600080B501F0F9F944F2204148F2EA42C5F697
:102970000201C0F600020968C1F30211515C01F0C6
:102980001F01C84080BD000080B544F23041C5F64B
:10299000020151F8083C51F8082C51F804CCC2F35C
:1029A000051E4A68BEF1000F1AD0C2F3CC0203F034
:1029B000030300EE102A9FED3A1AB8EE400A20EE0B
:1029C000010A9FED381ADFE803F00323110700BF67
:1029D00051F8302C92060DD49FED331A18E000BF49
:1029E00000218160C0E9001180BD00BF9FED2F1A5A
:1029F0000EE000BF51F8302C49F20003C0F2D03392
:102A0000C2F3C10223FA02F201EE102AB8EE411A13
:102A10000A689FED273A6FF35F2202EE102A5FEA01
:102A2000CC7203FE000A03EE10EA0A68B8EE422AEE
:102A3000C2F34622B8EE433A013230EE020AB7EE54
:102A4000002A81EE031A30EE020A21EE000A01EE9E
:102A5000102AB8EE411A80EE011ABCEEC11A80EDC0
:102A6000001A0A68C2F30642013201EE102AB8EEDB
:102A7000411A80EE011ABCEEC11A80ED011A0968F4
:102A8000C1F30661013101EE101AB8EE411A80EE71
:102A9000010ABCEEC00A10EE101A816080BD00BFB2
:102AA000000000390024744A0024744C20BCBE4B42
:102AB000000000000000000080B544F2384EC5F66A
:102AC000020E5EF8103C5EF8101C5EF80C2CC1F390
:102AD000053CDEF80410BCF1000F19D0C9089FEDC9
:102AE0003C1AD20601EAE27103F003026FF35F3190
:102AF00000EE101AB8EE400ADFE802F002221022BF
:102B00005EF8381C89060DD49FED331A18E000BF1B
:102B100000218160C0E9001180BD00BF9FED2D1A2A
:102B20000EE000BF5EF8381C49F20002C0F2D0325D
:102B3000C1F3C10122FA01F101EE101AB8EE411AF7
:102B4000DEF800109FED253A6FF35F2102EE101AB8
:102B5000DEF80010C1F34621B8EE422A013100EE42
:102B6000032A00EE10CAB7EE003AB8EE400A81EE32
:102B7000000A32EE031A20EE010A01EE101AB8EE36
:102B8000411A80EE011ABCEEC11A80ED001ADEF87F
:102B90000010C1F30641013101EE101AB8EE411ADE
:102BA00080EE011ABCEEC11A80ED011ADEF80010A9
:102BB000C1F30661013101EE101AB8EE411A80EE40
:102BC000010ABCEEC00A10EE101A816080BD00BF81
:102BD0000024744A20BCBE4B0024744C0000003911
:102BE00080B544F2404EC5F6020E5EF8183C5EF821
:102BF000181C5EF8142CC1F3055CDEF80410BCF15F
:102C0000000F19D0C9089FED3C1AD20501EAE27104
:102C100003F003026FF35F3100EE101AB8EE400AC2
:102C2000DFE802F0022210225EF8401C89060DD473
:102C30009FED331A18E000BF00218160C0E9001148
:102C400080BD00BF9FED2D1A0EE000BF5EF8401C56
:102C500049F20002C0F2D032C1F3C10122FA01F1FF
:102C600001EE101AB8EE411ADEF800109FED253A79
:102C70006FF35F2102EE101ADEF80010C1F3462157
:102C8000B8EE422A013100EE032A00EE10CAB7EE78
:102C9000003AB8EE400A81EE000A32EE031A20EE46
:102CA000010A01EE101AB8EE411A80EE011ABCEECC
:102CB000C11A80ED001ADEF80010C1F3064101319F
:102CC00001EE101AB8EE411A80EE011ABCEEC11ADC
:102CD00080ED011ADEF80010C1F30661013101EE4A
:102CE000101AB8EE411A80EE010ABCEEC00A10EECE
:102CF000101A816080BD00BF0024744A20BCBE4B06
:102D00000024744C0000003910B584B0024641F62E
:102D1000FF7300209B1A70EB01032DDA47F6FF7357
:102D20009B1A70EB010380F2878082F400430B430F
:102D300000F0F48082F480330B4300F0138182F4BE
:102D40000022114340F0908144F20041C5F6020197
:102D5000886DC0F301420020DFE812F0D6000400C5
:102D6000620086010868800040F1778101A8FFF7C2
:102D700037FF039804B010BD40F2FF739B1A70EB4D
:102D800001032DDB82F480730B4300F0818082F419
:102D90008062114340F0688144F20041C5F60201AF
:102DA000886DC0F34252042A00F2578148F20000B5
:102DB000C0F2BB00DFE812F0E600A800EE00580108
:102DC000060000BFC86C0A68520700F0405208684D
:102DD00002D5002A00F03281C00500F1F280F9E04E
:102DE00082F400630B4300F07B8082F48052114335
:102DF00040F03A8144F20041C5F60201086DC0F38B
:102E00000232042A00F2298148F20000C0F2BB001D
:102E1000DFE812F0B8007A00C0002A01060000BF07
:102E2000C86C0A68520700F04052086840F1C78039
:102E3000002A00F00381C2E082F400530B4300F04B
:102E40007B8082F48042114340F00E8144F20044C2
:102E5000C5F60204A06DC0F30270052800F2FD80E3
:102E6000DFE810F00600DE00CC00D800CA00F60053
:102E700000F072FF216A48F2EA42C0F60002C1F394
:102E80000211515C01F01F01C84004B010BD00BF29
:102E900044F20041C5F60201086D00F00702042A61
:102EA00000F2DB8048F20000C0F2BB00DFE812F065
:102EB0006A002C007200DC00060000BFC86C0A68C3
:102EC000520700F04052086802D5002A00F0B68090
:102ED000C00540F17F80B2F1805F00F0758079E03D
:102EE00044F20041C5F60201886DC0F30262042A73
:102EF00000F2B38048F20000C0F2BB00DFE802F04D
:102F000042044AB4560000BF0868000140F1A580A1
:102F100001A8FFF7D1FD019804B010BD44F20041B3
:102F2000C5F60201086DC0F301720020DFE802F06F
:102F3000022A3C9C08689AE044F20040C5F6020070
:102F4000016DC1F30241052900F28780DFE801F03D
:102F500004826A72588E00BF04B0BDE8104000F0D1
:102F600023BF00BF44F20040C5F60200C16C0068F8
:102F7000C90308D5000170D501A8FFF79DFD03988E
:102F800004B010BD0868800167D501A8FFF7FCFCFC
:102F900069E000BF086880005FD501A8FFF720FE48
:102FA000019804B010BD00BF086854E0C86C0A68FE
:102FB000520700F04052086801D5002A3ED0C005F3
:102FC00008D5B2F1805F05D140F60010C0F23D0097
:102FD00004B010BD0868B2F1005F00F400314FF09A
:102FE000000004BF47F64000C0F27D10002908BF72
:102FF000084604B010BD00BF206802E0206812E05F
:10300000006840F60011C005C0F23D0101EAE07021
:1030100004B010BD206840071FD520680EE000BF37
:10302000206818E00068800017D501A8FFF7D8FDD8
:1030300019E000BF016849070FD50068C0F3C1005F
:1030400049F20001C0F2D03121FA00F004B010BD05
:1030500020680CE00068000102D4002004B010BD1C
:1030600001A8FFF729FD029804B010BD006847F6DB
:1030700040018003C0F27D1101EAE07004B010BD90
:103080002DE9F0470446C07844F22C480007C5F605
:10309000020828D5606E4FEA305103292AD8DFE8AC
:1030A00001F0030B131B00BFD8F8001041F40031EE
:1030B000C8F8001010E000BF04F10800022103F07E
:1030C0004FFD064680B906E004F12800022103F016
:1030D000DBFD064640B9606ED8F8241021F440119B
:1030E0000843C8F8240000266078C00706D135469A
:1030F0002FE000BF01266078C007F8D0A06D04283B
:103100003ED83546DFE800F004140E0B0B0000BF7C
:10311000D8F80000354640F40030C8F800002F46CB
:10312000C5B90DE004F12800002103F0ADFD04E075
:1031300004F10800002103F013FD05462F464DB9A8
:10314000D8F82400A16D20F0070000250843C8F836
:1031500024003746607840073AD5D4F8A4004FEAF7
:103160007050052818D8DFE800F0031D1123232331
:10317000D8F8000040F40030C8F8000018E000BFA4
:103180000125012760784007E7D421E004F12800F9
:10319000002103F079FD0AE001250126607800078F
:1031A0001AD44FE004F10800002103F0D9FC0546D1
:1031B0002E461DB1607800070ED443E0D8F82C00ED
:1031C000D4F8A41020F4600000250843C8F82C00AF
:1031D0003E466078000735D5D4F8A8004FEA306045
:1031E000052813D8DFE800F004180C1E1E1E00BFCF
:1031F000D8F8000040F40030C8F8000012E000BF2A
:1032000004F12800002103F03FFD0AE00125012719
:10321000E07880071AD434E004F10800002103F0BC
:103220009FFC05462F461DB1E07880070ED428E0AC
:10323000D8F82C00D4F8A81020F0E060002508434E
:10324000C8F82C003746E07880071AD5E06C4FEAC2
:103250003010032838D8DFE800F009032D0900BF3B
:10326000D8F8000040F40030C8F800002E464DB9F0
:10327000D8F82000E16C20F0300000250843C8F8A1
:1032800020003E466078C00639D5E06D4FEA303008
:10329000042847D8DFE800F004221C0A0A0000BF17
:1032A000D8F8000040F40030C8F800002F463DBBBD
:1032B0001CE000BF04F10800022103F051FC0546A8
:1032C000002D2E46DED1D3E701250126DAE700BF27
:1032D00004F12800002103F0D7FC04E004F1080009
:1032E000002103F03DFC05462F464DB9D8F82400D7
:1032F000E16D20F4E04000250843C8F8240037467B
:103300006078800635D5206E4FEA3040052815D804
:10331000DFE800F0041A0E04040400BF2E46DDB9F5
:103320001EE000BF0125012760788006EBD420E075
:1033300004F12800012103F0A7FC0AE00125012681
:103340006078400619D449E004F10800012103F037
:1033500007FC05462E461DB1607840060DD43DE0C1
:10336000D8F82400216E20F4E02000250843C8F896
:1033700024003E466078400630D5D4F8AC004FEAD1
:10338000307005280ED8DFE800F0031307030303AD
:103390002F46ADB918E000BF04F12800012103F069
:1033A00073FC0AE001250127607800061AD43CE08E
:1033B00004F10800012103F0D3FB05462F461DB19F
:1033C000607800060ED430E0D8F82C00D4F8AC10A9
:1033D00020F0E04000250843C8F82C00374660780C
:1033E000000622D5E06E58B1B0F1005F0CD0B0F10C
:1033F000805F37D1D8F8000040F40030C8F80000F2
:103400002E469DB908E000BF04F10800012103F039
:10341000A7FB05462E464DB9D8F82400E16E20F0F2
:10342000405000250843C8F824003E46E078C00715
:103430001DD0A06C032855D8DFE800F008024A0828
:10344000D8F8000040F40030C8F80000A9467DB963
:10345000D8F82000A16C20F0030000250843C8F82C
:10346000200004E001250126E078C007E1D1B14643
:10347000A078400602D44F4618E000BFD8F8D40325
:1034800040F48070C8F8D403FFF76AF9064600BF1D
:10349000D8F8D403C00507D4FFF762F9801B64286D
:1034A000F6D90325032701E02F46FDB12078C00798
:1034B00000F06F80A06F4FEAF00005284ED8DFE8DB
:1034C00000F0035347030303002D2E4654D157E069
:1034D00004F10800022103F043FB0546002DA94634
:1034E000C6D1B5E701254FF00109C1E7D8F844106E
:1034F000D4F8B000414011F4407F11D0D8F8441006
:10350000D8F8442042F48032C8F84420D8F8442047
:1035100021F4407122F48032C8F84420C8F84410E5
:10352000B0F5807F40F0D082FFF71AF9064641F2ED
:10353000883A0325032700BFD8F84400800700F12C
:10354000C182FFF70DF9801B5045F5D9AEE700BFEA
:1035500004F12800012103F097FB0AE00125012670
:103560002078800719D446E004F10800012103F017
:10357000F7FA05462E461DB1207880070DD43AE0B3
:10358000D8F82800A16F20F0380000250843C8F8BB
:1035900028003E46207880072DD5606F05280FD87B
:1035A000DFE800F004140804040400BF2F46ADB99E
:1035B00018E000BF04F12800012103F065FB0AE0D8
:1035C000012501272078400719D447E004F10800BD
:1035D000012103F0C5FA05462F461DB120784007AA
:1035E0000DD43BE0D8F82800616F20F007000025DB
:1035F0000843C8F828003746207840072ED5D4F86D
:10360000900005280ED8DFE800F00313070303033A
:103610002E46ADB918E000BF04F12800012103F0E7
:1036200033FB0AE001250126207880061AD44BE0FE
:1036300004F10800012103F093FA05462E461DB15E
:10364000207880060ED43FE0D8F82C00D4F89010F3
:1036500020F0070000250843C8F82C003E462078DB
:10366000800631D5D4F88C004FEA307005280FD889
:10367000DFE800F004140804040400BF2F46ADB9CD
:1036800018E000BF04F12800022103F0FDFA0AE06F
:1036900001250127207840061AD44BE004F10800E8
:1036A000002103F05DFA05462F461DB12078400643
:1036B0000ED43FE0D8F82800D4F88C1020F0E04079
:1036C00000250843C8F8280037462078400631D541
:1036D000D4F898004FEAB02005280FD8DFE800F0B2
:1036E00004140804040400BF2E46ADB918E000BF5E
:1036F00004F12800022103F0C7FA0AE0012501269F
:10370000207800061AD44EE004F10800002103F0EE
:1037100027FA05462E461DB1207800060ED442E059
:10372000D8F82C00D4F8981020F4E0500025084375
:10373000C8F82C003E462078000634D5D4F89C000A
:103740004FEA7030052815D8DFE800F0041A0E049F
:10375000040400BF2F46E5B12068010727D4C10645
:103760003ED4000355D477E004F12800022103F091
:103770008BFA0AE00125012720680107EFD516E042
:1037800004F10800002103F0EBF90546002D2F4657
:10379000E2D1D8F82C00D4F89C1020F46040002529
:1037A0000843C8F82C00374620680107D7D5D4F85D
:1037B0008000B0F5805F09D104F12800022103F0F8
:1037C00063FA002818BF0127D4F88000D8F8281021
:1037D00021F440510843C8F828002068C106C0D52C
:1037E000D4F89400B0F5807F09D104F128000221BB
:1037F00003F04AFA002818BF0127D4F89400D8F83B
:103800002C1021F440710843C8F82C0020680003F4
:1038100022D5D4F8A000B0F5003F11D0B0F5803F1C
:1038200008D0002844D104F10800002103F098F9E1
:1038300005E000BF04F12800022103F025FA054647
:103840002E4655B9D8F82C00D4F8A01020F44030FA
:1038500000250843C8F82C003E46A07840072CD528
:10386000D4F88400B0F5401F0BD0B0F5001F0BD08A
:10387000B0F5801F2AD1D8F8000040F40030C8F815
:1038800000002F46D5B907E004F12800012103F01C
:10389000FBF905462F468DB9D8F82800D4F88410D6
:1038A00020F4401000250843C8F8280005E000BFB8
:1038B00001250126A0784007D2D43746A078C0075A
:1038C00009D13E462168880015D532E0012501273F
:1038D000A078C007F5D0206DB0F5803F10D018BBA0
:1038E000D8F8000040F40030C8F800002E4685B13A
:1038F000216888001DD460688A0326D465E000BF73
:1039000004F10800022103F02BF90546002D2E4694
:10391000EED1D8F82000216D20F480300025084336
:10392000C8F82000CDE700BF0125012621688800E6
:10393000E1D504F12800022103F0A6F9002818BF00
:103940000126D4E900108A033FD5E26F6FF001032E
:1039500003EB3223022B0BD34FEA322343B1012B6B
:1039600040F0AA80D8F8003043F40033C8F80030A3
:1039700025B3CA022CD48A0234D44A003CD4CA0FDC
:1039800049D1090251D4C1075AD1810763D44107F3
:103990006CD4010776D4C10600F18080800607D57B
:1039A00004F12800022103F06FF9002818BF012557
:1039B000002D18BF01252846BDE8F087D8F828302B
:1039C00023F440731A43C8F828203546CA02D2D5DA
:1039D000D8F82420236F22F000421A43C8F824208C
:1039E0008A02CAD5D8F82420A36E22F080721A4326
:1039F000C8F824204A00C2D558F81C2C22F40042F2
:103A000048F81C2CD4F8B42058F81C3C1A4348F849
:103A10001C2CCA0FB5D0D8F82020636D22F040527C
:103A20001A43C8F820200902ADD5D8F82810D4F8D8
:103A3000882021F440011143C8F82810C107A4D000
:103A400004F10800002103F08BF8002818BF054698
:103A5000606881079BD504F10800012103F080F81C
:103A6000002818BF05466068410792D504F1080098
:103A7000022103F075F8002818BF054660680107A9
:103A80007FF589AF04F12800002103F0FDF800283C
:103A900018BF05466068C1067FF580AF04F12800B5
:103AA000012103F0F1F8002818BF05466068800680
:103AB0003FF576AF7CE700BF0125CA027FF55BAF1B
:103AC00086E700BFD4F8B0004FF6CF7358F81C2C2F
:103AD000C0F2FF0300F4407122F47C5203EA101399
:103AE0006FF31F30B1F5407F08BF1A43002548F837
:103AF0001C2CD8F844100843C8F84400FFF7BBBC9E
:103B00002DE9F04381B0002800F0208142F2000945
:103B10000446C5F20029D9F8000000F00F008142E8
:103B20000DD9D9F8000020F00F000843C9F80000B3
:103B3000D9F8000000F00F00884240F007812068AB
:103B400044F218464207C5F602060AD522693368D0
:103B500003F070039A4204D9336823F070031A43C8
:103B6000326002070AD56269736803F070039A42F3
:103B700004D9736823F070031A437260C2060AD531
:103B8000A269736803F4E0639A4204D9736823F46A
:103B9000E0631A43726082060AD5E269B36803F0F3
:103BA00070039A4204D9B36823F070031A43B260D9
:103BB00010F002020AD0E368376807F00F07BB4233
:103BC00004D9376827F00F073B433360C3073FD062
:103BD000306820F47062D4E901031A43326001288E
:103BE00056F8182C0AD0032804D002280AD19203D0
:103BF0000BD4ABE0920108D4A8E000BFD20504D4F6
:103C0000A4E000BF520740F1A180884656F8081C86
:103C100021F00701084346F8080CFEF7A1FD054610
:103C200041F2883756F8080C616800F03800B0EBB4
:103C3000C10F09D0FEF794FD401BB842F2D9032012
:103C400001B0BDE8F08300BF2068414600F00202E9
:103C500052B1E268336803F00F039A4204D233682A
:103C600023F00F031A433260D9F8002002F00F024C
:103C700091420CD2D9F8002022F00F020A43C9F871
:103C80000020D9F8002002F00F028A425ED14107DD
:103C90000AD52169326802F07002914204D232687A
:103CA00022F070021143316001070AD56169726820
:103CB00002F07002914204D2726822F07002114345
:103CC0007160C1060AD5A169726802F4E06291428E
:103CD00004D2726822F4E0621143716080060AD552
:103CE000E069B16801F07001884204D2B16821F046
:103CF00070010843B06000F0B7F8316848F2EA425A
:103D0000C0F60002C1F30321515C336803F00F03D6
:103D100001F01F01D25C20FA01F102F01F0040F215
:103D20000C02C2F2004221FA00F0106040F20400DE
:103D300040F20802C2F20040C2F200420068116084
:103D400001B0BDE8F043FEF757BD00BF012001B050
:103D5000BDE8F0830000000080B500F085F844F273
:103D6000184148F2EA43C5F60201C0F600030A68AA
:103D7000C2F303229A5C096801F00F0102F01F02EE
:103D8000595C20FA02F201F01F0040F20C01C2F26D
:103D9000004122FA00F0086040F20801C2F200413E
:103DA0000A6080BD0000000080B500F05DF844F2BC
:103DB000184C48F2EA43C5F6020CC0F60003DCF8E2
:103DC0000020C2F303229A5CDCF8001001F00F011E
:103DD00002F01F02595CD04040F20C02C2F20042D5
:103DE00001F01F0120FA01F1116040F20802C2F255
:103DF00000421060DCF80400C0F30210185C00F010
:103E00001F0021FA00F080BD80B500F02DF844F2CB
:103E1000184C48F2EA43C5F6020CC0F60003DCF881
:103E20000020C2F303229A5CDCF8001001F00F01BD
:103E300002F01F02595CD04040F20C02C2F2004274
:103E400001F01F0120FA01F1116040F20802C2F2F4
:103E500000421060DCF80400C0F30220185C00F09F
:103E60001F0021FA00F080BD44F20041C5F60201B6
:103E70000869C0F3C200032816D002280ED000281B
:103E800032D10868800649F20000C0F2D03058BF35
:103E900070470968C1F3C101C840704747F6400048
:103EA000C0F27D10704700BF8B6A886AD1F82CC0C1
:103EB0004A6BC0F30510E8B1C2F3CC0203F0030370
:103EC00000EE102A9FED2A1AB8EE400A20EE010AF1
:103ED0009FED281ADFE803F0022110210A689206FC
:103EE0000ED49FED261A18E040F60010C0F23D00F7
:103EF000704700BF002070479FED1F1A0DE000BF04
:103F00000A6849F20003C0F2D033C2F3C10223FAB7
:103F100002F201EE102AB8EE411A0A6B9FED183A30
:103F20006FF35F2202EE102A5FEACC7203FE000AF2
:103F300003EE100A086BB8EE422AC0F34620B8EE32
:103F4000433A013030EE020AB7EE002A81EE031A3E
:103F500030EE020A21EE000A01EE100AB8EE411A14
:103F600080EE010ABCEEC00A10EE100A704700BFD6
:103F7000000000390024744A20BCBE4B0024744C5D
:103F8000000000000000000070B3F0B581B00446EE
:103F9000007844F20046C007C5F6020626D1207814
:103FA00080076AD5306910F03801B06A42D018290C
:103FB00008BF5FEA80703DD0E0683168002800F0FB
:103FC0002D8121F0190108433060FEF7C9FB054639
:103FD000306840074AD4FEF7C3FB401B0228F7D9DC
:103FE000032001B0F0BD00BF01207047306900F030
:103FF0003801B06A102905D018290BD100F0030050
:10400000022807D130688003C9D560680028C6D16E
:10401000AAE000BF61683068002900F03981B1F57D
:10402000A02F00F02D81B1F5803F40F0478140F492
:10403000803049E130684007E06802D5002800F090
:104040009380316821F0190108433060FEF788FB46
:10405000054600BF3068400708D4FEF781FB401BCF
:1040600002284FF00300F5D901B0F0BD7068216956
:1040700020F0FE4040EA016070602078C0061AD54A
:10408000306900F03801B06A082907D0182940F0DB
:10409000858000F00300012840F080803068C00572
:1040A00002D5E06980285FD1F068216A20F07C5059
:1040B00040EA0160F060207800073FD42078800655
:1040C00056D42078400700F18180656A9DB330693D
:1040D00000F03800182840F01981012DB16A306BCA
:1040E00042D001F00302A36A9A423DD1C1F3051107
:1040F000E26A914238D10146226B6FF35F21013AA7
:10410000914231D1C0F34622616B01398A422BD1F1
:10411000C0F30642A16B01398A4225D1C0F3066083
:10412000E16B013988421FD1706BA16CC0F3CC00E8
:10413000814240F0A581002001B0F0BD60690028F7
:10414000706F59D040F001007067FEF709FB05461B
:10415000706F8007B2D4FEF703FB401B0228F7D92B
:10416000032001B0F0BD00BF012001B0F0BD00BFD1
:10417000A0690028306871D040F480503060FEF7AC
:10418000EFFA0546306880049BD4FEF7E9FA401B3D
:104190000228F7D9032001B0F0BD00BFE069002874
:1041A000306800F0A18040F080003060FEF7D8FA5F
:1041B000054600BF3068C0053FF576AFFEF7D0FA80
:1041C000401B02284FF00300F4D94DE7D6F8000455
:1041D00040F48070C6F80004FEF7C2FA054600BF3E
:1041E000D6F80004C0052BD4FEF7BAFA401B6428A9
:1041F000F6D9032001B0F0BD20F001007067FEF792
:10420000AFFA0546706F80077FF558AFFEF7A8FA42
:10421000401B02284FF00300F4D925E721F00100EC
:104220003060FEF79DFA0546306840077FF525AF00
:10423000FEF796FA401B02284FF00300F4D913E76B
:10424000A168306F002900F08B80052900F0808084
:10425000012940F09D8040F001009FE020F4805053
:104260003060FEF77DFA0546306880047FF529AF9F
:10427000FEF776FA401B02284FF00300F4D9F3E66C
:1042800040F480203060306840F480301CE000BF93
:1042900020F480303060306820F480203060FEF7F9
:1042A0005FFA0546306880037FF579AEFEF758FA6D
:1042B000401B64284FF00300F4D9D5E620F4803089
:1042C0003060306820F480203060FEF749FA0546FF
:1042D000306880033FF563AEFEF742FA401B642866
:1042E000F6D9032001B0F0BD20F080003060FEF769
:1042F00037FA05463068C0057FF5DDAEFEF730FAC7
:10430000401B02284FF00300F4D9ADE6306820F0DE
:1043100080703060FEF724FA022D05460CD100BFF4
:10432000306880014CD5FEF71BFA401B02284FF085
:104330000300F5D998E600BF306880017FF5FBAE39
:10434000FEF70EFA401B02284FF00300F4D98BE66B
:1043500040F004003067306F40F001001EE000BF05
:1043600020F001003067306F20F004003067FEF766
:10437000F7F9054641F28837306F80077FF5A5AE23
:10438000FEF7EEF9401BB8424FF00300F4D96BE69C
:1043900020F001003067306F20F004003067FEF736
:1043A000DFF9054641F28837306F80073FF58DAE63
:1043B000FEF7D6F9401BB8424FF00300F4D953E69C
:1043C00004F12807B06A40F2F33188438ECF0843E6
:1043D000591E40EA02104FF47E426FF35F21B06233
:1043E00002EB47204FF4FE0280B2E36B0844A16B5E
:1043F00002EB01414FF0FE4201F4FE0102EB0362C9
:10440000084402F0FE4108443063F06A4FF6F87148
:1044100020F00100F062706BA26C884340EAC20099
:104420007063F06A216C20F00C000843F062F06ABF
:10443000616C20F002000843F062F06A40F48030C2
:10444000F062F06A40F40030F062F06A40F48020DC
:10445000F062F06A40F00100F062306840F0807075
:104460003060FEF77DF90446306880013FF563AEA9
:10447000FEF776F9001B02284FF00300F4D9F3E5AC
:10448000F06A20F00100F062FEF76AF90546FEF7D7
:1044900067F9A842FBD0706B4FF6F871A26C8843A5
:1044A00040EAC2007063F06A40F00100F062002050
:1044B00001B0F0BD00000000411E0020B0EB116F04
:1044C00002D00120704700BF4EF21002F023CEF25E
:1044D000000251604EF62351CEF200010B7007210D
:1044E00090601160704700007047000000000000FD
:1044F000704700000000000070470000000000004E
:1045000090F83C20012A4FF0020266D0B0B580F846
:104510003D2040F2004C0268C4F2010C42F480637A
:1045200063455368D2F808E002BF23F470034C6877
:1045300023434DF6FF740D68C4F2000423F07003AA
:10454000A24243EA0503536014DC40F2FF73C4F255
:1045500000039A4222DD40F60003C4F200039A42AF
:104560002ED040F60043C4F200039A4228D041F610
:10457000000321E04FF6FF73C4F200039A4213DDFB
:104580000023C4F201039A421AD044F20003C4F299
:1045900001039A4214D0624512D016E0B2F1804F66
:1045A0000ED040F2004307E04EF20003C4F20003D5
:1045B0009A4205D04EF20043C4F200039A4204D15D
:1045C0002EF080038968194391600022012180F850
:1045D0003D1080F83C20BDE8B04010467047000018
:1045E00060B310B5044690F83D0028B9002084F867
:1045F0003C00204600F024F8022084F83D002068AA
:10460000211D02F0B9FC012084F8480084F83E0026
:1046100084F83F0084F8400084F8410084F84200A8
:1046200084F8430084F8440084F8450084F8460088
:1046300084F8470084F83D00002010BD0120704739
:1046400080B582B041F2FF310068C4F200018842B7
:1046500020DCB0F1804F35D041F20001C4F20001FE
:1046600088423CD144F2E8400022C5F602000168CD
:1046700041F0100101600068012100F0100001907C
:1046800001983620FEF704F9362002B0BDE88040DC
:10469000FEF7EAB841F20041C4F20001884221D09D
:1046A0004EF20001C4F20001884218D144F2E84001
:1046B000C5F60200416841F080714160406800F039
:1046C00080700AE044F2E840C5F60200016841F05B
:1046D00001010160006800F001000190019802B042
:1046E00080BD00BF44F2E8400022C5F60200016828
:1046F00041F0200101600068022100F020000190DB
:1047000001983720FEF7C4F8372002B0BDE880409A
:10471000FEF7AAB80000000090F83D10012923D14F
:10472000022180F83D1001684DF6FF70C4F20000D0
:1047300081421BDC40F2FF70C4F2000081422DDD9B
:1047400040F60000C4F2000081423DD040F6004037
:10475000C4F20000814237D041F60000C4F20000EC
:10476000814231D03CE000BF012070474FF6FF701E
:10477000C4F2000081421BDD0020C4F2010081422E
:1047800022D044F20000C4F2010081421CD040F269
:104790000040C4F20100814216D021E0B1F1804F07
:1047A00012D040F20040C4F2000081420CD017E069
:1047B0004EF20000C4F20000814205D04EF20040EB
:1047C000C4F2000081420BD107228868C0F20102C6
:1047D00002400020062A18BFB2F5803F00D1704782
:1047E000086840F0010008600020704700000000E9
:1047F00090F83D10012927D1022180F83D10016871
:104800004DF6FF70C4F200008142C86840F001001C
:10481000C8601BDC40F2FF70C4F2000081422DDD55
:1048200040F60000C4F2000081423DD040F6004056
:10483000C4F20000814237D041F60000C4F200000B
:10484000814231D03CE000BF012070474FF6FF703D
:10485000C4F2000081421BDD0020C4F2010081424D
:1048600022D044F20000C4F2010081421CD040F288
:104870000040C4F20100814216D021E0B1F1804F26
:1048800012D040F20040C4F2000081420CD017E088
:104890004EF20000C4F20000814205D04EF200400A
:1048A000C4F2000081420BD107228868C0F20102E5
:1048B00002400020062A18BFB2F5803F00D17047A1
:1048C000086840F001000860002070470000000008
:1048D00090F83C20012A4FF0020200F0AA8080B537
:1048E00080F83D208822D0F800C0CFF6CE72DCF8E8
:1048F00008301A40CCF808200B686F2B0EDDB3F19E
:10490000101F37DAB3F5005F6EDA702B00F0B68057
:10491000B3F5805F00F08480D8E000BF2F2B33DD3B
:104920004F2B39DC302B6FD0402B40F0CF80D1F8AB
:1049300004E0C968DCF82030DCF8202022F0010215
:10494000CCF82020DCF8182022F0F00242EA011115
:1049500023F00A02CCF8181042EA0E01CCF820101D
:104960004FF68872DCF80810CFF6CF72114047314D
:1049700054E000BF2F21C0F210018B423ADCB3F1AA
:10498000101F41D020213BE0002B18BF102B3BD043
:10499000202B39D09AE000BF502B4DD0602B40F037
:1049A0009580D1F804E0C968DCF82030DCF82020DC
:1049B00022F01002CCF82020DCF8182022F47042FB
:1049C00042EA013123F0A002CCF8181042EA0E119D
:1049D000CCF820104FF68872DCF80810CFF6CF72B2
:1049E000114067311AE000BF5CD0B3F5801F0BD0D7
:1049F0006CE000BF3021C0F210018B4204D0402196
:104A0000C0F210018B4261D14FF68872DCF80810B9
:104A1000CFF6CF721140194341F00701CCF80810CE
:104A20000022012180F83D10002180F83C10BDE8F3
:104A300080401046704700BFD1F804E0C968DCF838
:104A40002030DCF8202022F00102CCF82020DCF815
:104A5000182022F0F00242EA011123F00A02CCF8F9
:104A6000181042EA0E01CCF820104FF68872DCF8DC
:104A70000810CFF6CF7211405731CFE701F1040E85
:104A80009EE80C40DCF808101A4321F47F4142EA0A
:104A90000E221143CCF80810DCF8081041F0770121
:104AA000BCE700BF01F1040E9EE80C40DCF80810E2
:104AB0001A4321F47F4142EA0E221143CCF8081038
:104AC000DCF8081041F48041A8E700BF0122A8E704
:104AD0007047000000000000F0B581B00446006897
:104AE000C5680669B10717D515F0020114D06FF03B
:104AF00002010161012121778069800704D02046ED
:104B0000FFF7E6FF06E000BF204600F0CDF82046A4
:104B100000F05EFB00202077700719D515F0040027
:104B200016D020686FF004010161022121778069AD
:104B300010F4407F04D02046FFF7CAFF06E000BF14
:104B4000204600F0B1F8204600F042FB002020771C
:104B5000300717D515F0080014D020686FF0080151
:104B6000016104212177C069800703D02046FFF747
:104B7000AFFF05E0204600F097F8204600F028FB44
:104B800000202077F00619D515F0100016D0206807
:104B90006FF01001016108212177C06910F4407F96
:104BA00004D02046FFF794FF06E000BF204600F047
:104BB0007BF8204600F00CFB00202077F00718BFA0
:104BC00015F0010006D020686FF001010161204658
:104BD00000F0BAFB05F0800716F4025F18BF002F43
:104BE00002D1F00509D410E020686FF40251016190
:104BF0002046FFF77DFCF00507D537B120686FF43C
:104C0000807101612046FFF76FFC700609D515F031
:104C1000400006D020686FF040010161204600F09E
:104C2000BFFBB0060CD515F0200009D020686FF04E
:104C300020010161204601B0BDE8F040FFF75CBCF7
:104C400001B0F0BD0000000080B586B00068002112
:104C5000B0F1804F0591CDE903110291019101D08E
:104C600006B080BD44F2E040C5F60200026842F0A2
:104C700002020260006800F00200009000984FF409
:104C8000406001900220CDE902010120059040F230
:104C900000400491C5F6020001A9FDF77DFC06B0B5
:104CA00080BD000000000000704700000000000010
:104CB00090F83C30012B01D1022070474FEAB2023C
:104CC000052A00F223812DE9F041DFE812F0070008
:104CD000BB00570095003100F90000BF036843F6A0
:104CE000FF76C4F201061C6AB3421A6A24F0020479
:104CF00022F001021A621A46D3F804C052F818EFE3
:104D00008D6844EA0504D1F8008040F3818144F2C3
:104D10000007C4F20107BB4200F0858144F600079A
:104D2000C4F20107BB4200F07E8144F2004776E105
:104D3000036843F6FF77C4F20107D3F820C0BB42F3
:104D40001A6A22F480321A621A465C6852F8546F6A
:104D50000D68D1F808E040F3DF8044F20007C4F2A8
:104D60000107BB4200F0E38044F60007C4F20107EC
:104D7000BB4200F0DC8044F20047D4E0036840F21C
:104D8000004E43F48067C4F2010E1C6A77451A6A2C
:104D900024F4007422F480721A621A465D6852F894
:104DA0001CCF8E6844EA062407D1CE6840F2FF4744
:104DB000360224F44064BE43344343F6FF76D1F810
:104DC0000080C4F20106B34240F3D28044F20007EF
:104DD000C4F20107BB4200F0D28044F60007C4F2DF
:104DE0000107BB4200F0CB8044F20047C4F2010748
:104DF000BB4200F0C480C9E0036843F6FF77C4F209
:104E00000107D3F820C0BB421A6A22F480521A620A
:104E10001A465C6852F81C6F0D68D1F808E040F340
:104E2000CD8044F20007C4F20107BB4200F0D180FC
:104E300044F60007C4F20107BB4200F0CA8044F206
:104E40000047C2E0036840F2004E43F48067C4F2BA
:104E5000010E1C6A77451A6A24F0200422F0100221
:104E60001A621A465D6852F818CF8E6844EA061432
:104E700007D1CE686FF0400724F0C00407EA061699
:104E8000344343F6FF76D1F80080C4F20106B34202
:104E900040F3E08044F20007C4F20107BB4200F097
:104EA000E08044F60007C4F20107BB4200F0D9805D
:104EB00044F20047C4F20107BB4200F0D280D7E0C1
:104EC000036843F6FF77C4F20107D3F820C0BB4262
:104ED0001A6A22F480121A621A465C6852F8546FF9
:104EE0000D68D1F808E040F3058144F20007C4F2F0
:104EF0000107BB4200F0098144F60007C4F2010734
:104F0000BB4200F0028144F20047FAE00121002296
:104F100080F83C20084670470027C4F20107BB42D6
:104F200005D040F20047C4F20107BB4204D14F69EB
:104F300024F4803444EA07244FF68C775C60CFF683
:104F4000FE7703373E402CF4003746EA05045C65E3
:104F50004E6809699E6547EA0E471F625F6D47F01C
:104F600008075F655F6D27F004075F65EEE000BF2F
:104F70000027C4F20107BB4201D0734506D1D1E935
:104F80000576374325F4405646EA07154FF68C77E9
:104F90005D60CFF6FE7707EA0C0747EA0807DF6196
:104FA0004F680969DF631C62DF6947F00807DF614A
:104FB000DF6927F00407DF61C8E000BF0027C4F203
:104FC0000107BB4205D040F20047C4F20107BB42D3
:104FD00004D14F6924F4804444EA871448F6FF471B
:104FE0005C60CFF6FF673E402CF4005746EA05248C
:104FF000DC614E6809691E6447EA0E371F62DF698B
:1050000047F40067DF61DF6927F48067DF619CE0B8
:105010000027C4F20107BB4205D040F20047C4F2AA
:105020000107BB4205D1CF6824F00C0427F0040728
:105030003C43B34234DD44F20006C4F20106B342FD
:1050400039D044F60006C4F20106B34233D044F22C
:1050500000462CE00027C4F20107BB4201D0734593
:1050600006D1D1E90576374325F4406646EA87053F
:1050700048F6FF475D60CFF6FF6707EA0C0747EA8F
:1050800008279F614F6809699F631C629F6947F405
:1050900000679F619F6927F480679F6155E000BFAB
:1050A0000026C4F20106B34205D040F20046C4F225
:1050B0000106B34206D12CF44077D1E905653743A8
:1050C00047EA050C4FF68C75C3F804C0CFF6FE75A1
:1050D0000EEA050747EA08079F614F6809695F63A1
:1050E0001C629F6947F008079F619F6927F00407CA
:1050F0009F612BE00027C4F20107BB4205D040F2BC
:105100000047C4F20107BB4204D14F6924F4802454
:1051100044EA872448F6FF475C60CFF6FF6707F54F
:1051200040773E402CF4001746EA05245C654E6843
:105130000969DE6547EA0E571F625F6D47F4006735
:105140005F655F6D27F480675F6509021368194327
:1051500011600021BDE8F041002280F83C200846A3
:10516000704700000000000060B310B5044690F8DE
:105170003D0028B9002084F83C00204600F024F8C7
:10518000022084F83D002068211D01F0F5FE012079
:1051900084F8480084F83E0084F83F0084F840001A
:1051A00084F8410084F8420084F8430084F8440005
:1051B00084F8450084F8460084F8470084F83D00F0
:1051C000002010BD01207047704700000000000063
:1051D000704700000000000080B5C9B10B1F4FF000
:1051E0003F0C4FEAB30E4322BEF1040F38BF0CEB65
:1051F000B302825C012A13D1BEF1030F1ED8DFE88F
:105200000EF00319111500BF022280F83F2018E0AC
:1052100090F83E20012A03D1022280F83E2010E0BF
:10522000012080BD022280F841200AE0022280F89D
:10523000422006E0022280F8402002E0022280F8AC
:105240004320026801F01F00012101FA00F0116AF9
:10525000814311624EF2FF31C4F200018A42116AA9
:1052600040EA0100106215DC40F6FF30C4F2000095
:10527000824227DCB2F1804F4ED040F20040C4F2AF
:105280000000824248D040F60000C4F20000824292
:1052900042D053E043F6FF700021C4F20100C4F293
:1052A0000101824244F20000C4F201001EDC4EF211
:1052B0000043C4F200039A422ED08A4224D040F226
:1052C00000431DE040F60040C4F20000824223D0BB
:1052D00041F60000C4F2000082421DD04EF20000F0
:1052E000C4F20000824217D028E000BF82420BD0F7
:1052F00044F60003C4F201039A4205D044F200438D
:10530000C4F201039A4219D1536C8A4243F400411A
:10531000516418BF82420BD107219068C0F201018D
:1053200001400020062918BFB1F5803F06D180BD9D
:1053300040F20040C4F201008242EDD0106840F01B
:1053400001001060002080BDB0B541F200050446A8
:10535000C4F200050068A84208D102F0E9FF40F25B
:10536000BC70C2F20040FBF78BFD206805F5806140
:10537000884218BFB0BD00244FF48061C5F6020416
:1053800001222046FDF7E4F90C20FBF7EDFC4FF479
:10539000806100222046BDE8B040FDF7D9B9000089
:1053A000704700000000000090F88410012901D12E
:1053B000022070472421C0F8881001680A680B6831
:1053C00022F0005223F001030B60002343660A60C1
:1053D0002021C0F8881080F8843000207047000039
:1053E000704700000000000070470000000000004F
:1053F00090F88420012A01D10220704770B5242240
:10540000C0F888200268D0F864E0BEF1000FD2F83E
:1054100000C0136823F001031360936823F06063F6
:1054200041EA0301916019D0916848F63C5E9368A7
:10543000C0F6000E5B0F48F64455C1F34266C0F655
:1054400000051EF80340E95C2301B3FBF1F11EF8EF
:105450000630AE5D1B01B3FBF6F301E00121012331
:10546000A0F86A102021A0F86830C2F800C0C0F887
:105470008810002180F88410002070BD000000001A
:1054800090F88420012A01D10220704770B52422AF
:10549000C0F888200268D0F864E0BEF1000FD2F8AE
:1054A00000C0136823F001031360936823F0604386
:1054B00041EA0301916019D0916848F63C5E936817
:1054C000C0F6000E5B0F48F64455C1F34266C0F6C5
:1054D00000051EF80340E95C2301B3FBF1F11EF85F
:1054E0000630AE5D1B01B3FBF6F301E001210123A1
:1054F000A0F86A102021A0F86830C2F800C0C0F8F7
:105500008810002180F88410002070BD0000000089
:10551000704700000000000070470000000000001D
:10552000704700000000000070B5016840F62F02CF
:10553000CB691A40202A0A688E680BD102F0200439
:1055400006F080552D1917D0416F69B3BDE8704042
:10555000084700BF40F60F052B420DD0012540F251
:105560002014C1F20005C0F2004406EA050C02EA6C
:10557000040515EB0C0525D1DD06C46E16D5012CEE
:1055800014D112F0100511D010220A628968490660
:1055900066D4B0F85C10B0F85E20B0F85E30002B36
:1055A00018BF914240F05C8270BD00BFDD0215D58E
:1055B00016F4800512D04FF480120A62BDE87040E4
:1055C000FFF7AABFDD0718BF12F4807540F01E81F7
:1055D0009D0706F0010E00F125812EE1190606D582
:1055E00002F0800106F40006891940F0BF825906D6
:1055F00040F1008112F0400100F0FC80016851E8A8
:10560000001F026821F0400142E80013F3B1016875
:1056100051E8001F026821F0400142E80013002B0E
:105620001FBF016851E8001F026821F040011CBF44
:1056300042E80013002B09D0016851E8001F0268FE
:1056400021F0400142E80013002BD7D12021C0F8FF
:10565000881000218167BDE8704000F029BB00BFC1
:10566000D0F880100A68526893B2002B9CD0B0F832
:105670005C60B34298D2A0F85E20C969B1F5807F22
:1056800000F0AC80016851E8001F026821F48071CD
:1056900042E80013F3B1016851E8001F026821F4E9
:1056A000807142E80013002B1FBF016851E8001F02
:1056B000026821F480711CBF42E80013002B09D05E
:1056C000016851E8001F026821F4807142E800136C
:1056D000002BD7D1016851E8021F026821F00101B7
:1056E00042E80213F3B1016851E8021F026821F099
:1056F000010142E80213002B1FBF016851E8021F9D
:10570000026821F001011CBF42E80213002B09D0FE
:10571000016851E8021F026821F0010142E802130A
:10572000002BD7D1016851E8021F026821F0400127
:1057300042E80213F3B1016851E8021F026821F048
:10574000400142E80213002B1FBF016851E8021F0D
:10575000026821F040011CBF42E80213002B09D06F
:10576000016851E8021F026821F0400142E802137B
:10577000002BD7D12021C0F88C100021C166016810
:1057800051E8001F026821F0100142E80013F3B154
:10579000016851E8001F026821F0100142E800137F
:1057A000002B1FBF016851E8001F026821F01001A3
:1057B0001CBF42E80013002B09D0016851E8001F0C
:1057C000026821F0100142E80013002BD7D1D0F875
:1057D000801004460846FCF797FA2046022101672C
:1057E000B0F85C10B0F85E20891A89B2BDE870404C
:1057F000FFF7F6BD190240F1C58112F0804100F0BB
:10580000C181BDE87040FFF783BE00BF01250D6276
:10581000D0F8905045F00105C0F890509D0706F073
:10582000010E0AD5BEF1000F07D002240C62D0F899
:10583000904044F00404C0F890405C070AD5BEF1E3
:10584000000F07D004250D62D0F8905045F00205F6
:10585000C0F890501D070CD502F0200555EA0C0544
:1058600007D008250D62D0F8905045F00805C0F823
:1058700090501D050BD512F0806508D04FF40065DF
:105880000D62D0F8905045F02005C0F89050D0F847
:105890009050002D3FF488AE9B060BD502F02002FD
:1058A00006F08053D21805D0426F1AB104469047D3
:1058B00020462168D0F89020896801F0400102F06C
:1058C0002802891806D10446FFF72AFE0020C4F8F2
:1058D000900070BD016851E8001F026821F49071CA
:1058E00042E80013F3B1016851E8001F026821F497
:1058F000907142E80013002B1FBF016851E8001FA0
:10590000026821F490711CBF42E80013002B09D0FB
:10591000016851E8001F026821F4907142E8001309
:10592000002BD7D14FF6FE71CEF6FF71026852E818
:10593000022F03680A4043E80226DEB1026852E8FB
:10594000022F03680A4043E80226002E1FBF0268A8
:1059500052E8022F03680A401CBF43E80226002ECB
:1059600008D0026852E8022F03680A4043E8022682
:10597000002EDBD1C16E012927D1016851E8001F3B
:10598000026821F0100142E80013F3B1016851E808
:10599000001F026821F0100142E80013002B1FBF16
:1059A000016851E8001F026821F010011CBF42E8A5
:1059B0000013002B09D0016851E8001F026821F094
:1059C000100142E80013002BD7D12021C0F88C1021
:1059D0000021C166026841679168490640F1CE80A6
:1059E000016851E8021F026821F0400142E80213F9
:1059F000F3B1016851E8021F026821F0400142E85A
:105A00000213002B1FBF016851E8021F026821F03A
:105A100040011CBF42E80213002B09D0016851E885
:105A2000021F026821F0400142E80213002BD7D187
:105A3000D0F88010002900F0A18047F261320446BE
:105A40000846C0F600020A65FCF7F2FB00283FF4A6
:105A5000ABADD4F88000016DBDE87040084700BFD1
:105A6000891A026852E8002F036822F4907243E812
:105A70000026F6B1026852E8002F036822F4907203
:105A800043E80026002E1FBF026852E8002F03687B
:105A900022F490721CBF43E80026002E09D0026851
:105AA00052E8002F036822F4907243E80026002E8B
:105AB000D7D14FF6FE72CEF6FF72036853E8023F6D
:105AC0000668134046E80235DDB1036853E8023F3B
:105AD0000668134046E80235002D1FBF036853E8EF
